{
  "abi": [
    {
      "inputs": [
        {
          "internalType": "address",
          "name": "pythPriceFeedAddress",
          "type": "address"
        },
        {
          "internalType": "address",
          "name": "tokenCollateralAddress",
          "type": "address"
        },
        {
          "internalType": "bytes32[]",
          "name": "pairPriceFeedAddressId",
          "type": "bytes32[]"
        },
        {
          "internalType": "int256[]",
          "name": "maxOpenInterest",
          "type": "int256[]"
        },
        {
          "internalType": "uint256[]",
          "name": "pairIndex",
          "type": "uint256[]"
        },
        {
          "internalType": "string[]",
          "name": "pairSymbol",
          "type": "string[]"
        }
      ],
      "stateMutability": "nonpayable",
      "type": "constructor"
    },
    {
      "inputs": [],
      "name": "OrderBook__InvalidOrderType",
      "type": "error"
    },
    {
      "inputs": [],
      "name": "OrderBook__InvalidTradingPair",
      "type": "error"
    },
    {
      "inputs": [],
      "name": "OrderBook__MaxLeverageIs150",
      "type": "error"
    },
    {
      "inputs": [],
      "name": "OrderBook__MaxNumberOfOpenTrades3Reached",
      "type": "error"
    },
    {
      "inputs": [],
      "name": "OrderBook__MaxOpenInterestReachedLongs",
      "type": "error"
    },
    {
      "inputs": [],
      "name": "OrderBook__MaxOpenInterestShortsReached",
      "type": "error"
    },
    {
      "inputs": [],
      "name": "OrderBook__NeedsMoreThanZero",
      "type": "error"
    },
    {
      "inputs": [],
      "name": "OrderBook__ParameterArraysMustBeTheSameLength",
      "type": "error"
    },
    {
      "inputs": [],
      "name": "OrderBook__TradeSizeTooSmall",
      "type": "error"
    },
    {
      "inputs": [],
      "name": "OrderBook__TransferFailed",
      "type": "error"
    },
    {
      "inputs": [],
      "name": "OrderBook__UserClosingNonExistingPosition",
      "type": "error"
    },
    {
      "inputs": [
        {
          "internalType": "int256",
          "name": "userPNL",
          "type": "int256"
        }
      ],
      "name": "OrderBook__UserPositionNotOpenForLiquidation",
      "type": "error"
    },
    {
      "anonymous": false,
      "inputs": [
        {
          "indexed": true,
          "internalType": "uint256",
          "name": "pairIndex",
          "type": "uint256"
        },
        {
          "indexed": true,
          "internalType": "int256",
          "name": "borrowFee",
          "type": "int256"
        },
        {
          "indexed": true,
          "internalType": "uint256",
          "name": "orderType",
          "type": "uint256"
        }
      ],
      "name": "AvgBorrowFeeCalculation",
      "type": "event"
    },
    {
      "anonymous": false,
      "inputs": [
        {
          "indexed": true,
          "internalType": "uint256",
          "name": "pairIndex",
          "type": "uint256"
        },
        {
          "indexed": false,
          "internalType": "int256[]",
          "name": "borrowFees",
          "type": "int256[]"
        }
      ],
      "name": "BorrowFeeUpdated",
      "type": "event"
    },
    {
      "anonymous": false,
      "inputs": [
        {
          "indexed": true,
          "internalType": "address",
          "name": "user",
          "type": "address"
        },
        {
          "indexed": true,
          "internalType": "uint256",
          "name": "pairIndex",
          "type": "uint256"
        }
      ],
      "name": "MarketTrade",
      "type": "event"
    },
    {
      "anonymous": false,
      "inputs": [
        {
          "indexed": true,
          "internalType": "address",
          "name": "user",
          "type": "address"
        },
        {
          "indexed": true,
          "internalType": "uint256",
          "name": "pairIndex",
          "type": "uint256"
        },
        {
          "indexed": true,
          "internalType": "int256",
          "name": "userPNL",
          "type": "int256"
        }
      ],
      "name": "OrderClosed",
      "type": "event"
    },
    {
      "anonymous": false,
      "inputs": [
        {
          "indexed": true,
          "internalType": "address",
          "name": "previousOwner",
          "type": "address"
        },
        {
          "indexed": true,
          "internalType": "address",
          "name": "newOwner",
          "type": "address"
        }
      ],
      "name": "OwnershipTransferred",
      "type": "event"
    },
    {
      "anonymous": false,
      "inputs": [
        {
          "indexed": true,
          "internalType": "int256",
          "name": "priceChange",
          "type": "int256"
        }
      ],
      "name": "PriceChange",
      "type": "event"
    },
    {
      "anonymous": false,
      "inputs": [
        {
          "indexed": true,
          "internalType": "address",
          "name": "user",
          "type": "address"
        },
        {
          "indexed": true,
          "internalType": "uint256",
          "name": "userPairTradeIndex",
          "type": "uint256"
        },
        {
          "components": [
            {
              "internalType": "uint256",
              "name": "pairNumber",
              "type": "uint256"
            },
            {
              "internalType": "int256",
              "name": "openPrice",
              "type": "int256"
            },
            {
              "internalType": "int256",
              "name": "collateralAfterFee",
              "type": "int256"
            },
            {
              "internalType": "int256",
              "name": "leverage",
              "type": "int256"
            },
            {
              "internalType": "uint256",
              "name": "longShort",
              "type": "uint256"
            },
            {
              "internalType": "uint256",
              "name": "openTime",
              "type": "uint256"
            },
            {
              "internalType": "uint256",
              "name": "indexBorrowPercentArray",
              "type": "uint256"
            }
          ],
          "indexed": true,
          "internalType": "struct OrderBook.PositionDetails",
          "name": "positionDetails",
          "type": "tuple"
        }
      ],
      "name": "TradeOpened",
      "type": "event"
    },
    {
      "anonymous": false,
      "inputs": [
        {
          "indexed": true,
          "internalType": "address",
          "name": "user",
          "type": "address"
        },
        {
          "indexed": false,
          "internalType": "uint256",
          "name": "pairIndex",
          "type": "uint256"
        },
        {
          "indexed": false,
          "internalType": "int256",
          "name": "userPNL",
          "type": "int256"
        }
      ],
      "name": "UserLiquidated",
      "type": "event"
    },
    {
      "anonymous": false,
      "inputs": [
        {
          "indexed": true,
          "internalType": "int256",
          "name": "userPNl",
          "type": "int256"
        }
      ],
      "name": "UserPNL",
      "type": "event"
    },
    {
      "inputs": [
        {
          "internalType": "uint256",
          "name": "pairIndex",
          "type": "uint256"
        }
      ],
      "name": "getAssetPairDetails",
      "outputs": [
        {
          "components": [
            {
              "internalType": "bytes32",
              "name": "pythPriceFeedAddress",
              "type": "bytes32"
            },
            {
              "internalType": "int256",
              "name": "assetTotalShorts",
              "type": "int256"
            },
            {
              "internalType": "int256",
              "name": "assetTotalLongs",
              "type": "int256"
            },
            {
              "internalType": "int256",
              "name": "maxOpenInterest",
              "type": "int256"
            },
            {
              "internalType": "int256[]",
              "name": "borrowFee",
              "type": "int256[]"
            },
            {
              "internalType": "uint256[]",
              "name": "time",
              "type": "uint256[]"
            },
            {
              "internalType": "string",
              "name": "pairSymbol",
              "type": "string"
            }
          ],
          "internalType": "struct OrderBook.AssetPairDetails",
          "name": "",
          "type": "tuple"
        }
      ],
      "stateMutability": "view",
      "type": "function"
    },
    {
      "inputs": [],
      "name": "getAssetPairIndexSymbol",
      "outputs": [
        {
          "internalType": "string[]",
          "name": "",
          "type": "string[]"
        }
      ],
      "stateMutability": "view",
      "type": "function"
    },
    {
      "inputs": [
        {
          "internalType": "uint256",
          "name": "pairIndex",
          "type": "uint256"
        }
      ],
      "name": "getCurrentBorrowRate",
      "outputs": [
        {
          "internalType": "int256",
          "name": "",
          "type": "int256"
        }
      ],
      "stateMutability": "view",
      "type": "function"
    },
    {
      "inputs": [],
      "name": "getPythPriceFeedAddress",
      "outputs": [
        {
          "internalType": "address",
          "name": "",
          "type": "address"
        }
      ],
      "stateMutability": "view",
      "type": "function"
    },
    {
      "inputs": [],
      "name": "getTokenCollateralAddress",
      "outputs": [
        {
          "internalType": "address",
          "name": "",
          "type": "address"
        }
      ],
      "stateMutability": "view",
      "type": "function"
    },
    {
      "inputs": [
        {
          "internalType": "uint256",
          "name": "pairIndex",
          "type": "uint256"
        }
      ],
      "name": "getTotalLongAmount",
      "outputs": [
        {
          "internalType": "int256",
          "name": "",
          "type": "int256"
        }
      ],
      "stateMutability": "view",
      "type": "function"
    },
    {
      "inputs": [
        {
          "internalType": "uint256",
          "name": "pairIndex",
          "type": "uint256"
        }
      ],
      "name": "getTotalShortAmount",
      "outputs": [
        {
          "internalType": "int256",
          "name": "",
          "type": "int256"
        }
      ],
      "stateMutability": "view",
      "type": "function"
    },
    {
      "inputs": [
        {
          "internalType": "bytes[]",
          "name": "priceUpdateData",
          "type": "bytes[]"
        },
        {
          "internalType": "uint256",
          "name": "pairIndex",
          "type": "uint256"
        }
      ],
      "name": "getTradingPairCurrentPrice",
      "outputs": [
        {
          "components": [
            {
              "internalType": "int64",
              "name": "price",
              "type": "int64"
            },
            {
              "internalType": "uint64",
              "name": "conf",
              "type": "uint64"
            },
            {
              "internalType": "int32",
              "name": "expo",
              "type": "int32"
            },
            {
              "internalType": "uint256",
              "name": "publishTime",
              "type": "uint256"
            }
          ],
          "internalType": "struct PythStructs.Price",
          "name": "",
          "type": "tuple"
        }
      ],
      "stateMutability": "payable",
      "type": "function"
    },
    {
      "inputs": [
        {
          "internalType": "address",
          "name": "user",
          "type": "address"
        },
        {
          "internalType": "uint256",
          "name": "assetPairIndex",
          "type": "uint256"
        },
        {
          "internalType": "uint256",
          "name": "openTradesIdForPair",
          "type": "uint256"
        }
      ],
      "name": "getUserLiquidationPrice",
      "outputs": [
        {
          "internalType": "int256",
          "name": "liquidationPrice",
          "type": "int256"
        },
        {
          "internalType": "int256",
          "name": "borrowFeeAmount",
          "type": "int256"
        }
      ],
      "stateMutability": "nonpayable",
      "type": "function"
    },
    {
      "inputs": [
        {
          "internalType": "address",
          "name": "user",
          "type": "address"
        },
        {
          "internalType": "uint256",
          "name": "pairIndex",
          "type": "uint256"
        }
      ],
      "name": "getUserOpenTradesForAsset",
      "outputs": [
        {
          "internalType": "uint256",
          "name": "",
          "type": "uint256"
        }
      ],
      "stateMutability": "view",
      "type": "function"
    },
    {
      "inputs": [
        {
          "internalType": "address",
          "name": "user",
          "type": "address"
        },
        {
          "internalType": "uint256",
          "name": "pairIndex",
          "type": "uint256"
        },
        {
          "internalType": "uint256",
          "name": "openTradesIdForPair",
          "type": "uint256"
        }
      ],
      "name": "getUserTradingPositionDetails",
      "outputs": [
        {
          "components": [
            {
              "internalType": "uint256",
              "name": "pairNumber",
              "type": "uint256"
            },
            {
              "internalType": "int256",
              "name": "openPrice",
              "type": "int256"
            },
            {
              "internalType": "int256",
              "name": "collateralAfterFee",
              "type": "int256"
            },
            {
              "internalType": "int256",
              "name": "leverage",
              "type": "int256"
            },
            {
              "internalType": "uint256",
              "name": "longShort",
              "type": "uint256"
            },
            {
              "internalType": "uint256",
              "name": "openTime",
              "type": "uint256"
            },
            {
              "internalType": "uint256",
              "name": "indexBorrowPercentArray",
              "type": "uint256"
            }
          ],
          "internalType": "struct OrderBook.PositionDetails",
          "name": "",
          "type": "tuple"
        }
      ],
      "stateMutability": "view",
      "type": "function"
    },
    {
      "inputs": [
        {
          "internalType": "address",
          "name": "user",
          "type": "address"
        },
        {
          "internalType": "uint256",
          "name": "pairIndex",
          "type": "uint256"
        },
        {
          "internalType": "uint256",
          "name": "userTradesIdForPair",
          "type": "uint256"
        },
        {
          "internalType": "bytes[]",
          "name": "priceUpdateData",
          "type": "bytes[]"
        }
      ],
      "name": "liquidateUser",
      "outputs": [],
      "stateMutability": "payable",
      "type": "function"
    },
    {
      "inputs": [
        {
          "internalType": "uint256",
          "name": "pairIndex",
          "type": "uint256"
        },
        {
          "internalType": "int256",
          "name": "amountCollateral",
          "type": "int256"
        },
        {
          "internalType": "int256",
          "name": "leverage",
          "type": "int256"
        },
        {
          "internalType": "uint256",
          "name": "orderType",
          "type": "uint256"
        },
        {
          "internalType": "bytes[]",
          "name": "priceUpdateData",
          "type": "bytes[]"
        }
      ],
      "name": "marketOrder",
      "outputs": [],
      "stateMutability": "payable",
      "type": "function"
    },
    {
      "inputs": [
        {
          "internalType": "uint256",
          "name": "pairIndex",
          "type": "uint256"
        },
        {
          "internalType": "uint256",
          "name": "userTradesIdForPair",
          "type": "uint256"
        },
        {
          "internalType": "bytes[]",
          "name": "priceUpdateData",
          "type": "bytes[]"
        }
      ],
      "name": "orderClose",
      "outputs": [],
      "stateMutability": "payable",
      "type": "function"
    },
    {
      "inputs": [],
      "name": "owner",
      "outputs": [
        {
          "internalType": "address",
          "name": "",
          "type": "address"
        }
      ],
      "stateMutability": "view",
      "type": "function"
    },
    {
      "inputs": [],
      "name": "renounceOwnership",
      "outputs": [],
      "stateMutability": "nonpayable",
      "type": "function"
    },
    {
      "inputs": [
        {
          "internalType": "address",
          "name": "newOwner",
          "type": "address"
        }
      ],
      "name": "transferOwnership",
      "outputs": [],
      "stateMutability": "nonpayable",
      "type": "function"
    }
  ],
  "bytecode": {
    "object": "0x608060405261025860045560646005553480156200001c57600080fd5b5060405162002f1838038062002f188339810160408190526200003f9162000402565b60016000556200004f33620001a6565b8151845114620000725760405163f102e13760e01b815260040160405180910390fd5b8051825114620000955760405163f102e13760e01b815260040160405180910390fd5b600380546001600160a01b038088166001600160a01b0319928316179092558551600655600280549289169290911691909117905560005b84518110156200019957848181518110620000ec57620000ec620004e0565b60200260200101516007600083815260200190815260200160002060000181905550818181518110620001235762000123620004e0565b60200260200101516007600083815260200190815260200160002060060190816200014f919062000585565b50838181518110620001655762000165620004e0565b6020908102919091018101516000838152600790925260409091206003015580620001908162000651565b915050620000cd565b5050505050505062000679565b600180546001600160a01b038381166001600160a01b0319831681179093556040519116919082907f8be0079c531659141344cd1fd0a4f28419497f9722a3daafe3b4186f6b6457e090600090a35050565b80516001600160a01b03811681146200021057600080fd5b919050565b634e487b7160e01b600052604160045260246000fd5b604051601f8201601f191681016001600160401b038111828210171562000256576200025662000215565b604052919050565b60006001600160401b038211156200027a576200027a62000215565b5060051b60200190565b600082601f8301126200029657600080fd5b81516020620002af620002a9836200025e565b6200022b565b82815260059290921b84018101918181019086841115620002cf57600080fd5b8286015b84811015620002ec5780518352918301918301620002d3565b509695505050505050565b6000601f83818401126200030a57600080fd5b825160206200031d620002a9836200025e565b82815260059290921b850181019181810190878411156200033d57600080fd5b8287015b84811015620003f65780516001600160401b0380821115620003635760008081fd5b818a0191508a603f830112620003795760008081fd5b858201518181111562000390576200039062000215565b620003a3818a01601f191688016200022b565b915080825260408c81838601011115620003bd5760008081fd5b60005b82811015620003dd578481018201518482018a01528801620003c0565b5050600090820187015284525091830191830162000341565b50979650505050505050565b60008060008060008060c087890312156200041c57600080fd5b6200042787620001f8565b95506200043760208801620001f8565b60408801519095506001600160401b03808211156200045557600080fd5b620004638a838b0162000284565b955060608901519150808211156200047a57600080fd5b620004888a838b0162000284565b945060808901519150808211156200049f57600080fd5b620004ad8a838b0162000284565b935060a0890151915080821115620004c457600080fd5b50620004d389828a01620002f7565b9150509295509295509295565b634e487b7160e01b600052603260045260246000fd5b600181811c908216806200050b57607f821691505b6020821081036200052c57634e487b7160e01b600052602260045260246000fd5b50919050565b601f8211156200058057600081815260208120601f850160051c810160208610156200055b5750805b601f850160051c820191505b818110156200057c5782815560010162000567565b5050505b505050565b81516001600160401b03811115620005a157620005a162000215565b620005b981620005b28454620004f6565b8462000532565b602080601f831160018114620005f15760008415620005d85750858301515b600019600386901b1c1916600185901b1785556200057c565b600085815260208120601f198616915b82811015620006225788860151825594840194600190910190840162000601565b5085821015620006415787850151600019600388901b60f8161c191681555b5050505050600190811b01905550565b6000600182016200067257634e487b7160e01b600052601160045260246000fd5b5060010190565b61288f80620006896000396000f3fe6080604052600436106100fe5760003560e01c8063a829f21d11610095578063ca3e825711610064578063ca3e82571461033c578063d928e33614610371578063ee9387de14610384578063f2fde38b146103a6578063fa794403146103c657600080fd5b8063a829f21d14610258578063b0a8807514610288578063b8a077a5146102fe578063c01646cb1461031e57600080fd5b80634c70fb6d116100d15780634c70fb6d146101a85780634fae32e7146101bb578063715018a6146102115780638da5cb5b1461022657600080fd5b80630188d57914610103578063061ff1f0146101465780631b5042ac1461016657806337855bb714610193575b600080fd5b34801561010f57600080fd5b5061013361011e366004612065565b60009081526007602052604090206001015490565b6040519081526020015b60405180910390f35b34801561015257600080fd5b5061013361016136600461209a565b6103e4565b34801561017257600080fd5b50610186610181366004612065565b61040f565b60405161013d9190612145565b6101a66101a136600461224b565b6105d5565b005b6101a66101b63660046122b5565b61083b565b6101ce6101c936600461231d565b610a4e565b60405161013d9190815160070b815260208083015167ffffffffffffffff169082015260408083015160030b908201526060918201519181019190915260800190565b34801561021d57600080fd5b506101a6610bda565b34801561023257600080fd5b506001546001600160a01b03165b6040516001600160a01b03909116815260200161013d565b34801561026457600080fd5b50610133610273366004612065565b60009081526007602052604090206002015490565b34801561029457600080fd5b506102a86102a3366004612369565b610bee565b60405161013d9190600060e082019050825182526020830151602083015260408301516040830152606083015160608301526080830151608083015260a083015160a083015260c083015160c083015292915050565b34801561030a57600080fd5b50610133610319366004612065565b610cac565b34801561032a57600080fd5b506002546001600160a01b0316610240565b34801561034857600080fd5b5061035c610357366004612369565b610eab565b6040805192835260208301919091520161013d565b6101a661037f36600461239c565b611072565b34801561039057600080fd5b50610399611249565b60405161013d91906123ef565b3480156103b257600080fd5b506101a66103c1366004612451565b61137b565b3480156103d257600080fd5b506003546001600160a01b0316610240565b6001600160a01b03821660009081526009602090815260408083208484529091529020545b92915050565b6104526040518060e00160405280600080191681526020016000815260200160008152602001600081526020016060815260200160608152602001606081525090565b600082815260076020908152604091829020825160e081018452815481526001820154818401526002820154818501526003820154606082015260048201805485518186028101860190965280865291949293608086019392908301828280156104db57602002820191906000526020600020905b8154815260200190600101908083116104c7575b505050505081526020016005820180548060200260200160405190810160405280929190818152602001828054801561053357602002820191906000526020600020905b81548152602001906001019080831161051f575b5050505050815260200160068201805461054c90612473565b80601f016020809104026020016040519081016040528092919081815260200182805461057890612473565b80156105c55780601f1061059a576101008083540402835291602001916105c5565b820191906000526020600020905b8154815290600101906020018083116105a857829003601f168201915b5050505050815250509050919050565b6000868152600760205260408120543391879187918a9188910361060b57604051621bca5160e61b815260040160405180910390fd5b801580159061061b575080600114155b15610639576040516302763ae360e11b815260040160405180910390fd5b831580610644575082155b1561066257604051637018737760e11b815260040160405180910390fd5b685150ae84a8cdf00000620f424061067a85876124bd565b61068491906124ed565b12156106a357604051633af9eaa560e01b815260040160405180910390fd5b801580156106e95750600082815260076020526040902060028101546003909101546106cf9190612529565b620f42406106dd85876124bd565b6106e791906124ed565b135b156107075760405163e72486b360e01b815260040160405180910390fd5b80600114801561074f5750600082815260076020526040902060018101546003909101546107359190612529565b620f424061074385876124bd565b61074d91906124ed565b135b1561076d57604051630a7f135360e41b815260040160405180910390fd5b6001600160a01b03851660009081526009602090815260408083208584529091529020546003116107b1576040516306152e2f60e11b815260040160405180910390fd5b6308f0d1808313156107d657604051635694d08560e11b815260040160405180910390fd5b6107de6113f4565b6107e8338b61144d565b6107f7338c8c8c8c8c8c6114f0565b6040518b9033907f02c61321c808585dc6593befb37f9909ee37888b439a1990c568e475dddb765590600090a361082e6001600055565b5050505050505050505050565b6001600160a01b038516600090815260086020908152604080832087845282528083208684529091528120600101548691869186910361088e57604051638177d6b960e01b815260040160405180910390fd5b6108966113f4565b6001600160a01b03881660009081526008602090815260408083208a845282528083208984528252808320815160e081018352815481526001820154938101939093526002810154918301919091526003810154606083015260048101546080830152600581015460a08301526006015460c08201529061091a33838a8a8a611749565b905060008113610a17576001600160a01b038a1660008181526008602090815260408083208651845282528083208c8452825280832083815560018101849055600281018490556003810184905560048101849055600581018490556006018390559282526009815282822085518352905290812080549161099b83612550565b9091555050336000908152600a602052604081208054671bc16d674ec8000092906109c7908490612567565b9091555050815160408051918252602082018390526001600160a01b038c16917f7b53f2d174e631910484a595481b3fa1241c3898438889011e61f81437492760910160405180910390a2610a38565b6040516313d19c2b60e31b8152600481018290526024015b60405180910390fd5b5050610a446001600055565b5050505050505050565b60408051608081018252600080825260208201819052918101829052606081019190915260025460405163d47eed4560e01b81526000916001600160a01b03169063d47eed4590610aa590889088906004016125a3565b602060405180830381865afa158015610ac2573d6000803e3d6000fd5b505050506040513d601f19601f82011682018060405250810190610ae6919061263f565b600254604051631df3cbc560e31b81529192506001600160a01b03169063ef9e5e28908390610b1b90899089906004016125a3565b6000604051808303818588803b158015610b3457600080fd5b505af1158015610b48573d6000803e3d6000fd5b5050600254600087815260076020526040908190205490516331d98b3f60e01b81526001600160a01b0390921694506331d98b3f9350610b9092509060040190815260200190565b608060405180830381865afa158015610bad573d6000803e3d6000fd5b505050506040513d601f19601f82011682018060405250810190610bd19190612698565b95945050505050565b610be2611946565b610bec60006119a0565b565b610c2e6040518060e00160405280600081526020016000815260200160008152602001600081526020016000815260200160008152602001600081525090565b506001600160a01b03929092166000908152600860209081526040808320938352928152828220938252928352819020815160e081018352815481526001820154938101939093526002810154918301919091526003810154606083015260048101546080830152600581015460a08301526006015460c082015290565b6000610cf16040518060e00160405280600080191681526020016000815260200160008152602001600081526020016060815260200160608152602001606081525090565b600083815260076020908152604091829020825160e08101845281548152600182015481840152600282015481850152600382015460608201526004820180548551818602810186019096528086529194929360808601939290830182828015610d7a57602002820191906000526020600020905b815481526020019060010190808311610d66575b5050505050815260200160058201805480602002602001604051908101604052809291908181526020018280548015610dd257602002820191906000526020600020905b815481526020019060010190808311610dbe575b50505050508152602001600682018054610deb90612473565b80601f0160208091040260200160405190810160405280929190818152602001828054610e1790612473565b8015610e645780601f10610e3957610100808354040283529160200191610e64565b820191906000526020600020905b815481529060010190602001808311610e4757829003601f168201915b5050509190925250505060808101518051919250600090610e86600184612728565b81518110610e9657610e9661273b565b60200260200101519050809350505050919050565b6001600160a01b038316600090815260086020908152604080832085845282528083208484528252808320815160e0810183528154815260018201549381019390935260028101549183019190915260038101546060830152600481015460808301819052600582015460a084015260069091015460c08301528291908290610f389088908890886119f2565b9050610e10610f4d62989680620f42406124bd565b610f5791906124bd565b82606001518360400151610f6b91906124bd565b60a0840151610f7a9042612728565b610f8490846124bd565b610f8e91906124bd565b610f9891906124ed565b925081608001516000036110055782620f42408360600151610fba9190612529565b60608401516020850151610fd190620f42406124bd565b610fdb91906124ed565b610fe591906124bd565b610ff290629896806124bd565b610ffc9190612751565b9350505061106a565b81608001516001036110675782620f424083606001516110259190612751565b6060840151602085015161103c90620f42406124bd565b61104691906124ed565b61105091906124bd565b61105d90629896806124bd565b610ffc9190612529565b50505b935093915050565b33600081815260086020908152604080832088845282528083208784529091528120600101548691869190036110bb57604051638177d6b960e01b815260040160405180910390fd5b6110c36113f4565b3360008181526008602090815260408083208b845282528083208a84528252808320815160e081018352815481526001820154938101939093526002810154918301919091526003810154606083015260048101546080830152600581015460a08301526006015460c08201529161113e90838a8a8a611749565b3360008181526008602090815260408083208751845282528083208d845282528083208381556001810184905560028101849055600381018490556004810184905560058101849055600601839055928252600981528282208651835290529081208054929350906111af83612550565b91905055506111e682608001518a620f4240856060015186604001516111d591906124bd565b6111df91906124ed565b6000611c95565b6111ef89611d5d565b600081126112045780611202338261144d565b505b815160405182919033907f0aeb415d14b250a0912d0b18da299753b6ff90cbeb9fa65f2d75b0dd3fe712b290600090a450506112406001600055565b50505050505050565b6060600060065467ffffffffffffffff81111561126857611268612658565b60405190808252806020026020018201604052801561129b57816020015b60608152602001906001900390816112865790505b50905060005b60065481101561137557600081815260076020526040902060060180546112c790612473565b80601f01602080910402602001604051908101604052809291908181526020018280546112f390612473565b80156113405780601f1061131557610100808354040283529160200191611340565b820191906000526020600020905b81548152906001019060200180831161132357829003601f168201915b50505050508282815181106113575761135761273b565b6020026020010181905250808061136d90612779565b9150506112a1565b50919050565b611383611946565b6001600160a01b0381166113e85760405162461bcd60e51b815260206004820152602660248201527f4f776e61626c653a206e6577206f776e657220697320746865207a65726f206160448201526564647265737360d01b6064820152608401610a2f565b6113f1816119a0565b50565b6002600054036114465760405162461bcd60e51b815260206004820152601f60248201527f5265656e7472616e637947756172643a207265656e7472616e742063616c6c006044820152606401610a2f565b6002600055565b6003546040516323b872dd60e01b81526001600160a01b0384811660048301523060248301526044820184905260009216906323b872dd906064016020604051808303816000875af11580156114a7573d6000803e3d6000fd5b505050506040513d601f19601f820116820180604052508101906114cb9190612792565b9050806114eb57604051630c74658f60e01b815260040160405180910390fd5b505050565b60006114fc8686611f77565b6115069087612529565b6001600160a01b03891660009081526009602090815260408083208b8452909152812080549293509061153883612779565b9091555061156290508488620f424061155189866124bd565b61155b91906124ed565b6001611c95565b60008781526007602090815260408220600501805460018101825590835291204291015561158f87611d5d565b600061159c84848a610a4e565b905060006115ac86836000611fae565b60070b90506040518060e001604052808a8152602001828152602001848152602001888152602001878152602001836060015181526020016001600760008d81526020019081526020016000206005018054905061160a9190612728565b90526001600160a01b038b1660008181526008602090815260408083208e84528252808320938352600982528083208e845282528083208054845284835281842086518155868401516001820155868301516002820155606087015160038201556080870151600482015560a0870151600582015560c090960151600690960195909555935482529190915281902090516116e791908154815260018201546020820152600282015460408201526003820154606082015260048201546080820152600582015460a082015260069091015460c082015260e00190565b604080519182900382206001600160a01b038d166000818152600960209081528482208f83529052928320549193919290917f5de48d239d1661e98ea5d1818493476c5d9b21aa4b6a72219a98437c3b1786e19190a450505050505050505050565b60008061175b84848860000151610a4e565b905060006117738888600001518960800151896119f2565b905060006064610e1061178c620f4240629896806124bd565b61179691906124bd565b6117a091906124bd565b60648960a00151426117b29190612728565b60408b015160608c01516117c690876124bd565b6117d091906124bd565b6117da91906124bd565b6117e491906124bd565b6117ee91906124ed565b90506000806118038a60800151866001611fae565b60070b8a602001516118159190612529565b60405190915081907f7ffc13b25ce79fee35573354594e873bbe43761fc8ba593ed828116ab2a4523d90600090a289608001516000036118a857620f42408a602001518b60400151838d6060015161186d91906124bd565b61187791906124bd565b61188191906124ed565b61188b91906124ed565b838b6040015161189b9190612529565b6118a59190612529565b91505b896080015160010361190d57620f42408a602001518b60400151838d606001516118d291906124bd565b6118dc91906124bd565b6118e691906124ed565b6118f091906124ed565b838b604001516119009190612529565b61190a9190612751565b91505b60405182907f516ea507b82ab198d7e651c9242f8a7aa3f5eabc5f35c803a27394c57cd8b24390600090a2509998505050505050505050565b6001546001600160a01b03163314610bec5760405162461bcd60e51b815260206004820181905260248201527f4f776e61626c653a2063616c6c6572206973206e6f7420746865206f776e65726044820152606401610a2f565b600180546001600160a01b038381166001600160a01b0319831681179093556040519116919082907f8be0079c531659141344cd1fd0a4f28419497f9722a3daafe3b4186f6b6457e090600090a35050565b6000838152600760209081526040808320600501546001600160a01b038816845260088352818420878552835281842085855290925282206006015482815b600088815260076020526040902060050154611a4f90600190612728565b811015611b1d576000888152600760205260409020600501805482908110611a7957611a7961273b565b60009182526020808320909101548a835260079091526040909120600501611aa2836001612567565b81548110611ab257611ab261273b565b9060005260206000200154611ac79190612728565b6000898152600760205260409020600401805483908110611aea57611aea61273b565b9060005260206000200154611aff91906124bd565b611b099083612751565b915080611b1581612779565b915050611a31565b506000878152600760205260409020600501611b3a600185612728565b81548110611b4a57611b4a61273b565b906000526020600020015442611b609190612728565b6000888152600760205260409020600401611b7c600186612728565b81548110611b8c57611b8c61273b565b9060005260206000200154611ba191906124bd565b611bab9082612751565b60008881526007602052604081206005018054929350909184908110611bd357611bd361273b565b906000526020600020015442611be99190612728565b600089815260076020526040902060050154611c06908590612728565b611c1091906124bd565b611c1a90836124ed565b9050600087600003611c715781600454611c349190612751565b905087818a7fc950ed2398e7569bd5bd60fb3871321a976cdafbb6b5d7e31dcfd97a86c7a53660405160405180910390a49450611c8d9350505050565b87600103611c875781600454611c349190612529565b50505050505b949350505050565b83600003611cf6578015611ccf5760008381526007602052604081206002018054849290611cc4908490612751565b90915550611cf69050565b60008381526007602052604081206002018054849290611cf0908490612529565b90915550505b83600103611d57578015611d305760008381526007602052604081206001018054849290611d25908490612751565b90915550611d579050565b60008381526007602052604081206001018054849290611d51908490612529565b90915550505b50505050565b600081815260076020526040812060020154158015611d8b5750600082815260076020526040902060010154155b15611db2576000828152600760205260408120611dad91600490910190612033565b611f0f565b6000828152600760205260408120600201549003611e0c5760008281526007602052604090206003810154600190910154611df16127106000196124bd565b611dfb91906124bd565b611e0591906124ed565b9050611f0f565b6000828152600760205260408120600101549003611e495760008281526007602052604090206003810154600290910154611dfb906127106124bd565b60008281526007602052604090206001818101546002909201549091611e6e916124ed565b1315611e9a5760008281526007602052604090206001810154600290910154600554611dfb91906124bd565b60008281526007602052604090206001818101546002909201549091611ebf916124ed565b1215611eed5760008281526007602052604090206002810154600190910154600554611df1906000196124bd565b6000828152600760205260409020600181015460029091015403611f0f575060005b6000828152600760209081526040808320600401805460018101825581855292842090920184905591849052905183917f9b6e0867c2485b2217b074bced73d5217ac7fca2d555047bdf3c9b5016a43f3e91611f6b91906127b4565b60405180910390a25050565b600080620f4240611f8884866124bd565b611f9291906124ed565b905062989680611fa4611d4c836124bd565b611c8d91906124ed565b60008084158015611fbd575082155b15611fda5760208401518451611fd391906127fb565b9050611c8d565b84158015611fe85750826001145b15611ffe5760208401518451611fd3919061282a565b84600114801561200c575082155b156120225760208401518451611fd3919061282a565b60208401518451610bd191906127fb565b50805460008255906000526020600020908101906113f191905b80821115612061576000815560010161204d565b5090565b60006020828403121561207757600080fd5b5035919050565b80356001600160a01b038116811461209557600080fd5b919050565b600080604083850312156120ad57600080fd5b6120b68361207e565b946020939093013593505050565b600081518084526020808501945080840160005b838110156120f4578151875295820195908201906001016120d8565b509495945050505050565b6000815180845260005b8181101561212557602081850181015186830182015201612109565b506000602082860101526020601f19601f83011685010191505092915050565b6000602080835261010083018451828501528185015160408501526040850151606085015260608501516080850152608085015160e060a0860152818151808452610120870191508483019350600092505b808310156121b75783518252928401926001929092019190840190612197565b5060a08701519350601f199250828682030160c08701526121d881856120c4565b9350505060c0850151818584030160e08601526121f583826120ff565b9695505050505050565b60008083601f84011261221157600080fd5b50813567ffffffffffffffff81111561222957600080fd5b6020830191508360208260051b850101111561224457600080fd5b9250929050565b60008060008060008060a0878903121561226457600080fd5b86359550602087013594506040870135935060608701359250608087013567ffffffffffffffff81111561229757600080fd5b6122a389828a016121ff565b979a9699509497509295939492505050565b6000806000806000608086880312156122cd57600080fd5b6122d68661207e565b94506020860135935060408601359250606086013567ffffffffffffffff81111561230057600080fd5b61230c888289016121ff565b969995985093965092949392505050565b60008060006040848603121561233257600080fd5b833567ffffffffffffffff81111561234957600080fd5b612355868287016121ff565b909790965060209590950135949350505050565b60008060006060848603121561237e57600080fd5b6123878461207e565b95602085013595506040909401359392505050565b600080600080606085870312156123b257600080fd5b8435935060208501359250604085013567ffffffffffffffff8111156123d757600080fd5b6123e3878288016121ff565b95989497509550505050565b6000602080830181845280855180835260408601915060408160051b870101925083870160005b8281101561244457603f198886030184526124328583516120ff565b94509285019290850190600101612416565b5092979650505050505050565b60006020828403121561246357600080fd5b61246c8261207e565b9392505050565b600181811c9082168061248757607f821691505b60208210810361137557634e487b7160e01b600052602260045260246000fd5b634e487b7160e01b600052601160045260246000fd5b80820260008212600160ff1b841416156124d9576124d96124a7565b8181058314821517610409576104096124a7565b60008261250a57634e487b7160e01b600052601260045260246000fd5b600160ff1b821460001984141615612524576125246124a7565b500590565b8181036000831280158383131683831282161715612549576125496124a7565b5092915050565b60008161255f5761255f6124a7565b506000190190565b80820180821115610409576104096124a7565b81835281816020850137506000828201602090810191909152601f909101601f19169091010190565b60208082528181018390526000906040600585901b8401810190840186845b8781101561263257868403603f190183528135368a9003601e190181126125e857600080fd5b8901858101903567ffffffffffffffff81111561260457600080fd5b80360382131561261357600080fd5b61261e86828461257a565b9550505091840191908401906001016125c2565b5091979650505050505050565b60006020828403121561265157600080fd5b5051919050565b634e487b7160e01b600052604160045260246000fd5b805167ffffffffffffffff8116811461209557600080fd5b8051600381900b811461209557600080fd5b6000608082840312156126aa57600080fd5b6040516080810181811067ffffffffffffffff821117156126db57634e487b7160e01b600052604160045260246000fd5b6040528251600781900b81146126f057600080fd5b81526126fe6020840161266e565b602082015261270f60408401612686565b6040820152606083015160608201528091505092915050565b81810381811115610409576104096124a7565b634e487b7160e01b600052603260045260246000fd5b8082018281126000831280158216821582161715612771576127716124a7565b505092915050565b60006001820161278b5761278b6124a7565b5060010190565b6000602082840312156127a457600080fd5b8151801515811461246c57600080fd5b6020808252825482820181905260008481528281209092916040850190845b818110156127ef578354835260019384019392850192016127d3565b50909695505050505050565b600781810b9083900b01677fffffffffffffff8113677fffffffffffffff1982121715610409576104096124a7565b600782810b9082900b03677fffffffffffffff198112677fffffffffffffff82131715610409576104096124a756fea264697066735822122024ba57c434131a6964d7f6ebe920153cec9d95866af2718e49b69837f8791a3b64736f6c63430008130033",
    "linkReferences": {}
  },
  "methodIdentifiers": {
    "getAssetPairDetails(uint256)": "1b5042ac",
    "getAssetPairIndexSymbol()": "ee9387de",
    "getCurrentBorrowRate(uint256)": "b8a077a5",
    "getPythPriceFeedAddress()": "c01646cb",
    "getTokenCollateralAddress()": "fa794403",
    "getTotalLongAmount(uint256)": "a829f21d",
    "getTotalShortAmount(uint256)": "0188d579",
    "getTradingPairCurrentPrice(bytes[],uint256)": "4fae32e7",
    "getUserLiquidationPrice(address,uint256,uint256)": "ca3e8257",
    "getUserOpenTradesForAsset(address,uint256)": "061ff1f0",
    "getUserTradingPositionDetails(address,uint256,uint256)": "b0a88075",
    "liquidateUser(address,uint256,uint256,bytes[])": "4c70fb6d",
    "marketOrder(uint256,int256,int256,uint256,bytes[])": "37855bb7",
    "orderClose(uint256,uint256,bytes[])": "d928e336",
    "owner()": "8da5cb5b",
    "renounceOwnership()": "715018a6",
    "transferOwnership(address)": "f2fde38b"
  },
  "id": 34
}