{
  "abi": [
    {
      "inputs": [
        {
          "internalType": "address",
          "name": "pythPriceFeedAddress",
          "type": "address"
        },
        {
          "internalType": "address",
          "name": "tokenCollateralAddress",
          "type": "address"
        },
        {
          "internalType": "bytes32[]",
          "name": "pairPriceFeedAddressId",
          "type": "bytes32[]"
        },
        {
          "internalType": "int256[]",
          "name": "maxOpenInterest",
          "type": "int256[]"
        },
        {
          "internalType": "uint256[]",
          "name": "pairIndex",
          "type": "uint256[]"
        },
        {
          "internalType": "string[]",
          "name": "pairSymbol",
          "type": "string[]"
        }
      ],
      "stateMutability": "nonpayable",
      "type": "constructor"
    },
    {
      "inputs": [],
      "name": "OrderBook__InvalidOrderType",
      "type": "error"
    },
    {
      "inputs": [],
      "name": "OrderBook__InvalidTradingPair",
      "type": "error"
    },
    {
      "inputs": [],
      "name": "OrderBook__LimitOrderDoesNotExistInBook",
      "type": "error"
    },
    {
      "inputs": [],
      "name": "OrderBook__LimitOrderExecutionFailedTooMuchSlippage",
      "type": "error"
    },
    {
      "inputs": [],
      "name": "OrderBook__LimitOrderTargetPriceCannotMustBePositive",
      "type": "error"
    },
    {
      "inputs": [],
      "name": "OrderBook__MaxLeverageIs150",
      "type": "error"
    },
    {
      "inputs": [],
      "name": "OrderBook__MaxNumberOfOpenTrades3Reached",
      "type": "error"
    },
    {
      "inputs": [],
      "name": "OrderBook__MaxNumberOfTradesReachedForAssetPairLimitOrder",
      "type": "error"
    },
    {
      "inputs": [],
      "name": "OrderBook__MaxOpenInterestReachedLongs",
      "type": "error"
    },
    {
      "inputs": [],
      "name": "OrderBook__MaxOpenInterestShortsReached",
      "type": "error"
    },
    {
      "inputs": [],
      "name": "OrderBook__NeedsMoreThanZero",
      "type": "error"
    },
    {
      "inputs": [],
      "name": "OrderBook__NoBotRewards",
      "type": "error"
    },
    {
      "inputs": [],
      "name": "OrderBook__ParameterArraysMustBeTheSameLength",
      "type": "error"
    },
    {
      "inputs": [],
      "name": "OrderBook__TokenApprovalFailed",
      "type": "error"
    },
    {
      "inputs": [],
      "name": "OrderBook__TradeSizeTooSmall",
      "type": "error"
    },
    {
      "inputs": [],
      "name": "OrderBook__TransferFailed",
      "type": "error"
    },
    {
      "inputs": [],
      "name": "OrderBook__UserClosingNonExistingPosition",
      "type": "error"
    },
    {
      "inputs": [
        {
          "internalType": "int256",
          "name": "userPNL",
          "type": "int256"
        }
      ],
      "name": "OrderBook__UserPositionNotOpenForLiquidation",
      "type": "error"
    },
    {
      "anonymous": false,
      "inputs": [
        {
          "indexed": false,
          "internalType": "bytes[]",
          "name": "priceUpdateData",
          "type": "bytes[]"
        }
      ],
      "name": "AdjustedPrice",
      "type": "event"
    },
    {
      "anonymous": false,
      "inputs": [
        {
          "indexed": true,
          "internalType": "uint256",
          "name": "pairIndex",
          "type": "uint256"
        },
        {
          "indexed": true,
          "internalType": "int256",
          "name": "borrowFee",
          "type": "int256"
        },
        {
          "indexed": true,
          "internalType": "uint256",
          "name": "orderType",
          "type": "uint256"
        }
      ],
      "name": "AvgBorrowFeeCalculation",
      "type": "event"
    },
    {
      "anonymous": false,
      "inputs": [
        {
          "indexed": true,
          "internalType": "address",
          "name": "user",
          "type": "address"
        },
        {
          "indexed": true,
          "internalType": "int256",
          "name": "newBaseBorrowFeePercentage",
          "type": "int256"
        }
      ],
      "name": "BaseBorrowFeeChanged",
      "type": "event"
    },
    {
      "anonymous": false,
      "inputs": [
        {
          "indexed": true,
          "internalType": "address",
          "name": "user",
          "type": "address"
        },
        {
          "indexed": true,
          "internalType": "int256",
          "name": "newVariableBorrowFeePercentage",
          "type": "int256"
        }
      ],
      "name": "BaseVariableBorrowFeeChanged",
      "type": "event"
    },
    {
      "anonymous": false,
      "inputs": [
        {
          "indexed": true,
          "internalType": "uint256",
          "name": "pairIndex",
          "type": "uint256"
        },
        {
          "indexed": false,
          "internalType": "int256[]",
          "name": "borrowFees",
          "type": "int256[]"
        }
      ],
      "name": "BorrowFeeUpdated",
      "type": "event"
    },
    {
      "anonymous": false,
      "inputs": [
        {
          "indexed": true,
          "internalType": "address",
          "name": "user",
          "type": "address"
        },
        {
          "indexed": true,
          "internalType": "int256",
          "name": "newBotRewardsBase",
          "type": "int256"
        }
      ],
      "name": "BotRewardsBaseChanged",
      "type": "event"
    },
    {
      "anonymous": false,
      "inputs": [
        {
          "indexed": true,
          "internalType": "address",
          "name": "botAddress",
          "type": "address"
        },
        {
          "indexed": true,
          "internalType": "uint256",
          "name": "amount",
          "type": "uint256"
        }
      ],
      "name": "BotRewardsClaimed",
      "type": "event"
    },
    {
      "anonymous": false,
      "inputs": [
        {
          "indexed": true,
          "internalType": "address",
          "name": "user",
          "type": "address"
        },
        {
          "indexed": true,
          "internalType": "int256",
          "name": "newBotRewardsRate",
          "type": "int256"
        }
      ],
      "name": "BotRewardsRateChanged",
      "type": "event"
    },
    {
      "anonymous": false,
      "inputs": [
        {
          "indexed": true,
          "internalType": "address",
          "name": "user",
          "type": "address"
        },
        {
          "indexed": true,
          "internalType": "address",
          "name": "newTokenAddress",
          "type": "address"
        }
      ],
      "name": "CollateralTokenChanged",
      "type": "event"
    },
    {
      "anonymous": false,
      "inputs": [
        {
          "indexed": true,
          "internalType": "address",
          "name": "userAddress",
          "type": "address"
        },
        {
          "indexed": true,
          "internalType": "uint256",
          "name": "pairIndex",
          "type": "uint256"
        }
      ],
      "name": "LimitOrderCanceled",
      "type": "event"
    },
    {
      "anonymous": false,
      "inputs": [
        {
          "indexed": true,
          "internalType": "address",
          "name": "executor",
          "type": "address"
        },
        {
          "indexed": true,
          "internalType": "address",
          "name": "trader",
          "type": "address"
        },
        {
          "indexed": true,
          "internalType": "uint256",
          "name": "pairIndex",
          "type": "uint256"
        }
      ],
      "name": "LimitOrderExecuted",
      "type": "event"
    },
    {
      "anonymous": false,
      "inputs": [
        {
          "indexed": true,
          "internalType": "uint256",
          "name": "newLimitOrderMaxSlippage",
          "type": "uint256"
        }
      ],
      "name": "LimitOrderMaxSLippageChanged",
      "type": "event"
    },
    {
      "anonymous": false,
      "inputs": [
        {
          "indexed": true,
          "internalType": "address",
          "name": "userAddress",
          "type": "address"
        },
        {
          "indexed": true,
          "internalType": "uint256",
          "name": "pairIndex",
          "type": "uint256"
        },
        {
          "indexed": true,
          "internalType": "uint256",
          "name": "tradeSlot",
          "type": "uint256"
        }
      ],
      "name": "LimitOrderPlaced",
      "type": "event"
    },
    {
      "anonymous": false,
      "inputs": [
        {
          "indexed": true,
          "internalType": "address",
          "name": "user",
          "type": "address"
        },
        {
          "indexed": true,
          "internalType": "uint256",
          "name": "pairIndex",
          "type": "uint256"
        }
      ],
      "name": "MarketTrade",
      "type": "event"
    },
    {
      "anonymous": false,
      "inputs": [
        {
          "indexed": true,
          "internalType": "address",
          "name": "user",
          "type": "address"
        },
        {
          "indexed": true,
          "internalType": "int256",
          "name": "newMaxBorrowInterestRate",
          "type": "int256"
        }
      ],
      "name": "MaxBorrowRateChanged",
      "type": "event"
    },
    {
      "anonymous": false,
      "inputs": [
        {
          "indexed": true,
          "internalType": "uint256",
          "name": "pairIndex",
          "type": "uint256"
        },
        {
          "indexed": true,
          "internalType": "int256",
          "name": "maxOpenInterest",
          "type": "int256"
        }
      ],
      "name": "MaxOpenInterestChanged",
      "type": "event"
    },
    {
      "anonymous": false,
      "inputs": [
        {
          "indexed": true,
          "internalType": "address",
          "name": "user",
          "type": "address"
        },
        {
          "indexed": true,
          "internalType": "int256",
          "name": "newMinTradeSize",
          "type": "int256"
        }
      ],
      "name": "MinTradeSizeChanged",
      "type": "event"
    },
    {
      "anonymous": false,
      "inputs": [
        {
          "indexed": false,
          "internalType": "int256",
          "name": "interestLongs",
          "type": "int256"
        },
        {
          "indexed": false,
          "internalType": "int256",
          "name": "interestShorts",
          "type": "int256"
        }
      ],
      "name": "OpenInterestUpdated",
      "type": "event"
    },
    {
      "anonymous": false,
      "inputs": [
        {
          "indexed": false,
          "internalType": "address",
          "name": "user",
          "type": "address"
        },
        {
          "indexed": false,
          "internalType": "int256",
          "name": "newOpeningFee",
          "type": "int256"
        }
      ],
      "name": "OpeningFeeChanged",
      "type": "event"
    },
    {
      "anonymous": false,
      "inputs": [
        {
          "indexed": true,
          "internalType": "address",
          "name": "newOwner",
          "type": "address"
        }
      ],
      "name": "OrderBookOwnerUpdated",
      "type": "event"
    },
    {
      "anonymous": false,
      "inputs": [
        {
          "indexed": true,
          "internalType": "address",
          "name": "user",
          "type": "address"
        },
        {
          "indexed": true,
          "internalType": "uint256",
          "name": "pairIndex",
          "type": "uint256"
        },
        {
          "indexed": false,
          "internalType": "uint256",
          "name": "userTradeIndex",
          "type": "uint256"
        }
      ],
      "name": "OrderClosed",
      "type": "event"
    },
    {
      "anonymous": false,
      "inputs": [
        {
          "indexed": true,
          "internalType": "address",
          "name": "userAddress",
          "type": "address"
        },
        {
          "indexed": true,
          "internalType": "uint256",
          "name": "pairIndex",
          "type": "uint256"
        },
        {
          "indexed": true,
          "internalType": "int256",
          "name": "userPNL",
          "type": "int256"
        }
      ],
      "name": "OrderClosedTradeDetails",
      "type": "event"
    },
    {
      "anonymous": false,
      "inputs": [
        {
          "indexed": true,
          "internalType": "address",
          "name": "previousOwner",
          "type": "address"
        },
        {
          "indexed": true,
          "internalType": "address",
          "name": "newOwner",
          "type": "address"
        }
      ],
      "name": "OwnershipTransferred",
      "type": "event"
    },
    {
      "anonymous": false,
      "inputs": [
        {
          "indexed": true,
          "internalType": "int256",
          "name": "priceChange",
          "type": "int256"
        }
      ],
      "name": "PriceChange",
      "type": "event"
    },
    {
      "anonymous": false,
      "inputs": [
        {
          "indexed": false,
          "internalType": "uint256",
          "name": "startIndex",
          "type": "uint256"
        }
      ],
      "name": "StartIndex",
      "type": "event"
    },
    {
      "anonymous": false,
      "inputs": [
        {
          "indexed": false,
          "internalType": "int256",
          "name": "sum",
          "type": "int256"
        }
      ],
      "name": "Sum",
      "type": "event"
    },
    {
      "anonymous": false,
      "inputs": [
        {
          "indexed": false,
          "internalType": "uint256",
          "name": "timeArrayLength",
          "type": "uint256"
        }
      ],
      "name": "TimeArrayLength",
      "type": "event"
    },
    {
      "anonymous": false,
      "inputs": [
        {
          "indexed": true,
          "internalType": "address",
          "name": "user",
          "type": "address"
        },
        {
          "indexed": true,
          "internalType": "uint256",
          "name": "pairIndex",
          "type": "uint256"
        },
        {
          "indexed": true,
          "internalType": "uint256",
          "name": "userPairTradeIndex",
          "type": "uint256"
        }
      ],
      "name": "TradeOpened",
      "type": "event"
    },
    {
      "anonymous": false,
      "inputs": [
        {
          "indexed": true,
          "internalType": "address",
          "name": "user",
          "type": "address"
        },
        {
          "indexed": false,
          "internalType": "uint256",
          "name": "pairIndex",
          "type": "uint256"
        },
        {
          "indexed": false,
          "internalType": "uint256",
          "name": "userTradeIndex",
          "type": "uint256"
        }
      ],
      "name": "UserLiquidated",
      "type": "event"
    },
    {
      "anonymous": false,
      "inputs": [
        {
          "indexed": true,
          "internalType": "address",
          "name": "userAddress",
          "type": "address"
        },
        {
          "indexed": true,
          "internalType": "uint256",
          "name": "pairIndex",
          "type": "uint256"
        },
        {
          "indexed": true,
          "internalType": "int256",
          "name": "userPNL",
          "type": "int256"
        }
      ],
      "name": "UserLiquidationDetails",
      "type": "event"
    },
    {
      "anonymous": false,
      "inputs": [
        {
          "indexed": true,
          "internalType": "int256",
          "name": "userPNl",
          "type": "int256"
        }
      ],
      "name": "UserPNL",
      "type": "event"
    },
    {
      "inputs": [
        {
          "internalType": "uint256",
          "name": "pairIndex",
          "type": "uint256"
        },
        {
          "internalType": "uint256",
          "name": "limitOrderSlot",
          "type": "uint256"
        }
      ],
      "name": "cancelLimitOrder",
      "outputs": [],
      "stateMutability": "nonpayable",
      "type": "function"
    },
    {
      "inputs": [
        {
          "internalType": "address",
          "name": "userAddress",
          "type": "address"
        },
        {
          "internalType": "uint256",
          "name": "pairIndex",
          "type": "uint256"
        },
        {
          "internalType": "uint256",
          "name": "limitOrderSlot",
          "type": "uint256"
        },
        {
          "internalType": "bytes[]",
          "name": "priceUpdateData",
          "type": "bytes[]"
        }
      ],
      "name": "executeLimitOrder",
      "outputs": [],
      "stateMutability": "payable",
      "type": "function"
    },
    {
      "inputs": [
        {
          "internalType": "address",
          "name": "user",
          "type": "address"
        }
      ],
      "name": "getAllUserLimitOrders",
      "outputs": [
        {
          "components": [
            {
              "internalType": "address",
              "name": "userAddress",
              "type": "address"
            },
            {
              "internalType": "uint256",
              "name": "pairIndex",
              "type": "uint256"
            },
            {
              "internalType": "int256",
              "name": "collateral",
              "type": "int256"
            },
            {
              "internalType": "int256",
              "name": "leverage",
              "type": "int256"
            },
            {
              "internalType": "uint256",
              "name": "orderType",
              "type": "uint256"
            },
            {
              "internalType": "int256",
              "name": "targetPrice",
              "type": "int256"
            }
          ],
          "internalType": "struct OrderBook.LimitOrderDetails[15]",
          "name": "",
          "type": "tuple[15]"
        }
      ],
      "stateMutability": "view",
      "type": "function"
    },
    {
      "inputs": [
        {
          "internalType": "address",
          "name": "user",
          "type": "address"
        }
      ],
      "name": "getAllUserOpenTrades",
      "outputs": [
        {
          "components": [
            {
              "internalType": "uint256",
              "name": "pairNumber",
              "type": "uint256"
            },
            {
              "internalType": "int256",
              "name": "openPrice",
              "type": "int256"
            },
            {
              "internalType": "int256",
              "name": "collateralAfterFee",
              "type": "int256"
            },
            {
              "internalType": "int256",
              "name": "leverage",
              "type": "int256"
            },
            {
              "internalType": "uint256",
              "name": "longShort",
              "type": "uint256"
            },
            {
              "internalType": "uint256",
              "name": "openTime",
              "type": "uint256"
            },
            {
              "internalType": "uint256",
              "name": "indexBorrowPercentArray",
              "type": "uint256"
            }
          ],
          "internalType": "struct OrderBook.PositionDetails[15]",
          "name": "",
          "type": "tuple[15]"
        }
      ],
      "stateMutability": "view",
      "type": "function"
    },
    {
      "inputs": [
        {
          "internalType": "uint256",
          "name": "pairIndex",
          "type": "uint256"
        }
      ],
      "name": "getAssetPairDetails",
      "outputs": [
        {
          "components": [
            {
              "internalType": "bytes32",
              "name": "pythPriceFeedAddress",
              "type": "bytes32"
            },
            {
              "internalType": "int256",
              "name": "assetTotalShorts",
              "type": "int256"
            },
            {
              "internalType": "int256",
              "name": "assetTotalLongs",
              "type": "int256"
            },
            {
              "internalType": "int256",
              "name": "maxOpenInterest",
              "type": "int256"
            },
            {
              "internalType": "int256[]",
              "name": "borrowFee",
              "type": "int256[]"
            },
            {
              "internalType": "uint256[]",
              "name": "time",
              "type": "uint256[]"
            },
            {
              "internalType": "string",
              "name": "pairSymbol",
              "type": "string"
            }
          ],
          "internalType": "struct OrderBook.AssetPairDetails",
          "name": "",
          "type": "tuple"
        }
      ],
      "stateMutability": "view",
      "type": "function"
    },
    {
      "inputs": [],
      "name": "getAssetPairIndexSymbol",
      "outputs": [
        {
          "internalType": "string[]",
          "name": "",
          "type": "string[]"
        }
      ],
      "stateMutability": "view",
      "type": "function"
    },
    {
      "inputs": [],
      "name": "getBaseBorrowFee",
      "outputs": [
        {
          "internalType": "int256",
          "name": "baseBorrowFee",
          "type": "int256"
        }
      ],
      "stateMutability": "view",
      "type": "function"
    },
    {
      "inputs": [],
      "name": "getBotRewardBase",
      "outputs": [
        {
          "internalType": "int256",
          "name": "botRewardsBase",
          "type": "int256"
        }
      ],
      "stateMutability": "view",
      "type": "function"
    },
    {
      "inputs": [],
      "name": "getBotRewardRate",
      "outputs": [
        {
          "internalType": "int256",
          "name": "botRewardsRate",
          "type": "int256"
        }
      ],
      "stateMutability": "view",
      "type": "function"
    },
    {
      "inputs": [
        {
          "internalType": "uint256",
          "name": "pairIndex",
          "type": "uint256"
        }
      ],
      "name": "getCurrentBorrowRate",
      "outputs": [
        {
          "internalType": "int256",
          "name": "",
          "type": "int256"
        }
      ],
      "stateMutability": "view",
      "type": "function"
    },
    {
      "inputs": [],
      "name": "getPythPriceFeedAddress",
      "outputs": [
        {
          "internalType": "address",
          "name": "",
          "type": "address"
        }
      ],
      "stateMutability": "view",
      "type": "function"
    },
    {
      "inputs": [],
      "name": "getTokenCollateralAddress",
      "outputs": [
        {
          "internalType": "address",
          "name": "",
          "type": "address"
        }
      ],
      "stateMutability": "view",
      "type": "function"
    },
    {
      "inputs": [
        {
          "internalType": "uint256",
          "name": "pairIndex",
          "type": "uint256"
        }
      ],
      "name": "getTotalLongAmount",
      "outputs": [
        {
          "internalType": "int256",
          "name": "",
          "type": "int256"
        }
      ],
      "stateMutability": "view",
      "type": "function"
    },
    {
      "inputs": [
        {
          "internalType": "uint256",
          "name": "pairIndex",
          "type": "uint256"
        }
      ],
      "name": "getTotalShortAmount",
      "outputs": [
        {
          "internalType": "int256",
          "name": "",
          "type": "int256"
        }
      ],
      "stateMutability": "view",
      "type": "function"
    },
    {
      "inputs": [
        {
          "internalType": "address",
          "name": "user",
          "type": "address"
        },
        {
          "internalType": "uint256",
          "name": "assetPairIndex",
          "type": "uint256"
        },
        {
          "internalType": "uint256",
          "name": "openTradesIdForPair",
          "type": "uint256"
        }
      ],
      "name": "getTradePositionBorrowFees",
      "outputs": [
        {
          "internalType": "int256",
          "name": "borrowFeeAmount",
          "type": "int256"
        }
      ],
      "stateMutability": "view",
      "type": "function"
    },
    {
      "inputs": [
        {
          "internalType": "bytes[]",
          "name": "priceUpdateData",
          "type": "bytes[]"
        },
        {
          "internalType": "uint256",
          "name": "pairIndex",
          "type": "uint256"
        }
      ],
      "name": "getTradingPairCurrentPrice",
      "outputs": [
        {
          "components": [
            {
              "internalType": "int64",
              "name": "price",
              "type": "int64"
            },
            {
              "internalType": "uint64",
              "name": "conf",
              "type": "uint64"
            },
            {
              "internalType": "int32",
              "name": "expo",
              "type": "int32"
            },
            {
              "internalType": "uint256",
              "name": "publishTime",
              "type": "uint256"
            }
          ],
          "internalType": "struct PythStructs.Price",
          "name": "",
          "type": "tuple"
        }
      ],
      "stateMutability": "payable",
      "type": "function"
    },
    {
      "inputs": [
        {
          "internalType": "address",
          "name": "user",
          "type": "address"
        },
        {
          "internalType": "uint256",
          "name": "assetPairIndex",
          "type": "uint256"
        },
        {
          "internalType": "uint256",
          "name": "openTradesIdForPair",
          "type": "uint256"
        }
      ],
      "name": "getUserLiquidationPrice",
      "outputs": [
        {
          "internalType": "int256",
          "name": "liquidationPrice",
          "type": "int256"
        },
        {
          "internalType": "int256",
          "name": "borrowFeeAmount",
          "type": "int256"
        }
      ],
      "stateMutability": "view",
      "type": "function"
    },
    {
      "inputs": [
        {
          "internalType": "address",
          "name": "user",
          "type": "address"
        },
        {
          "internalType": "uint256",
          "name": "pairIndex",
          "type": "uint256"
        }
      ],
      "name": "getUserOpenTradesForAsset",
      "outputs": [
        {
          "internalType": "uint256[3]",
          "name": "",
          "type": "uint256[3]"
        }
      ],
      "stateMutability": "view",
      "type": "function"
    },
    {
      "inputs": [
        {
          "internalType": "address",
          "name": "user",
          "type": "address"
        },
        {
          "internalType": "uint256",
          "name": "pairIndex",
          "type": "uint256"
        },
        {
          "internalType": "uint256",
          "name": "openTradesIdForPair",
          "type": "uint256"
        }
      ],
      "name": "getUserTradingPositionDetails",
      "outputs": [
        {
          "components": [
            {
              "internalType": "uint256",
              "name": "pairNumber",
              "type": "uint256"
            },
            {
              "internalType": "int256",
              "name": "openPrice",
              "type": "int256"
            },
            {
              "internalType": "int256",
              "name": "collateralAfterFee",
              "type": "int256"
            },
            {
              "internalType": "int256",
              "name": "leverage",
              "type": "int256"
            },
            {
              "internalType": "uint256",
              "name": "longShort",
              "type": "uint256"
            },
            {
              "internalType": "uint256",
              "name": "openTime",
              "type": "uint256"
            },
            {
              "internalType": "uint256",
              "name": "indexBorrowPercentArray",
              "type": "uint256"
            }
          ],
          "internalType": "struct OrderBook.PositionDetails",
          "name": "",
          "type": "tuple"
        }
      ],
      "stateMutability": "view",
      "type": "function"
    },
    {
      "inputs": [
        {
          "internalType": "uint256",
          "name": "pairIndex",
          "type": "uint256"
        },
        {
          "internalType": "int256",
          "name": "amountCollateral",
          "type": "int256"
        },
        {
          "internalType": "int256",
          "name": "leverage",
          "type": "int256"
        },
        {
          "internalType": "uint256",
          "name": "orderType",
          "type": "uint256"
        },
        {
          "internalType": "int256",
          "name": "targetPrice",
          "type": "int256"
        }
      ],
      "name": "limitOrder",
      "outputs": [],
      "stateMutability": "payable",
      "type": "function"
    },
    {
      "inputs": [
        {
          "internalType": "address",
          "name": "user",
          "type": "address"
        },
        {
          "internalType": "uint256",
          "name": "pairIndex",
          "type": "uint256"
        },
        {
          "internalType": "uint256",
          "name": "userTradesIdForPair",
          "type": "uint256"
        },
        {
          "internalType": "bytes[]",
          "name": "priceUpdateData",
          "type": "bytes[]"
        }
      ],
      "name": "liquidateUser",
      "outputs": [],
      "stateMutability": "payable",
      "type": "function"
    },
    {
      "inputs": [
        {
          "internalType": "uint256",
          "name": "pairIndex",
          "type": "uint256"
        },
        {
          "internalType": "int256",
          "name": "amountCollateral",
          "type": "int256"
        },
        {
          "internalType": "int256",
          "name": "leverage",
          "type": "int256"
        },
        {
          "internalType": "uint256",
          "name": "orderType",
          "type": "uint256"
        },
        {
          "internalType": "bytes[]",
          "name": "priceUpdateData",
          "type": "bytes[]"
        }
      ],
      "name": "marketOrder",
      "outputs": [],
      "stateMutability": "payable",
      "type": "function"
    },
    {
      "inputs": [
        {
          "internalType": "uint256",
          "name": "pairIndex",
          "type": "uint256"
        },
        {
          "internalType": "uint256",
          "name": "userTradesIdForPair",
          "type": "uint256"
        },
        {
          "internalType": "bytes[]",
          "name": "priceUpdateData",
          "type": "bytes[]"
        }
      ],
      "name": "orderClose",
      "outputs": [],
      "stateMutability": "payable",
      "type": "function"
    },
    {
      "inputs": [],
      "name": "owner",
      "outputs": [
        {
          "internalType": "address",
          "name": "",
          "type": "address"
        }
      ],
      "stateMutability": "view",
      "type": "function"
    },
    {
      "inputs": [],
      "name": "renounceOwnership",
      "outputs": [],
      "stateMutability": "nonpayable",
      "type": "function"
    },
    {
      "inputs": [
        {
          "internalType": "int256",
          "name": "newBaseBorrowFeePercentage",
          "type": "int256"
        }
      ],
      "name": "setBaseBorrowFeePercentage",
      "outputs": [],
      "stateMutability": "nonpayable",
      "type": "function"
    },
    {
      "inputs": [
        {
          "internalType": "int256",
          "name": "newBotRewardsRate",
          "type": "int256"
        }
      ],
      "name": "setBotRewardsRate",
      "outputs": [],
      "stateMutability": "nonpayable",
      "type": "function"
    },
    {
      "inputs": [
        {
          "internalType": "int256",
          "name": "newBotRewardsBase",
          "type": "int256"
        }
      ],
      "name": "setBotsRewardsBase",
      "outputs": [],
      "stateMutability": "nonpayable",
      "type": "function"
    },
    {
      "inputs": [
        {
          "internalType": "address",
          "name": "newCollateralTokenAddress",
          "type": "address"
        }
      ],
      "name": "setCollateralTokenAddress",
      "outputs": [],
      "stateMutability": "nonpayable",
      "type": "function"
    },
    {
      "inputs": [
        {
          "internalType": "uint256",
          "name": "newSlippageLimit",
          "type": "uint256"
        }
      ],
      "name": "setLimitOrderMaxSlippage",
      "outputs": [],
      "stateMutability": "nonpayable",
      "type": "function"
    },
    {
      "inputs": [
        {
          "internalType": "int256",
          "name": "newMaxBorrowInterestRate",
          "type": "int256"
        }
      ],
      "name": "setMaxBorrowInterestRate",
      "outputs": [],
      "stateMutability": "nonpayable",
      "type": "function"
    },
    {
      "inputs": [
        {
          "internalType": "uint256",
          "name": "pairIndex",
          "type": "uint256"
        },
        {
          "internalType": "int256",
          "name": "newMaxOpenInterest",
          "type": "int256"
        }
      ],
      "name": "setMaxOpenInterestForPair",
      "outputs": [],
      "stateMutability": "nonpayable",
      "type": "function"
    },
    {
      "inputs": [
        {
          "internalType": "int256",
          "name": "newMinTradeSize",
          "type": "int256"
        }
      ],
      "name": "setMinTradeSize",
      "outputs": [],
      "stateMutability": "nonpayable",
      "type": "function"
    },
    {
      "inputs": [
        {
          "internalType": "int256",
          "name": "newOpeningFeePercent",
          "type": "int256"
        }
      ],
      "name": "setOpeningFee",
      "outputs": [],
      "stateMutability": "nonpayable",
      "type": "function"
    },
    {
      "inputs": [
        {
          "internalType": "int256",
          "name": "newVariableBorrowFeePercentage",
          "type": "int256"
        }
      ],
      "name": "setVariableBorrowFeePercentage",
      "outputs": [],
      "stateMutability": "nonpayable",
      "type": "function"
    },
    {
      "inputs": [
        {
          "internalType": "address",
          "name": "newOwner",
          "type": "address"
        }
      ],
      "name": "transferOwnership",
      "outputs": [],
      "stateMutability": "nonpayable",
      "type": "function"
    },
    {
      "inputs": [],
      "name": "withdrawBotRewards",
      "outputs": [],
      "stateMutability": "nonpayable",
      "type": "function"
    },
    {
      "inputs": [
        {
          "internalType": "address",
          "name": "tokenAddress",
          "type": "address"
        },
        {
          "internalType": "uint256",
          "name": "amount",
          "type": "uint256"
        }
      ],
      "name": "withdrawErc20Token",
      "outputs": [],
      "stateMutability": "nonpayable",
      "type": "function"
    },
    {
      "inputs": [
        {
          "internalType": "address payable",
          "name": "_to",
          "type": "address"
        }
      ],
      "name": "withdrawEth",
      "outputs": [],
      "stateMutability": "payable",
      "type": "function"
    }
  ],
  "bytecode": {
    "object": "0x6080604052611d4c6004556102586005556064600655612710600755685150ae84a8cdf000006008556005600955671bc16d674ec80000600a556000600b553480156200004b57600080fd5b50604051620049ad380380620049ad8339810160408190526200006e9162000431565b60016000556200007e33620001d5565b8151845114620000a15760405163f102e13760e01b815260040160405180910390fd5b8051825114620000c45760405163f102e13760e01b815260040160405180910390fd5b600380546001600160a01b038088166001600160a01b0319928316179092558551600c55600280549289169290911691909117905560005b8451811015620001c8578481815181106200011b576200011b6200050f565b6020026020010151600d6000838152602001908152602001600020600001819055508181815181106200015257620001526200050f565b6020026020010151600d600083815260200190815260200160002060060190816200017e9190620005b4565b508381815181106200019457620001946200050f565b6020908102919091018101516000838152600d90925260409091206003015580620001bf8162000680565b915050620000fc565b50505050505050620006a8565b600180546001600160a01b038381166001600160a01b0319831681179093556040519116919082907f8be0079c531659141344cd1fd0a4f28419497f9722a3daafe3b4186f6b6457e090600090a35050565b80516001600160a01b03811681146200023f57600080fd5b919050565b634e487b7160e01b600052604160045260246000fd5b604051601f8201601f191681016001600160401b038111828210171562000285576200028562000244565b604052919050565b60006001600160401b03821115620002a957620002a962000244565b5060051b60200190565b600082601f830112620002c557600080fd5b81516020620002de620002d8836200028d565b6200025a565b82815260059290921b84018101918181019086841115620002fe57600080fd5b8286015b848110156200031b578051835291830191830162000302565b509695505050505050565b6000601f83818401126200033957600080fd5b825160206200034c620002d8836200028d565b82815260059290921b850181019181810190878411156200036c57600080fd5b8287015b84811015620004255780516001600160401b0380821115620003925760008081fd5b818a0191508a603f830112620003a85760008081fd5b8582015181811115620003bf57620003bf62000244565b620003d2818a01601f191688016200025a565b915080825260408c81838601011115620003ec5760008081fd5b60005b828110156200040c578481018201518482018a01528801620003ef565b5050600090820187015284525091830191830162000370565b50979650505050505050565b60008060008060008060c087890312156200044b57600080fd5b620004568762000227565b9550620004666020880162000227565b60408801519095506001600160401b03808211156200048457600080fd5b620004928a838b01620002b3565b95506060890151915080821115620004a957600080fd5b620004b78a838b01620002b3565b94506080890151915080821115620004ce57600080fd5b620004dc8a838b01620002b3565b935060a0890151915080821115620004f357600080fd5b506200050289828a0162000326565b9150509295509295509295565b634e487b7160e01b600052603260045260246000fd5b600181811c908216806200053a57607f821691505b6020821081036200055b57634e487b7160e01b600052602260045260246000fd5b50919050565b601f821115620005af57600081815260208120601f850160051c810160208610156200058a5750805b601f850160051c820191505b81811015620005ab5782815560010162000596565b5050505b505050565b81516001600160401b03811115620005d057620005d062000244565b620005e881620005e1845462000525565b8462000561565b602080601f831160018114620006205760008415620006075750858301515b600019600386901b1c1916600185901b178555620005ab565b600085815260208120601f198616915b82811015620006515788860151825594840194600190910190840162000630565b5085821015620006705787850151600019600388901b60f8161c191681555b5050505050600190811b01905550565b600060018201620006a157634e487b7160e01b600052601160045260246000fd5b5060010190565b6142f580620006b86000396000f3fe6080604052600436106102305760003560e01c8063a829f21d1161012e578063d6ef8f82116100ab578063eee2b6761161006f578063eee2b676146106c2578063f2fde38b146106e2578063fa79440314610702578063fb8fbe1f14610720578063fc5dac381461074057600080fd5b8063d6ef8f8214610620578063d928e33614610640578063dfdc329f14610653578063e628a0ee14610673578063ee9387de146106a057600080fd5b8063c01646cb116100f2578063c01646cb1461057a578063c632ad3d14610598578063c700b0aa146105b8578063c7c529a7146105d8578063ca3e8257146105eb57600080fd5b8063a829f21d146104bd578063ab48a23a146104ed578063b0a880751461050d578063b8a077a51461053a578063b8ed2eb41461055a57600080fd5b80634b16d1bc116101bc5780636698f988116101805780636698f9881461042c578063715018a6146104415780638da5cb5b1461045657806399484b41146104885780639ed6b9201461049d57600080fd5b80634b16d1bc1461036f5780634c70fb6d146103845780634fae32e71461039757806350c3cdc3146103ec5780635ed4d25e1461041957600080fd5b806325e160631161020357806325e16063146102f45780633486f7561461030757806337855bb7146103275780633eb0ef2c1461033a57806343b3b9081461034f57600080fd5b80630188d57914610235578063061ff1f0146102785780631b5042ac146102a55780631ec3cdc7146102d2575b600080fd5b34801561024157600080fd5b50610265610250366004613817565b6000908152600d602052604090206001015490565b6040519081526020015b60405180910390f35b34801561028457600080fd5b50610298610293366004613845565b610760565b60405161026f9190613871565b3480156102b157600080fd5b506102c56102c0366004613817565b6107bf565b60405161026f9190613923565b3480156102de57600080fd5b506102f26102ed3660046139d3565b610985565b005b6102f26103023660046139f5565b6109cf565b34801561031357600080fd5b506102f26103223660046139d3565b610a4f565b6102f2610335366004613a5d565b610b4d565b34801561034657600080fd5b50600554610265565b34801561035b57600080fd5b506102f261036a366004613817565b610de3565b34801561037b57600080fd5b50600b54610265565b6102f2610392366004613ac6565b610e20565b6103aa6103a5366004613b2f565b61114d565b60405161026f9190815160070b81526020808301516001600160401b03169082015260408083015160030b908201526060918201519181019190915260800190565b3480156103f857600080fd5b5061040c6104073660046139f5565b6112d7565b60405161026f9190613bbe565b6102f2610427366004613bf2565b61140c565b34801561043857600080fd5b506102f26117f8565b34801561044d57600080fd5b506102f261191e565b34801561046257600080fd5b506001546001600160a01b03165b6040516001600160a01b03909116815260200161026f565b34801561049457600080fd5b50600a54610265565b3480156104a957600080fd5b506102f26104b8366004613845565b611932565b3480156104c957600080fd5b506102656104d8366004613817565b6000908152600d602052604090206002015490565b3480156104f957600080fd5b506102f2610508366004613817565b6119d3565b34801561051957600080fd5b5061052d610528366004613c2d565b611a10565b60405161026f9190613c62565b34801561054657600080fd5b50610265610555366004613817565b611ace565b34801561056657600080fd5b506102f2610575366004613817565b611c9b565b34801561058657600080fd5b506002546001600160a01b0316610470565b3480156105a457600080fd5b506102f26105b3366004613817565b611cd8565b3480156105c457600080fd5b506102f26105d33660046139f5565b611d13565b6102f26105e6366004613ac6565b611d67565b3480156105f757600080fd5b5061060b610606366004613c2d565b611fc2565b6040805192835260208301919091520161026f565b34801561062c57600080fd5b506102f261063b366004613817565b612214565b6102f261064e366004613c70565b612251565b34801561065f57600080fd5b5061026561066e366004613c2d565b612529565b34801561067f57600080fd5b5061069361068e3660046139f5565b61261d565b60405161026f9190613cc2565b3480156106ac57600080fd5b506106b5612743565b60405161026f9190613d2b565b3480156106ce57600080fd5b506102f26106dd366004613817565b612874565b3480156106ee57600080fd5b506102f26106fd3660046139f5565b6128bd565b34801561070e57600080fd5b506003546001600160a01b0316610470565b34801561072c57600080fd5b506102f261073b366004613817565b612933565b34801561074c57600080fd5b506102f261075b366004613817565b612970565b6107686136fd565b6001600160a01b0383166000908152600f6020908152604080832085845290915290819020815160608101928390529160039082845b81548152602001906001019080831161079e57505050505090505b92915050565b6108026040518060e00160405280600080191681526020016000815260200160008152602001600081526020016060815260200160608152602001606081525090565b6000828152600d6020908152604091829020825160e0810184528154815260018201548184015260028201548185015260038201546060820152600482018054855181860281018601909652808652919492936080860193929083018282801561088b57602002820191906000526020600020905b815481526020019060010190808311610877575b50505050508152602001600582018054806020026020016040519081016040528092919081815260200182805480156108e357602002820191906000526020600020905b8154815260200190600101908083116108cf575b505050505081526020016006820180546108fc90613d8d565b80601f016020809104026020016040519081016040528092919081815260200182805461092890613d8d565b80156109755780601f1061094a57610100808354040283529160200191610975565b820191906000526020600020905b81548152906001019060200180831161095857829003601f168201915b5050505050815250509050919050565b61098d6129ad565b6000828152600d602052604080822060030183905551829184917fc367f8e1d2bee7f280ba56fece7aca3231c37fff84e5338da9fe46d7bfa610e89190a35050565b6109d76129ad565b6000816001600160a01b03164760405160006040518083038185875af1925050503d8060008114610a24576040519150601f19603f3d011682016040523d82523d6000602084013e610a29565b606091505b5050905080610a4b57604051630c74658f60e01b815260040160405180910390fd5b5050565b610a57612a07565b33600090815260126020908152604080832085845282528083208484529091528120600501549003610a9c57604051636262e75b60e01b815260040160405180910390fd5b33600090815260116020908152604080832085845290915281208260038110610ac757610ac7613dc1565b0155336000818152601260209081526040808320868452825280832085845290915280822080546001600160a01b031916815560018101839055600281018390556003810183905560048101839055600501829055518492917f8e9a975d82772676f9e1410cd245c4d0edbd03777c7cbc28029630450389169891a3610a4b6001600055565b6000868152600d60205260408120543391879187918a91889103610b8357604051621bca5160e61b815260040160405180910390fd5b8015801590610b93575080600114155b15610bb1576040516302763ae360e11b815260040160405180910390fd5b831580610bbc575082155b15610bda57604051637018737760e11b815260040160405180910390fd5b600854620f4240610beb8587613ded565b610bf59190613e33565b1215610c1457604051633af9eaa560e01b815260040160405180910390fd5b80158015610c5a57506000828152600d602052604090206002810154600390910154610c409190613e61565b620f4240610c4e8587613ded565b610c589190613e33565b135b15610c785760405163e72486b360e01b815260040160405180910390fd5b806001148015610cc057506000828152600d602052604090206001810154600390910154610ca69190613e61565b620f4240610cb48587613ded565b610cbe9190613e33565b135b15610cde57604051630a7f135360e41b815260040160405180910390fd5b3360009081526011602090815260408083208584529091529020600390610d0490612a60565b6001600160a01b0387166000908152600f602090815260408083208784529091529020610d3090612a60565b610d3a9190613e81565b10610d58576040516306152e2f60e11b815260040160405180910390fd5b6308f0d180831315610d7d57604051635694d08560e11b815260040160405180910390fd5b610d85612a07565b610d9033308c612a9f565b610d9f338c8c8c8c8c8c612b45565b6040518b9033907f02c61321c808585dc6593befb37f9909ee37888b439a1990c568e475dddb765590600090a3610dd66001600055565b5050505050505050505050565b610deb6129ad565b600b819055604051819033907f09a08cd5853e458b94e9c3e2a7b740876d700bc31a743f9ee135a345ca3dfdf390600090a350565b6001600160a01b0385166000908152600e60209081526040808320878452825280832086845290915281206001015486918691869103610e7357604051638177d6b960e01b815260040160405180910390fd5b610e7b612a07565b6001600160a01b0388166000908152600e602090815260408083208a845282528083208984528252808320815160e081018352815481526001820154938101939093526002810154918301919091526003810154606083015260048101546080830152600581015460a08301526006015460c082015290610eff8a838a8a8a612d35565b905060008113611116576001600160a01b038a166000908152600e602090815260408083208551845282528083208b845290915280822082815560018101839055600281018390556003810183905560048101839055600581018390556006019190915560808301518351606085015192850151610f9793620f424091610f869190613ded565b610f909190613e33565b6000612f2f565b6000898152600d6020908152604082206005018054600181018255908352912042910155610fc48961304f565b6001600160a01b038a166000908152600f602090815260408083208c845290915281208960038110610ff857610ff8613dc1565b01556001600160a01b038a166000908152600f60209081526040808320855184529091528120896003811061102f5761102f613dc1565b015560608201516040830151600b54620f4240929161104d91613ded565b6110579190613ded565b6110619190613e33565b600a5461106e9190613e94565b336000908152601060205260408120805490919061108d908490613e81565b9091555050815160408051918252602082018a90526001600160a01b038c16917fc49f1669c07127f11fd504cf7a83840a741e5646b0106157f132141762372513910160405180910390a281516040518291906001600160a01b038d16907f6273f181fac9230780c36df1cc086e5607a2fb9efc370b4b505947cf6ea95ea690600090a4611137565b6040516313d19c2b60e31b8152600481018290526024015b60405180910390fd5b50506111436001600055565b5050505050505050565b60408051608081018252600080825260208201819052918101829052606081019190915260025460405163d47eed4560e01b81526000916001600160a01b03169063d47eed45906111a49088908890600401613ee5565b602060405180830381865afa1580156111c1573d6000803e3d6000fd5b505050506040513d601f19601f820116820180604052508101906111e59190613f80565b600254604051631df3cbc560e31b81529192506001600160a01b03169063ef9e5e2890839061121a9089908990600401613ee5565b6000604051808303818588803b15801561123357600080fd5b505af1158015611247573d6000803e3d6000fd5b50506002546000878152600d60205260408082205490516331d98b3f60e01b815260048101919091529094506001600160a01b0390911692506331d98b3f9150602401608060405180830381865afa1580156112a7573d6000803e3d6000fd5b505050506040513d601f19601f820116820180604052508101906112cb9190613fdd565b925050505b9392505050565b6112df61371b565b6112e761371b565b60005b60058110156114055760005b60038110156113f2576001600160a01b0385166000908152600e602090815260408083208584528252808320848452909152902060030154156113e05760008161134184600361406c565b61134b9190613e81565b6001600160a01b0387166000908152600e602090815260408083208784528252808320868452825291829020825160e081018452815481526001820154928101929092526002810154928201929092526003820154606082015260048201546080820152600582015460a082015260069091015460c08201529091508482600f81106113d9576113d9613dc1565b6020020152505b806113ea81614083565b9150506112f6565b50806113fd81614083565b9150506112ea565b5092915050565b6000858152600d6020526040812054339186918691899187910361144257604051621bca5160e61b815260040160405180910390fd5b8015801590611452575080600114155b15611470576040516302763ae360e11b815260040160405180910390fd5b83158061147b575082155b1561149957604051637018737760e11b815260040160405180910390fd5b600854620f42406114aa8587613ded565b6114b49190613e33565b12156114d357604051633af9eaa560e01b815260040160405180910390fd5b8015801561151957506000828152600d6020526040902060028101546003909101546114ff9190613e61565b620f424061150d8587613ded565b6115179190613e33565b135b156115375760405163e72486b360e01b815260040160405180910390fd5b80600114801561157f57506000828152600d6020526040902060018101546003909101546115659190613e61565b620f42406115738587613ded565b61157d9190613e33565b135b1561159d57604051630a7f135360e41b815260040160405180910390fd5b33600090815260116020908152604080832085845290915290206003906115c390612a60565b6001600160a01b0387166000908152600f6020908152604080832087845290915290206115ef90612a60565b6115f99190613e81565b10611617576040516306152e2f60e11b815260040160405180910390fd5b6308f0d18083131561163c57604051635694d08560e11b815260040160405180910390fd5b611644612a07565b6000861361166557604051630390ef6d60e61b815260040160405180910390fd5b3360009081526011602090815260408083208d8452909152812061168890613288565b905061169533308c612a9f565b3360009081526011602090815260408083208e8452909152902060019082600381106116c3576116c3613dc1565b01556040805160c081018252338152602081018d9052600a5490918201906116eb908d613e61565b81526020018a81526020018981526020018881525060126000336001600160a01b03166001600160a01b0316815260200190815260200160002060008d8152602001908152602001600020600083815260200190815260200160002060008201518160000160006101000a8154816001600160a01b0302191690836001600160a01b031602179055506020820151816001015560408201518160020155606082015181600301556080820151816004015560a08201518160050155905050808b336001600160a01b03167f2d027c1cd1189e82f9dccbf4b523ff423a494be88b02c6d580400d0b0971e25c60405160405180910390a4506117ec6001600055565b50505050505050505050565b336000818152601060205260408120549003611827576040516321a5c60960e21b815260040160405180910390fd5b61182f612a07565b3360008181526010602052604080822080549083905560035491516323b872dd60e01b8152306004820152602481019490945260448401819052926001600160a01b03909116906323b872dd906064016020604051808303816000875af115801561189e573d6000803e3d6000fd5b505050506040513d601f19601f820116820180604052508101906118c2919061409c565b9050806118e257604051630c74658f60e01b815260040160405180910390fd5b604051829033907f76f16872f39a52b614b047175768d06df48efa19020f1d0e066515817f97aa6290600090a3505061191b6001600055565b50565b6119266129ad565b61193060006132c6565b565b61193a6129ad565b60405163a9059cbb60e01b8152336004820152602481018290526000906001600160a01b0384169063a9059cbb906044016020604051808303816000875af115801561198a573d6000803e3d6000fd5b505050506040513d601f19601f820116820180604052508101906119ae919061409c565b9050806119ce57604051630c74658f60e01b815260040160405180910390fd5b505050565b6119db6129ad565b6005819055604051819033907f4edf89908de270aa88947c979c2c8988831490f7da4fa3c2a85f63c591256dda90600090a350565b611a506040518060e00160405280600081526020016000815260200160008152602001600081526020016000815260200160008152602001600081525090565b506001600160a01b03929092166000908152600e60209081526040808320938352928152828220938252928352819020815160e081018352815481526001820154938101939093526002810154918301919091526003810154606083015260048101546080830152600581015460a08301526006015460c082015290565b6000818152600d60209081526040808320815160e081018352815481526001820154818501526002820154818401526003820154606082015260048201805484518187028101870190955280855286959294608086019390929190830182828015611b5857602002820191906000526020600020905b815481526020019060010190808311611b44575b5050505050815260200160058201805480602002602001604051908101604052809291908181526020018280548015611bb057602002820191906000526020600020905b815481526020019060010190808311611b9c575b50505050508152602001600682018054611bc990613d8d565b80601f0160208091040260200160405190810160405280929190818152602001828054611bf590613d8d565b8015611c425780601f10611c1757610100808354040283529160200191611c42565b820191906000526020600020905b815481529060010190602001808311611c2557829003601f168201915b50505050508152505090506000816080015151905080600003611c6a57505060055492915050565b6080820151611c7a6001836140be565b81518110611c8a57611c8a613dc1565b602002602001015192505050919050565b611ca36129ad565b600a819055604051819033907fdb7c774d897a6a77bf5d60cf960bf7bb323e10270b93345c1a63eba5205a880b90600090a350565b611ce06129ad565b600981905560405181907fcb98e968d70ed2bd5bda9de2f402cf42c6de0bc4f64ea7c37a37e2658afbea1b90600090a250565b611d1b6129ad565b600380546001600160a01b0319166001600160a01b03831690811790915560405133907fa99c2dd2e7b321e9734aede5fc2a795ab9fc50063aad4d70060dfc01a35fa84790600090a350565b611d6f612a07565b6001600160a01b038516600090815260126020908152604080832087845282528083208684529091528120600501549003611dbd57604051636262e75b60e01b815260040160405180910390fd5b6001600160a01b03851660008181526012602090815260408083208884528252808320878452825280832060028101805460038301805460058501805460048701805488546001600160a01b031916895560019098018b9055958a9055928990559388905592879055968652600f85528386208b8752909452918420929491939192909190611e4b90613288565b9050611e5c8a8a8787868c8c612b45565b6001600160a01b038a166000908152600e602090815260408083208c84528252808320848452909152812060010154600290611e99908690613e94565b611ea39190613e33565b6001600160a01b038c166000908152600e602090815260408083208e84528252808320868452909152902060010154611ee690611ee1908790613e61565b613318565b611ef1906064613ded565b611efb9190613e33565b90506005811315611f1f5760405163255c88bb60e01b815260040160405180910390fd5b3360009081526011602090815260408083208d845290915281208a60038110611f4a57611f4a613dc1565b0155600a543360009081526010602052604081208054909190611f6e908490613e81565b90915550506040518a906001600160a01b038d169033907fb5ca91f179d3667a011d3320d3c80baa2ec1cbace1dc91f985bcb766c06d994190600090a4505050505050611fbb6001600055565b5050505050565b6001600160a01b0383166000908152600e6020908152604080832085845282528083208484529091528120600101548190859085908590840361201857604051638177d6b960e01b815260040160405180910390fd5b6001600160a01b0388166000908152600e602090815260408083208a845282528083208984528252808320815160e0810183528154815260018201549381019390935260028101549183019190915260038101546060830152600481015460808301819052600582015460a084015260069091015460c08301529091906120a3908b908b908b613334565b9050610e106120b862989680620f4240613ded565b6120c29190613ded565b826060015183604001516120d69190613ded565b60a08401516120e590426140be565b6120ef9084613ded565b6120f99190613ded565b6121039190613e33565b9550816080015160000361218a576060820151612123620f424088613ded565b61212d9190613e33565b620f424083606001516121409190613e61565b6060840151602085015161215790620f4240613ded565b6121619190613e33565b61216b9190613ded565b61217790612710613ded565b6121819190613e94565b96505050612209565b81608001516001036122065760608201516121a8620f424088613ded565b6121b29190613e33565b620f424083606001516121c59190613e94565b606084015160208501516121dc90620f4240613ded565b6121e69190613e33565b6121f09190613ded565b6121fc90612710613ded565b6121819190613e61565b50505b505050935093915050565b61221c6129ad565b6006819055604051819033907f279d43723892d10e0136d5738a51dd6e241ed079ed997fc0a9b66e6246dcd34890600090a350565b336000818152600e60209081526040808320888452825280832087845290915281206001015486918691900361229a57604051638177d6b960e01b815260040160405180910390fd5b6122a2612a07565b336000818152600e602090815260408083208b845282528083208a84528252808320815160e081018352815481526001820154938101939093526002810154918301919091526003810154606083015260048101546080830152600581015460a08301526006015460c08201529161231d90838a8a8a612d35565b9050612331826040015183606001516135b3565b61233b9082613e61565b336000818152600e602090815260408083208751845282528083208d845282528083208381556001810184905560028101849055600380820185905560048201859055600582018590556006909101849055938352600f82528083208e8452909152812092935091908a9081106123b4576123b4613dc1565b01819055506123da82608001518a620f424085606001518660400151610f869190613ded565b6000898152600d60209081526040822060050180546001810182559083529120429101556124078961304f565b60008113156124ad5760035460405163a9059cbb60e01b81523360048201526024810183905282916000916001600160a01b039091169063a9059cbb906044016020604051808303816000875af1158015612466573d6000803e3d6000fd5b505050506040513d601f19601f8201168201806040525081019061248a919061409c565b9050806124aa57604051630c74658f60e01b815260040160405180910390fd5b50505b815160405189815233907fdd1bdc77e3cc244141600de256428e5a4fa93f9ba200229891d49111390692229060200160405180910390a3815160405182919033907f753ff5afc7647ecd155d0b263a97dddd9f9fcd2a5feef19cdb4f28533cadf86990600090a450506125206001600055565b50505050505050565b6001600160a01b0383166000908152600e6020908152604080832085845282528083208484528252808320815160e0810183528154815260018201549381019390935260028101549183019190915260038101546060830152600481015460808301819052600582015460a084015260069091015460c083015282906125b3908790879087613334565b9050610e106125c862989680620f4240613ded565b6125d29190613ded565b826060015183604001516125e69190613ded565b60a08401516125f590426140be565b6125ff9084613ded565b6126099190613ded565b6126139190613e33565b9695505050505050565b612625613781565b61262d613781565b60005b60058110156114055760005b6003811015612730576001600160a01b038516600090815260126020908152604080832085845282528083208484529091529020600501541561271e5760008161268784600361406c565b6126919190613e81565b6001600160a01b0380881660009081526012602090815260408083208884528252808320878452825291829020825160c0810184528154909416845260018101549184019190915260028101549183019190915260038101546060830152600481015460808301526005015460a08201529091508482600f811061271757612717613dc1565b6020020152505b8061272881614083565b91505061263c565b508061273b81614083565b915050612630565b60606000600c546001600160401b0381111561276157612761613f99565b60405190808252806020026020018201604052801561279457816020015b606081526020019060019003908161277f5790505b50905060005b600c5481101561286e576000818152600d6020526040902060060180546127c090613d8d565b80601f01602080910402602001604051908101604052809291908181526020018280546127ec90613d8d565b80156128395780601f1061280e57610100808354040283529160200191612839565b820191906000526020600020905b81548152906001019060200180831161281c57829003601f168201915b505050505082828151811061285057612850613dc1565b6020026020010181905250808061286690614083565b91505061279a565b50919050565b61287c6129ad565b600481905560408051338152602081018390527fc9efb4e68e13bfdb30aeb0a7d43fae359a9de193cf2b71a9e35a287078a1ffe2910160405180910390a150565b6128c56129ad565b6001600160a01b03811661292a5760405162461bcd60e51b815260206004820152602660248201527f4f776e61626c653a206e6577206f776e657220697320746865207a65726f206160448201526564647265737360d01b606482015260840161112e565b61191b816132c6565b61293b6129ad565b6008819055604051819033907fbb9bc6316da017b8faa91999773f59fe52449c5bc016cee9ba81e12133b8c3fc90600090a350565b6129786129ad565b6007819055604051819033907faca235ebf6db7deecaf2994795c8d532afd1b2bec396708e78d8971f854e7d9990600090a350565b6001546001600160a01b031633146119305760405162461bcd60e51b815260206004820181905260248201527f4f776e61626c653a2063616c6c6572206973206e6f7420746865206f776e6572604482015260640161112e565b600260005403612a595760405162461bcd60e51b815260206004820152601f60248201527f5265656e7472616e637947756172643a207265656e7472616e742063616c6c00604482015260640161112e565b6002600055565b6000805b600381101561286e57828160038110612a7f57612a7f613dc1565b0154612a8b9083613e81565b915080612a9781614083565b915050612a64565b6003546040516323b872dd60e01b81526001600160a01b03858116600483015284811660248301526044820184905260009216906323b872dd906064016020604051808303816000875af1158015612afb573d6000803e3d6000fd5b505050506040513d601f19601f82011682018060405250810190612b1f919061409c565b905080612b3f57604051630c74658f60e01b815260040160405180910390fd5b50505050565b6000612b5186866135b3565b612b5b9087613e61565b6001600160a01b0389166000908152600f602090815260408083208b8452909152812091925090612b8b90613288565b6001600160a01b038a166000908152600f602090815260408083208c845290915290209091506001908260038110612bc557612bc5613dc1565b0155612beb8589620f4240612bda8a87613ded565b612be49190613e33565b6001612f2f565b6000888152600d6020908152604082206005018054600181018255908352912042910155612c188861304f565b6000612c2585858b61114d565b90506000612c35878360006135ec565b90506040518060e001604052808b8152602001828152602001858152602001898152602001888152602001836060015181526020016001600d60008e815260200190815260200160002060050180549050612c9091906140be565b90526001600160a01b038c166000818152600e602090815260408083208f84528252808320888452825280832085518155918501516001830155848101516002830155606085015160038301556080850151600483015560a0850151600583015560c090940151600690910155915185928d92917f06815e86fb14e66bb1dc3a385520944e53d97411395ddb32ef15afe1178191fd9190a45050505050505050505050565b600080612d478484886000015161114d565b90506000612d5f888860000151896080015189613334565b905060006064610e10612d78620f424062989680613ded565b612d829190613ded565b612d8c9190613ded565b60648960a0015142612d9e91906140be565b60408b015160608c0151612db29087613ded565b612dbc9190613ded565b612dc69190613ded565b612dd09190613ded565b612dda9190613e33565b9050600080612def8a608001518660016135ec565b8a60200151612dfe9190613e61565b60405190915081907f7ffc13b25ce79fee35573354594e873bbe43761fc8ba593ed828116ab2a4523d90600090a28960800151600003612e9157620f42408a602001518b60400151838d60600151612e569190613ded565b612e609190613ded565b612e6a9190613e33565b612e749190613e33565b838b60400151612e849190613e61565b612e8e9190613e61565b91505b8960800151600103612ef657620f42408a602001518b60400151838d60600151612ebb9190613ded565b612ec59190613ded565b612ecf9190613e33565b612ed99190613e33565b838b60400151612ee99190613e61565b612ef39190613e94565b91505b60405182907f516ea507b82ab198d7e651c9242f8a7aa3f5eabc5f35c803a27394c57cd8b24390600090a2509998505050505050505050565b83600003612f90578015612f69576000838152600d602052604081206002018054849290612f5e908490613e94565b90915550612f909050565b6000838152600d602052604081206002018054849290612f8a908490613e61565b90915550505b83600103612ff1578015612fca576000838152600d602052604081206001018054849290612fbf908490613e94565b90915550612ff19050565b6000838152600d602052604081206001018054849290612feb908490613e61565b90915550505b6000838152600d602052604090819020600281015460019091015491517f942bc6d740ed3e211cd49465dc53eaab030a9245f4c31b365d2e355fa20b2e4292613041928252602082015260400190565b60405180910390a150505050565b6000818152600d602052604081206002015415801561307d57506000828152600d6020526040902060010154155b156130c1576000828152600d6020526040812061309f916005909101906137e9565b6000828152600d602052604081206130bc916004909101906137e9565b613220565b6000828152600d6020526040812060020154900361311c576000828152600d60205260409020600381015460019091015460075461310190600019613ded565b61310b9190613ded565b6131159190613e33565b9050613220565b6000828152600d6020526040812060010154900361315a576000828152600d60205260409020600381015460029091015460075461310b9190613ded565b6000828152600d60205260409020600181810154600290920154909161317f91613e33565b13156131ab576000828152600d60205260409020600181015460029091015460065461310b9190613ded565b6000828152600d6020526040902060018181015460029092015490916131d091613e33565b12156131fe576000828152600d60205260409020600281015460019091015460065461310190600019613ded565b6000828152600d60205260409020600181015460029091015403613220575060005b6000828152600d60209081526040808320600401805460018101825581855292842090920184905591849052905183917f9b6e0867c2485b2217b074bced73d5217ac7fca2d555047bdf3c9b5016a43f3e9161327c91906140d1565b60405180910390a25050565b6000805b600381101561286e578281600381106132a7576132a7613dc1565b01546000036132b4578091505b806132be81614083565b91505061328c565b600180546001600160a01b038381166001600160a01b0319831681179093556040519116919082907f8be0079c531659141344cd1fd0a4f28419497f9722a3daafe3b4186f6b6457e090600090a35050565b6000808212156133305761332b82614118565b6107b9565b5090565b6000838152600d60209081526040808320600501546001600160a01b0388168452600e8352818420878552835281842085855290925282206006015482815b6000888152600d6020526040902060050154613391906001906140be565b81101561345f576000888152600d602052604090206005018054829081106133bb576133bb613dc1565b60009182526020808320909101548a8352600d90915260409091206005016133e4836001613e81565b815481106133f4576133f4613dc1565b906000526020600020015461340991906140be565b6000898152600d6020526040902060040180548390811061342c5761342c613dc1565b90600052602060002001546134419190613ded565b61344b9083613e94565b91508061345781614083565b915050613373565b506000878152600d6020526040902060050161347c6001856140be565b8154811061348c5761348c613dc1565b9060005260206000200154426134a291906140be565b6000888152600d602052604090206004016134be6001866140be565b815481106134ce576134ce613dc1565b90600052602060002001546134e39190613ded565b6134ed9082613e94565b6000888152600d60205260408120600501805492935090918490811061351557613515613dc1565b906000526020600020015442600161352d9190613e81565b61353791906140be565b6000898152600d60205260409020600501546135549085906140be565b61355e9190613ded565b6135689083613e33565b905060008760000361358f57816005546135829190613e94565b95506135ab945050505050565b876001036135a557816005546135829190613e61565b50505050505b949350505050565b600080620f42406135c48486613ded565b6135ce9190613e33565b905062989680600454826135e29190613ded565b6135ab9190613e33565b6000806008851580156135fd575083155b1561361d57602085015185516136139190614134565b60070b915061367c565b8515801561362b5750836001145b1561364157602085015185516136139190614163565b85600114801561364f575083155b1561366557602085015185516136139190614163565b602085015185516136769190614134565b60070b91505b600085604001516000196136909190614192565b60030b90508060070b8260070b126136d5576136ac8183614163565b6136b790600a614296565b6136ca906001600160401b03851661406c565b93506112d092505050565b6136df8282614163565b6136ea90600a614296565b6136ca906001600160401b0385166142ab565b60405180606001604052806003906020820280368337509192915050565b604051806101e00160405280600f905b61376b6040518060e00160405280600081526020016000815260200160008152602001600081526020016000815260200160008152602001600081525090565b81526020019060019003908161372b5790505090565b604051806101e00160405280600f905b6137d36040518060c0016040528060006001600160a01b0316815260200160008152602001600081526020016000815260200160008152602001600081525090565b8152602001906001900390816137915790505090565b508054600082559060005260206000209081019061191b91905b808211156133305760008155600101613803565b60006020828403121561382957600080fd5b5035919050565b6001600160a01b038116811461191b57600080fd5b6000806040838503121561385857600080fd5b823561386381613830565b946020939093013593505050565b60608101818360005b600381101561389957815183526020928301929091019060010161387a565b50505092915050565b600081518084526020808501945080840160005b838110156138d2578151875295820195908201906001016138b6565b509495945050505050565b6000815180845260005b81811015613903576020818501810151868301820152016138e7565b506000602082860101526020601f19601f83011685010191505092915050565b6000602080835261010083018451828501528185015160408501526040850151606085015260608501516080850152608085015160e060a0860152818151808452610120870191508483019350600092505b808310156139955783518252928401926001929092019190840190613975565b5060a08701519350601f199250828682030160c08701526139b681856138a2565b9350505060c0850151818584030160e086015261261383826138dd565b600080604083850312156139e657600080fd5b50508035926020909101359150565b600060208284031215613a0757600080fd5b81356112d081613830565b60008083601f840112613a2457600080fd5b5081356001600160401b03811115613a3b57600080fd5b6020830191508360208260051b8501011115613a5657600080fd5b9250929050565b60008060008060008060a08789031215613a7657600080fd5b8635955060208701359450604087013593506060870135925060808701356001600160401b03811115613aa857600080fd5b613ab489828a01613a12565b979a9699509497509295939492505050565b600080600080600060808688031215613ade57600080fd5b8535613ae981613830565b9450602086013593506040860135925060608601356001600160401b03811115613b1257600080fd5b613b1e88828901613a12565b969995985093965092949392505050565b600080600060408486031215613b4457600080fd5b83356001600160401b03811115613b5a57600080fd5b613b6686828701613a12565b909790965060209590950135949350505050565b805182526020810151602083015260408101516040830152606081015160608301526080810151608083015260a081015160a083015260c081015160c08301525050565b610d208101818360005b600f81101561389957613bdc838351613b7a565b60e0929092019160209190910190600101613bc8565b600080600080600060a08688031215613c0a57600080fd5b505083359560208501359550604085013594606081013594506080013592509050565b600080600060608486031215613c4257600080fd5b8335613c4d81613830565b95602085013595506040909401359392505050565b60e081016107b98284613b7a565b60008060008060608587031215613c8657600080fd5b843593506020850135925060408501356001600160401b03811115613caa57600080fd5b613cb687828801613a12565b95989497509550505050565b610b408101818360005b600f81101561389957815180516001600160a01b031684526020808201518186015260408083015190860152606080830151908601526080808301519086015260a0918201519185019190915260c09093019290910190600101613ccc565b6000602080830181845280855180835260408601915060408160051b870101925083870160005b82811015613d8057603f19888603018452613d6e8583516138dd565b94509285019290850190600101613d52565b5092979650505050505050565b600181811c90821680613da157607f821691505b60208210810361286e57634e487b7160e01b600052602260045260246000fd5b634e487b7160e01b600052603260045260246000fd5b634e487b7160e01b600052601160045260246000fd5b80820260008212600160ff1b84141615613e0957613e09613dd7565b81810583148215176107b9576107b9613dd7565b634e487b7160e01b600052601260045260246000fd5b600082613e4257613e42613e1d565b600160ff1b821460001984141615613e5c57613e5c613dd7565b500590565b818103600083128015838313168383128216171561140557611405613dd7565b808201808211156107b9576107b9613dd7565b8082018281126000831280158216821582161715613eb457613eb4613dd7565b505092915050565b81835281816020850137506000828201602090810191909152601f909101601f19169091010190565b60208082528181018390526000906040600585901b8401810190840186845b87811015613f7357868403603f190183528135368a9003601e19018112613f2a57600080fd5b890185810190356001600160401b03811115613f4557600080fd5b803603821315613f5457600080fd5b613f5f868284613ebc565b955050509184019190840190600101613f04565b5091979650505050505050565b600060208284031215613f9257600080fd5b5051919050565b634e487b7160e01b600052604160045260246000fd5b80516001600160401b0381168114613fc657600080fd5b919050565b8051600381900b8114613fc657600080fd5b600060808284031215613fef57600080fd5b604051608081018181106001600160401b038211171561401f57634e487b7160e01b600052604160045260246000fd5b6040528251600781900b811461403457600080fd5b815261404260208401613faf565b602082015261405360408401613fcb565b6040820152606083015160608201528091505092915050565b80820281158282048414176107b9576107b9613dd7565b60006001820161409557614095613dd7565b5060010190565b6000602082840312156140ae57600080fd5b815180151581146112d057600080fd5b818103818111156107b9576107b9613dd7565b6020808252825482820181905260008481528281209092916040850190845b8181101561410c578354835260019384019392850192016140f0565b50909695505050505050565b6000600160ff1b820161412d5761412d613dd7565b5060000390565b600781810b9083900b01677fffffffffffffff8113677fffffffffffffff19821217156107b9576107b9613dd7565b600782810b9082900b03677fffffffffffffff198112677fffffffffffffff821317156107b9576107b9613dd7565b60008260030b8260030b028060030b915080821461140557611405613dd7565b600181815b808511156141ed5781600019048211156141d3576141d3613dd7565b808516156141e057918102915b93841c93908002906141b7565b509250929050565b600082614204575060016107b9565b81614211575060006107b9565b816001811461422757600281146142315761424d565b60019150506107b9565b60ff84111561424257614242613dd7565b50506001821b6107b9565b5060208310610133831016604e8410600b8410161715614270575081810a6107b9565b61427a83836141b2565b806000190482111561428e5761428e613dd7565b029392505050565b60006112d06001600160401b038416836141f5565b6000826142ba576142ba613e1d565b50049056fea2646970667358221220d441c39da652e281eac4a36ca26d97d518a3717b1934d58b69b8f0aa7a1ea40964736f6c63430008130033",
    "linkReferences": {}
  },
  "methodIdentifiers": {
    "cancelLimitOrder(uint256,uint256)": "3486f756",
    "executeLimitOrder(address,uint256,uint256,bytes[])": "c7c529a7",
    "getAllUserLimitOrders(address)": "e628a0ee",
    "getAllUserOpenTrades(address)": "50c3cdc3",
    "getAssetPairDetails(uint256)": "1b5042ac",
    "getAssetPairIndexSymbol()": "ee9387de",
    "getBaseBorrowFee()": "3eb0ef2c",
    "getBotRewardBase()": "99484b41",
    "getBotRewardRate()": "4b16d1bc",
    "getCurrentBorrowRate(uint256)": "b8a077a5",
    "getPythPriceFeedAddress()": "c01646cb",
    "getTokenCollateralAddress()": "fa794403",
    "getTotalLongAmount(uint256)": "a829f21d",
    "getTotalShortAmount(uint256)": "0188d579",
    "getTradePositionBorrowFees(address,uint256,uint256)": "dfdc329f",
    "getTradingPairCurrentPrice(bytes[],uint256)": "4fae32e7",
    "getUserLiquidationPrice(address,uint256,uint256)": "ca3e8257",
    "getUserOpenTradesForAsset(address,uint256)": "061ff1f0",
    "getUserTradingPositionDetails(address,uint256,uint256)": "b0a88075",
    "limitOrder(uint256,int256,int256,uint256,int256)": "5ed4d25e",
    "liquidateUser(address,uint256,uint256,bytes[])": "4c70fb6d",
    "marketOrder(uint256,int256,int256,uint256,bytes[])": "37855bb7",
    "orderClose(uint256,uint256,bytes[])": "d928e336",
    "owner()": "8da5cb5b",
    "renounceOwnership()": "715018a6",
    "setBaseBorrowFeePercentage(int256)": "ab48a23a",
    "setBotRewardsRate(int256)": "43b3b908",
    "setBotsRewardsBase(int256)": "b8ed2eb4",
    "setCollateralTokenAddress(address)": "c700b0aa",
    "setLimitOrderMaxSlippage(uint256)": "c632ad3d",
    "setMaxBorrowInterestRate(int256)": "fc5dac38",
    "setMaxOpenInterestForPair(uint256,int256)": "1ec3cdc7",
    "setMinTradeSize(int256)": "fb8fbe1f",
    "setOpeningFee(int256)": "eee2b676",
    "setVariableBorrowFeePercentage(int256)": "d6ef8f82",
    "transferOwnership(address)": "f2fde38b",
    "withdrawBotRewards()": "6698f988",
    "withdrawErc20Token(address,uint256)": "9ed6b920",
    "withdrawEth(address)": "25e16063"
  },
  "id": 35
}