{
  "abi": [
    {
      "inputs": [
        {
          "internalType": "uint256",
          "name": "_validTimePeriod",
          "type": "uint256"
        },
        {
          "internalType": "uint256",
          "name": "_singleUpdateFeeInWei",
          "type": "uint256"
        }
      ],
      "stateMutability": "nonpayable",
      "type": "constructor"
    },
    {
      "inputs": [],
      "name": "InsufficientFee",
      "type": "error"
    },
    {
      "inputs": [],
      "name": "InvalidArgument",
      "type": "error"
    },
    {
      "inputs": [],
      "name": "NoFreshUpdate",
      "type": "error"
    },
    {
      "inputs": [],
      "name": "PriceFeedNotFound",
      "type": "error"
    },
    {
      "inputs": [],
      "name": "PriceFeedNotFoundWithinRange",
      "type": "error"
    },
    {
      "inputs": [],
      "name": "StalePrice",
      "type": "error"
    },
    {
      "anonymous": false,
      "inputs": [
        {
          "indexed": false,
          "internalType": "uint16",
          "name": "chainId",
          "type": "uint16"
        },
        {
          "indexed": false,
          "internalType": "uint64",
          "name": "sequenceNumber",
          "type": "uint64"
        }
      ],
      "name": "BatchPriceFeedUpdate",
      "type": "event"
    },
    {
      "anonymous": false,
      "inputs": [
        {
          "indexed": true,
          "internalType": "bytes32",
          "name": "id",
          "type": "bytes32"
        },
        {
          "indexed": false,
          "internalType": "uint64",
          "name": "publishTime",
          "type": "uint64"
        },
        {
          "indexed": false,
          "internalType": "int64",
          "name": "price",
          "type": "int64"
        },
        {
          "indexed": false,
          "internalType": "uint64",
          "name": "conf",
          "type": "uint64"
        }
      ],
      "name": "PriceFeedUpdate",
      "type": "event"
    },
    {
      "inputs": [
        {
          "internalType": "bytes32",
          "name": "id",
          "type": "bytes32"
        },
        {
          "internalType": "int64",
          "name": "price",
          "type": "int64"
        },
        {
          "internalType": "uint64",
          "name": "conf",
          "type": "uint64"
        },
        {
          "internalType": "int32",
          "name": "expo",
          "type": "int32"
        },
        {
          "internalType": "int64",
          "name": "emaPrice",
          "type": "int64"
        },
        {
          "internalType": "uint64",
          "name": "emaConf",
          "type": "uint64"
        },
        {
          "internalType": "uint64",
          "name": "publishTime",
          "type": "uint64"
        }
      ],
      "name": "createPriceFeedUpdateData",
      "outputs": [
        {
          "internalType": "bytes",
          "name": "priceFeedData",
          "type": "bytes"
        }
      ],
      "stateMutability": "pure",
      "type": "function"
    },
    {
      "inputs": [
        {
          "internalType": "bytes32",
          "name": "id",
          "type": "bytes32"
        }
      ],
      "name": "getEmaPrice",
      "outputs": [
        {
          "components": [
            {
              "internalType": "int64",
              "name": "price",
              "type": "int64"
            },
            {
              "internalType": "uint64",
              "name": "conf",
              "type": "uint64"
            },
            {
              "internalType": "int32",
              "name": "expo",
              "type": "int32"
            },
            {
              "internalType": "uint256",
              "name": "publishTime",
              "type": "uint256"
            }
          ],
          "internalType": "struct PythStructs.Price",
          "name": "price",
          "type": "tuple"
        }
      ],
      "stateMutability": "view",
      "type": "function"
    },
    {
      "inputs": [
        {
          "internalType": "bytes32",
          "name": "id",
          "type": "bytes32"
        },
        {
          "internalType": "uint256",
          "name": "age",
          "type": "uint256"
        }
      ],
      "name": "getEmaPriceNoOlderThan",
      "outputs": [
        {
          "components": [
            {
              "internalType": "int64",
              "name": "price",
              "type": "int64"
            },
            {
              "internalType": "uint64",
              "name": "conf",
              "type": "uint64"
            },
            {
              "internalType": "int32",
              "name": "expo",
              "type": "int32"
            },
            {
              "internalType": "uint256",
              "name": "publishTime",
              "type": "uint256"
            }
          ],
          "internalType": "struct PythStructs.Price",
          "name": "price",
          "type": "tuple"
        }
      ],
      "stateMutability": "view",
      "type": "function"
    },
    {
      "inputs": [
        {
          "internalType": "bytes32",
          "name": "id",
          "type": "bytes32"
        }
      ],
      "name": "getEmaPriceUnsafe",
      "outputs": [
        {
          "components": [
            {
              "internalType": "int64",
              "name": "price",
              "type": "int64"
            },
            {
              "internalType": "uint64",
              "name": "conf",
              "type": "uint64"
            },
            {
              "internalType": "int32",
              "name": "expo",
              "type": "int32"
            },
            {
              "internalType": "uint256",
              "name": "publishTime",
              "type": "uint256"
            }
          ],
          "internalType": "struct PythStructs.Price",
          "name": "price",
          "type": "tuple"
        }
      ],
      "stateMutability": "view",
      "type": "function"
    },
    {
      "inputs": [
        {
          "internalType": "bytes32",
          "name": "id",
          "type": "bytes32"
        }
      ],
      "name": "getPrice",
      "outputs": [
        {
          "components": [
            {
              "internalType": "int64",
              "name": "price",
              "type": "int64"
            },
            {
              "internalType": "uint64",
              "name": "conf",
              "type": "uint64"
            },
            {
              "internalType": "int32",
              "name": "expo",
              "type": "int32"
            },
            {
              "internalType": "uint256",
              "name": "publishTime",
              "type": "uint256"
            }
          ],
          "internalType": "struct PythStructs.Price",
          "name": "price",
          "type": "tuple"
        }
      ],
      "stateMutability": "view",
      "type": "function"
    },
    {
      "inputs": [
        {
          "internalType": "bytes32",
          "name": "id",
          "type": "bytes32"
        },
        {
          "internalType": "uint256",
          "name": "age",
          "type": "uint256"
        }
      ],
      "name": "getPriceNoOlderThan",
      "outputs": [
        {
          "components": [
            {
              "internalType": "int64",
              "name": "price",
              "type": "int64"
            },
            {
              "internalType": "uint64",
              "name": "conf",
              "type": "uint64"
            },
            {
              "internalType": "int32",
              "name": "expo",
              "type": "int32"
            },
            {
              "internalType": "uint256",
              "name": "publishTime",
              "type": "uint256"
            }
          ],
          "internalType": "struct PythStructs.Price",
          "name": "price",
          "type": "tuple"
        }
      ],
      "stateMutability": "view",
      "type": "function"
    },
    {
      "inputs": [
        {
          "internalType": "bytes32",
          "name": "id",
          "type": "bytes32"
        }
      ],
      "name": "getPriceUnsafe",
      "outputs": [
        {
          "components": [
            {
              "internalType": "int64",
              "name": "price",
              "type": "int64"
            },
            {
              "internalType": "uint64",
              "name": "conf",
              "type": "uint64"
            },
            {
              "internalType": "int32",
              "name": "expo",
              "type": "int32"
            },
            {
              "internalType": "uint256",
              "name": "publishTime",
              "type": "uint256"
            }
          ],
          "internalType": "struct PythStructs.Price",
          "name": "price",
          "type": "tuple"
        }
      ],
      "stateMutability": "view",
      "type": "function"
    },
    {
      "inputs": [
        {
          "internalType": "bytes[]",
          "name": "updateData",
          "type": "bytes[]"
        }
      ],
      "name": "getUpdateFee",
      "outputs": [
        {
          "internalType": "uint256",
          "name": "feeAmount",
          "type": "uint256"
        }
      ],
      "stateMutability": "view",
      "type": "function"
    },
    {
      "inputs": [],
      "name": "getValidTimePeriod",
      "outputs": [
        {
          "internalType": "uint256",
          "name": "",
          "type": "uint256"
        }
      ],
      "stateMutability": "view",
      "type": "function"
    },
    {
      "inputs": [
        {
          "internalType": "bytes[]",
          "name": "updateData",
          "type": "bytes[]"
        },
        {
          "internalType": "bytes32[]",
          "name": "priceIds",
          "type": "bytes32[]"
        },
        {
          "internalType": "uint64",
          "name": "minPublishTime",
          "type": "uint64"
        },
        {
          "internalType": "uint64",
          "name": "maxPublishTime",
          "type": "uint64"
        }
      ],
      "name": "parsePriceFeedUpdates",
      "outputs": [
        {
          "components": [
            {
              "internalType": "bytes32",
              "name": "id",
              "type": "bytes32"
            },
            {
              "components": [
                {
                  "internalType": "int64",
                  "name": "price",
                  "type": "int64"
                },
                {
                  "internalType": "uint64",
                  "name": "conf",
                  "type": "uint64"
                },
                {
                  "internalType": "int32",
                  "name": "expo",
                  "type": "int32"
                },
                {
                  "internalType": "uint256",
                  "name": "publishTime",
                  "type": "uint256"
                }
              ],
              "internalType": "struct PythStructs.Price",
              "name": "price",
              "type": "tuple"
            },
            {
              "components": [
                {
                  "internalType": "int64",
                  "name": "price",
                  "type": "int64"
                },
                {
                  "internalType": "uint64",
                  "name": "conf",
                  "type": "uint64"
                },
                {
                  "internalType": "int32",
                  "name": "expo",
                  "type": "int32"
                },
                {
                  "internalType": "uint256",
                  "name": "publishTime",
                  "type": "uint256"
                }
              ],
              "internalType": "struct PythStructs.Price",
              "name": "emaPrice",
              "type": "tuple"
            }
          ],
          "internalType": "struct PythStructs.PriceFeed[]",
          "name": "feeds",
          "type": "tuple[]"
        }
      ],
      "stateMutability": "payable",
      "type": "function"
    },
    {
      "inputs": [
        {
          "internalType": "bytes32",
          "name": "id",
          "type": "bytes32"
        }
      ],
      "name": "priceFeedExists",
      "outputs": [
        {
          "internalType": "bool",
          "name": "",
          "type": "bool"
        }
      ],
      "stateMutability": "view",
      "type": "function"
    },
    {
      "inputs": [
        {
          "internalType": "bytes32",
          "name": "id",
          "type": "bytes32"
        }
      ],
      "name": "queryPriceFeed",
      "outputs": [
        {
          "components": [
            {
              "internalType": "bytes32",
              "name": "id",
              "type": "bytes32"
            },
            {
              "components": [
                {
                  "internalType": "int64",
                  "name": "price",
                  "type": "int64"
                },
                {
                  "internalType": "uint64",
                  "name": "conf",
                  "type": "uint64"
                },
                {
                  "internalType": "int32",
                  "name": "expo",
                  "type": "int32"
                },
                {
                  "internalType": "uint256",
                  "name": "publishTime",
                  "type": "uint256"
                }
              ],
              "internalType": "struct PythStructs.Price",
              "name": "price",
              "type": "tuple"
            },
            {
              "components": [
                {
                  "internalType": "int64",
                  "name": "price",
                  "type": "int64"
                },
                {
                  "internalType": "uint64",
                  "name": "conf",
                  "type": "uint64"
                },
                {
                  "internalType": "int32",
                  "name": "expo",
                  "type": "int32"
                },
                {
                  "internalType": "uint256",
                  "name": "publishTime",
                  "type": "uint256"
                }
              ],
              "internalType": "struct PythStructs.Price",
              "name": "emaPrice",
              "type": "tuple"
            }
          ],
          "internalType": "struct PythStructs.PriceFeed",
          "name": "priceFeed",
          "type": "tuple"
        }
      ],
      "stateMutability": "view",
      "type": "function"
    },
    {
      "inputs": [
        {
          "internalType": "bytes[]",
          "name": "updateData",
          "type": "bytes[]"
        }
      ],
      "name": "updatePriceFeeds",
      "outputs": [],
      "stateMutability": "payable",
      "type": "function"
    },
    {
      "inputs": [
        {
          "internalType": "bytes[]",
          "name": "updateData",
          "type": "bytes[]"
        },
        {
          "internalType": "bytes32[]",
          "name": "priceIds",
          "type": "bytes32[]"
        },
        {
          "internalType": "uint64[]",
          "name": "publishTimes",
          "type": "uint64[]"
        }
      ],
      "name": "updatePriceFeedsIfNecessary",
      "outputs": [],
      "stateMutability": "payable",
      "type": "function"
    }
  ],
  "bytecode": {
    "object": "0x608060405234801561001057600080fd5b5060405161124f38038061124f83398101604081905261002f9161003a565b60025560035561005e565b6000806040838503121561004d57600080fd5b505080516020909101519092909150565b6111e28061006d6000396000f3fe6080604052600436106100dd5760003560e01c8063b5dcc9111161007f578063caaf43f111610059578063caaf43f114610259578063d47eed4514610286578063e18910a3146102b4578063ef9e5e28146102c957600080fd5b8063b5dcc911146101e5578063b5ec026114610205578063b9256d281461024457600080fd5b80639474f45b116100bb5780639474f45b1461015857806396834ad31461017857806396db632714610198578063a4ae35e0146101c557600080fd5b806331d98b3f146100e25780634716e9c514610118578063711a2e2814610138575b600080fd5b3480156100ee57600080fd5b506101026100fd366004610bd9565b6102dc565b60405161010f9190610c27565b60405180910390f35b61012b610126366004610c9c565b6102f7565b60405161010f9190610d59565b34801561014457600080fd5b50610102610153366004610da8565b610518565b34801561016457600080fd5b50610102610173366004610bd9565b610559565b34801561018457600080fd5b50610102610193366004610bd9565b610577565b3480156101a457600080fd5b506101b86101b3366004610dee565b610595565b60405161010f9190610e6d565b3480156101d157600080fd5b506101026101e0366004610da8565b610634565b3480156101f157600080fd5b50610102610200366004610bd9565b610645565b34801561021157600080fd5b50610234610220366004610bd9565b600090815260208190526040902054151590565b604051901515815260200161010f565b610257610252366004610ebb565b61065a565b005b34801561026557600080fd5b50610279610274366004610bd9565b610760565b60405161010f9190610f54565b34801561029257600080fd5b506102a66102a1366004610f63565b61083e565b60405190815260200161010f565b3480156102c057600080fd5b506003546102a6565b6102576102d7366004610f63565b610856565b6102e4610b85565b6102f1826101e060035490565b92915050565b60606000610305888861083e565b9050803410156103275760405162976f7560e21b815260040160405180910390fd5b846001600160401b0381111561033f5761033f610fa4565b60405190808252806020026020018201604052801561037857816020015b610365610bac565b81526020019060019003908161035d5790505b50915060005b8581101561050c5760005b888110156104a4578989828181106103a3576103a3610fba565b90506020028101906103b59190610fd0565b8101906103c2919061109c565b8483815181106103d4576103d4610fba565b60200260200101819052508787838181106103f1576103f1610fba565b9050602002013584838151811061040a5761040a610fba565b6020026020010151600001510361049257600084838151811061042f5761042f610fba565b60200260200101516020015160600151905080876001600160401b0316111580156104635750856001600160401b03168111155b1561046e57506104a4565b6000801b85848151811061048457610484610fba565b602090810291909101015152505b8061049c81611127565b915050610389565b508686828181106104b7576104b7610fba565b905060200201358382815181106104d0576104d0610fba565b602002602001015160000151146104fa576040516345805f5d60e01b815260040160405180910390fd5b8061050481611127565b91505061037e565b50509695505050505050565b610520610b85565b61052983610559565b90508161053a428360600151610b60565b11156102f157604051630cd5fa0760e11b815260040160405180910390fd5b610561610b85565b600061056c83610760565b604001519392505050565b61057f610b85565b600061058a83610760565b602001519392505050565b606061059f610bac565b8881526020808201805160078b810b90915281516001600160401b03808c1691850191909152825160038b900b6040918201819052935188831660609182018190528288018051958d900b9095528451938b169387019390935283518201949094529151909201919091525161061791839101610f54565b604051602081830303815290604052915050979650505050505050565b61063c610b85565b61052983610577565b61064d610b85565b6102f18261015360035490565b82811461067a5760405163a9cb9e0d60e01b815260040160405180910390fd5b60005b8381101561073e576106b585858381811061069a5761069a610fba565b90506020020135600090815260208190526040902054151590565b158061071757508282828181106106ce576106ce610fba565b90506020020160208101906106e39190611140565b6001600160401b031661070d86868481811061070157610701610fba565b90506020020135610760565b6020015160600151105b1561072c576107268787610856565b50610758565b8061073681611127565b91505061067d565b50604051636f162bfd60e11b815260040160405180910390fd5b505050505050565b610768610bac565b600082815260208190526040812054900361079657604051630295d7cd60e31b815260040160405180910390fd5b5060009081526020818152604091829020825160608082018552825482528451608080820187526001850154600781810b84526001600160401b03680100000000000000008084048216868b0152600160801b93849004600390810b878d015260028a015487890152888b01969096528a519485018b52858901549283900b855282041697830197909752909504900b84860152600490920154918301919091529182015290565b60025460009061084f90839061115b565b9392505050565b6000610862838361083e565b9050803410156108845760405162976f7560e21b815260040160405180910390fd5b600160005b83811015610acf5760008585838181106108a5576108a5610fba565b90506020028101906108b79190610fd0565b8101906108c4919061109c565b805160009081526020818152604090912060020154908201516060015191925090811015610aba5781600080846000015181526020019081526020016000206000820151816000015560208201518160010160008201518160000160006101000a8154816001600160401b03021916908360070b6001600160401b0316021790555060208201518160000160086101000a8154816001600160401b0302191690836001600160401b0316021790555060408201518160000160106101000a81548163ffffffff021916908360030b63ffffffff16021790555060608201518160010155505060408201518160030160008201518160000160006101000a8154816001600160401b03021916908360070b6001600160401b0316021790555060208201518160000160086101000a8154816001600160401b0302191690836001600160401b0316021790555060408201518160000160106101000a81548163ffffffff021916908360030b63ffffffff16021790555060608201518160010155505090505081600001517fd06a6b7f4918494b3719217d1802786c1f5112a6c1d88fe2cfec00b4584f6aec82846020015160000151856020015160200151604051610ab1939291906001600160401b03938416815260079290920b6020830152909116604082015260600190565b60405180910390a25b50508080610ac790611127565b915050610889565b506001546040805161ffff841681526001600160401b0390921660208301527f943f0e8a16c19895fb87cbeb1a349ed86d7f31923089dd36c1a1ed5e300f267b910160405180910390a1600180548190600090610b369083906001600160401b0316611172565b92506101000a8154816001600160401b0302191690836001600160401b0316021790555050505050565b600081831115610b7b57610b748284611199565b90506102f1565b610b748383611199565b60408051608081018252600080825260208201819052918101829052606081019190915290565b60408051606081019091526000815260208101610bc7610b85565b8152602001610bd4610b85565b905290565b600060208284031215610beb57600080fd5b5035919050565b805160070b82526001600160401b036020820151166020830152604081015160030b6040830152606081015160608301525050565b608081016102f18284610bf2565b60008083601f840112610c4757600080fd5b5081356001600160401b03811115610c5e57600080fd5b6020830191508360208260051b8501011115610c7957600080fd5b9250929050565b80356001600160401b0381168114610c9757600080fd5b919050565b60008060008060008060808789031215610cb557600080fd5b86356001600160401b0380821115610ccc57600080fd5b610cd88a838b01610c35565b90985096506020890135915080821115610cf157600080fd5b50610cfe89828a01610c35565b9095509350610d11905060408801610c80565b9150610d1f60608801610c80565b90509295509295509295565b805182526020810151610d416020840182610bf2565b506040810151610d5460a0840182610bf2565b505050565b6020808252825182820181905260009190848201906040850190845b81811015610d9c57610d88838551610d2b565b928401926101209290920191600101610d75565b50909695505050505050565b60008060408385031215610dbb57600080fd5b50508035926020909101359150565b8035600781900b8114610c9757600080fd5b8035600381900b8114610c9757600080fd5b600080600080600080600060e0888a031215610e0957600080fd5b87359650610e1960208901610dca565b9550610e2760408901610c80565b9450610e3560608901610ddc565b9350610e4360808901610dca565b9250610e5160a08901610c80565b9150610e5f60c08901610c80565b905092959891949750929550565b600060208083528351808285015260005b81811015610e9a57858101830151858201604001528201610e7e565b506000604082860101526040601f19601f8301168501019250505092915050565b60008060008060008060608789031215610ed457600080fd5b86356001600160401b0380821115610eeb57600080fd5b610ef78a838b01610c35565b90985096506020890135915080821115610f1057600080fd5b610f1c8a838b01610c35565b90965094506040890135915080821115610f3557600080fd5b50610f4289828a01610c35565b979a9699509497509295939492505050565b61012081016102f18284610d2b565b60008060208385031215610f7657600080fd5b82356001600160401b03811115610f8c57600080fd5b610f9885828601610c35565b90969095509350505050565b634e487b7160e01b600052604160045260246000fd5b634e487b7160e01b600052603260045260246000fd5b6000808335601e19843603018112610fe757600080fd5b8301803591506001600160401b0382111561100157600080fd5b602001915036819003821315610c7957600080fd5b60006080828403121561102857600080fd5b604051608081018181106001600160401b038211171561105857634e487b7160e01b600052604160045260246000fd5b60405290508061106783610dca565b815261107560208401610c80565b602082015261108660408401610ddc565b6040820152606083013560608201525092915050565b600061012082840312156110af57600080fd5b604051606081018181106001600160401b03821117156110df57634e487b7160e01b600052604160045260246000fd5b604052823581526110f38460208501611016565b60208201526111058460a08501611016565b60408201529392505050565b634e487b7160e01b600052601160045260246000fd5b60006001820161113957611139611111565b5060010190565b60006020828403121561115257600080fd5b61084f82610c80565b80820281158282048414176102f1576102f1611111565b6001600160401b0381811683821601908082111561119257611192611111565b5092915050565b818103818111156102f1576102f161111156fea264697066735822122054b83153cd985e589b5b4d7c965042c2389b1047f6ddaca56aedf5d4f247152964736f6c63430008130033",
    "linkReferences": {}
  },
  "methodIdentifiers": {
    "createPriceFeedUpdateData(bytes32,int64,uint64,int32,int64,uint64,uint64)": "96db6327",
    "getEmaPrice(bytes32)": "b5dcc911",
    "getEmaPriceNoOlderThan(bytes32,uint256)": "711a2e28",
    "getEmaPriceUnsafe(bytes32)": "9474f45b",
    "getPrice(bytes32)": "31d98b3f",
    "getPriceNoOlderThan(bytes32,uint256)": "a4ae35e0",
    "getPriceUnsafe(bytes32)": "96834ad3",
    "getUpdateFee(bytes[])": "d47eed45",
    "getValidTimePeriod()": "e18910a3",
    "parsePriceFeedUpdates(bytes[],bytes32[],uint64,uint64)": "4716e9c5",
    "priceFeedExists(bytes32)": "b5ec0261",
    "queryPriceFeed(bytes32)": "caaf43f1",
    "updatePriceFeeds(bytes[])": "ef9e5e28",
    "updatePriceFeedsIfNecessary(bytes[],bytes32[],uint64[])": "b9256d28"
  },
  "id": 29
}