{
  "abi": [
    {
      "inputs": [
        {
          "internalType": "address",
          "name": "pythPriceFeedAddress",
          "type": "address"
        },
        {
          "internalType": "address",
          "name": "tokenCollateralAddress",
          "type": "address"
        },
        {
          "internalType": "bytes32[]",
          "name": "pairPriceFeedAddressId",
          "type": "bytes32[]"
        },
        {
          "internalType": "int256[]",
          "name": "maxOpenInterest",
          "type": "int256[]"
        },
        {
          "internalType": "uint256[]",
          "name": "pairIndex",
          "type": "uint256[]"
        },
        {
          "internalType": "string[]",
          "name": "pairSymbol",
          "type": "string[]"
        }
      ],
      "stateMutability": "nonpayable",
      "type": "constructor"
    },
    {
      "inputs": [],
      "name": "OrderBook__InvalidOrderType",
      "type": "error"
    },
    {
      "inputs": [],
      "name": "OrderBook__InvalidTradingPair",
      "type": "error"
    },
    {
      "inputs": [],
      "name": "OrderBook__LimitOrderDoesNotExistInBook",
      "type": "error"
    },
    {
      "inputs": [],
      "name": "OrderBook__LimitOrderExecutionFailedTooMuchSlippage",
      "type": "error"
    },
    {
      "inputs": [],
      "name": "OrderBook__LimitOrderTargetPriceCannotMustBePositive",
      "type": "error"
    },
    {
      "inputs": [],
      "name": "OrderBook__MaxLeverageIs150",
      "type": "error"
    },
    {
      "inputs": [],
      "name": "OrderBook__MaxNumberOfOpenTrades3Reached",
      "type": "error"
    },
    {
      "inputs": [],
      "name": "OrderBook__MaxNumberOfTradesReachedForAssetPairLimitOrder",
      "type": "error"
    },
    {
      "inputs": [],
      "name": "OrderBook__MaxOpenInterestReachedLongs",
      "type": "error"
    },
    {
      "inputs": [],
      "name": "OrderBook__MaxOpenInterestShortsReached",
      "type": "error"
    },
    {
      "inputs": [],
      "name": "OrderBook__NeedsMoreThanZero",
      "type": "error"
    },
    {
      "inputs": [],
      "name": "OrderBook__NoBotRewards",
      "type": "error"
    },
    {
      "inputs": [],
      "name": "OrderBook__ParameterArraysMustBeTheSameLength",
      "type": "error"
    },
    {
      "inputs": [],
      "name": "OrderBook__TokenApprovalFailed",
      "type": "error"
    },
    {
      "inputs": [],
      "name": "OrderBook__TradeSizeTooSmall",
      "type": "error"
    },
    {
      "inputs": [],
      "name": "OrderBook__TransferFailed",
      "type": "error"
    },
    {
      "inputs": [],
      "name": "OrderBook__UserClosingNonExistingPosition",
      "type": "error"
    },
    {
      "inputs": [
        {
          "internalType": "int256",
          "name": "userPNL",
          "type": "int256"
        }
      ],
      "name": "OrderBook__UserPositionNotOpenForLiquidation",
      "type": "error"
    },
    {
      "anonymous": false,
      "inputs": [
        {
          "indexed": false,
          "internalType": "bytes[]",
          "name": "priceUpdateData",
          "type": "bytes[]"
        }
      ],
      "name": "AdjustedPrice",
      "type": "event"
    },
    {
      "anonymous": false,
      "inputs": [
        {
          "indexed": true,
          "internalType": "uint256",
          "name": "pairIndex",
          "type": "uint256"
        },
        {
          "indexed": true,
          "internalType": "int256",
          "name": "borrowFee",
          "type": "int256"
        },
        {
          "indexed": true,
          "internalType": "uint256",
          "name": "orderType",
          "type": "uint256"
        }
      ],
      "name": "AvgBorrowFeeCalculation",
      "type": "event"
    },
    {
      "anonymous": false,
      "inputs": [
        {
          "indexed": true,
          "internalType": "address",
          "name": "user",
          "type": "address"
        },
        {
          "indexed": true,
          "internalType": "int256",
          "name": "newBaseBorrowFeePercentage",
          "type": "int256"
        }
      ],
      "name": "BaseBorrowFeeChanged",
      "type": "event"
    },
    {
      "anonymous": false,
      "inputs": [
        {
          "indexed": true,
          "internalType": "address",
          "name": "user",
          "type": "address"
        },
        {
          "indexed": true,
          "internalType": "int256",
          "name": "newVariableBorrowFeePercentage",
          "type": "int256"
        }
      ],
      "name": "BaseVariableBorrowFeeChanged",
      "type": "event"
    },
    {
      "anonymous": false,
      "inputs": [
        {
          "indexed": true,
          "internalType": "uint256",
          "name": "pairIndex",
          "type": "uint256"
        },
        {
          "indexed": false,
          "internalType": "int256[]",
          "name": "borrowFees",
          "type": "int256[]"
        }
      ],
      "name": "BorrowFeeUpdated",
      "type": "event"
    },
    {
      "anonymous": false,
      "inputs": [
        {
          "indexed": true,
          "internalType": "address",
          "name": "user",
          "type": "address"
        },
        {
          "indexed": true,
          "internalType": "int256",
          "name": "newBotRewardsBase",
          "type": "int256"
        }
      ],
      "name": "BotRewardsBaseChanged",
      "type": "event"
    },
    {
      "anonymous": false,
      "inputs": [
        {
          "indexed": true,
          "internalType": "address",
          "name": "botAddress",
          "type": "address"
        },
        {
          "indexed": true,
          "internalType": "uint256",
          "name": "amount",
          "type": "uint256"
        }
      ],
      "name": "BotRewardsClaimed",
      "type": "event"
    },
    {
      "anonymous": false,
      "inputs": [
        {
          "indexed": true,
          "internalType": "address",
          "name": "user",
          "type": "address"
        },
        {
          "indexed": true,
          "internalType": "int256",
          "name": "newBotRewardsRate",
          "type": "int256"
        }
      ],
      "name": "BotRewardsRateChanged",
      "type": "event"
    },
    {
      "anonymous": false,
      "inputs": [
        {
          "indexed": true,
          "internalType": "address",
          "name": "user",
          "type": "address"
        },
        {
          "indexed": true,
          "internalType": "address",
          "name": "newTokenAddress",
          "type": "address"
        }
      ],
      "name": "CollateralTokenChanged",
      "type": "event"
    },
    {
      "anonymous": false,
      "inputs": [
        {
          "indexed": true,
          "internalType": "address",
          "name": "userAddress",
          "type": "address"
        },
        {
          "indexed": true,
          "internalType": "uint256",
          "name": "pairIndex",
          "type": "uint256"
        }
      ],
      "name": "LimitOrderCanceled",
      "type": "event"
    },
    {
      "anonymous": false,
      "inputs": [
        {
          "indexed": true,
          "internalType": "address",
          "name": "executor",
          "type": "address"
        },
        {
          "indexed": true,
          "internalType": "address",
          "name": "trader",
          "type": "address"
        },
        {
          "indexed": true,
          "internalType": "uint256",
          "name": "pairIndex",
          "type": "uint256"
        }
      ],
      "name": "LimitOrderExecuted",
      "type": "event"
    },
    {
      "anonymous": false,
      "inputs": [
        {
          "indexed": true,
          "internalType": "int256",
          "name": "newLimitOrderMaxSlippage",
          "type": "int256"
        }
      ],
      "name": "LimitOrderMaxSLippageChanged",
      "type": "event"
    },
    {
      "anonymous": false,
      "inputs": [
        {
          "indexed": true,
          "internalType": "address",
          "name": "userAddress",
          "type": "address"
        },
        {
          "indexed": true,
          "internalType": "uint256",
          "name": "pairIndex",
          "type": "uint256"
        },
        {
          "indexed": true,
          "internalType": "uint256",
          "name": "tradeSlot",
          "type": "uint256"
        }
      ],
      "name": "LimitOrderPlaced",
      "type": "event"
    },
    {
      "anonymous": false,
      "inputs": [
        {
          "indexed": true,
          "internalType": "address",
          "name": "user",
          "type": "address"
        },
        {
          "indexed": true,
          "internalType": "uint256",
          "name": "pairIndex",
          "type": "uint256"
        }
      ],
      "name": "MarketTrade",
      "type": "event"
    },
    {
      "anonymous": false,
      "inputs": [
        {
          "indexed": true,
          "internalType": "address",
          "name": "user",
          "type": "address"
        },
        {
          "indexed": true,
          "internalType": "int256",
          "name": "newMaxBorrowInterestRate",
          "type": "int256"
        }
      ],
      "name": "MaxBorrowRateChanged",
      "type": "event"
    },
    {
      "anonymous": false,
      "inputs": [
        {
          "indexed": true,
          "internalType": "uint256",
          "name": "pairIndex",
          "type": "uint256"
        },
        {
          "indexed": true,
          "internalType": "int256",
          "name": "maxOpenInterest",
          "type": "int256"
        }
      ],
      "name": "MaxOpenInterestChanged",
      "type": "event"
    },
    {
      "anonymous": false,
      "inputs": [
        {
          "indexed": true,
          "internalType": "address",
          "name": "user",
          "type": "address"
        },
        {
          "indexed": true,
          "internalType": "int256",
          "name": "newMinTradeSize",
          "type": "int256"
        }
      ],
      "name": "MinTradeSizeChanged",
      "type": "event"
    },
    {
      "anonymous": false,
      "inputs": [
        {
          "indexed": false,
          "internalType": "int256",
          "name": "interestLongs",
          "type": "int256"
        },
        {
          "indexed": false,
          "internalType": "int256",
          "name": "interestShorts",
          "type": "int256"
        }
      ],
      "name": "OpenInterestUpdated",
      "type": "event"
    },
    {
      "anonymous": false,
      "inputs": [
        {
          "indexed": false,
          "internalType": "address",
          "name": "user",
          "type": "address"
        },
        {
          "indexed": false,
          "internalType": "int256",
          "name": "newOpeningFee",
          "type": "int256"
        }
      ],
      "name": "OpeningFeeChanged",
      "type": "event"
    },
    {
      "anonymous": false,
      "inputs": [
        {
          "indexed": true,
          "internalType": "address",
          "name": "newOwner",
          "type": "address"
        }
      ],
      "name": "OrderBookOwnerUpdated",
      "type": "event"
    },
    {
      "anonymous": false,
      "inputs": [
        {
          "indexed": true,
          "internalType": "address",
          "name": "user",
          "type": "address"
        },
        {
          "indexed": true,
          "internalType": "uint256",
          "name": "pairIndex",
          "type": "uint256"
        },
        {
          "indexed": false,
          "internalType": "uint256",
          "name": "userTradeIndex",
          "type": "uint256"
        }
      ],
      "name": "OrderClosed",
      "type": "event"
    },
    {
      "anonymous": false,
      "inputs": [
        {
          "indexed": true,
          "internalType": "address",
          "name": "userAddress",
          "type": "address"
        },
        {
          "indexed": true,
          "internalType": "int256",
          "name": "pairIndex",
          "type": "int256"
        },
        {
          "indexed": true,
          "internalType": "int256",
          "name": "userPNL",
          "type": "int256"
        }
      ],
      "name": "OrderClosedTradeDetails",
      "type": "event"
    },
    {
      "anonymous": false,
      "inputs": [
        {
          "indexed": true,
          "internalType": "address",
          "name": "previousOwner",
          "type": "address"
        },
        {
          "indexed": true,
          "internalType": "address",
          "name": "newOwner",
          "type": "address"
        }
      ],
      "name": "OwnershipTransferred",
      "type": "event"
    },
    {
      "anonymous": false,
      "inputs": [
        {
          "indexed": true,
          "internalType": "int256",
          "name": "priceChange",
          "type": "int256"
        }
      ],
      "name": "PriceChange",
      "type": "event"
    },
    {
      "anonymous": false,
      "inputs": [
        {
          "indexed": false,
          "internalType": "uint256",
          "name": "startIndex",
          "type": "uint256"
        }
      ],
      "name": "StartIndex",
      "type": "event"
    },
    {
      "anonymous": false,
      "inputs": [
        {
          "indexed": false,
          "internalType": "int256",
          "name": "sum",
          "type": "int256"
        }
      ],
      "name": "Sum",
      "type": "event"
    },
    {
      "anonymous": false,
      "inputs": [
        {
          "indexed": false,
          "internalType": "uint256",
          "name": "timeArrayLength",
          "type": "uint256"
        }
      ],
      "name": "TimeArrayLength",
      "type": "event"
    },
    {
      "anonymous": false,
      "inputs": [
        {
          "indexed": true,
          "internalType": "address",
          "name": "user",
          "type": "address"
        },
        {
          "indexed": true,
          "internalType": "uint256",
          "name": "pairIndex",
          "type": "uint256"
        },
        {
          "indexed": true,
          "internalType": "uint256",
          "name": "userPairTradeIndex",
          "type": "uint256"
        }
      ],
      "name": "TradeOpened",
      "type": "event"
    },
    {
      "anonymous": false,
      "inputs": [
        {
          "indexed": true,
          "internalType": "address",
          "name": "user",
          "type": "address"
        },
        {
          "indexed": false,
          "internalType": "uint256",
          "name": "pairIndex",
          "type": "uint256"
        },
        {
          "indexed": false,
          "internalType": "uint256",
          "name": "userTradeIndex",
          "type": "uint256"
        }
      ],
      "name": "UserLiquidated",
      "type": "event"
    },
    {
      "anonymous": false,
      "inputs": [
        {
          "indexed": true,
          "internalType": "address",
          "name": "userAddress",
          "type": "address"
        },
        {
          "indexed": true,
          "internalType": "uint256",
          "name": "pairIndex",
          "type": "uint256"
        },
        {
          "indexed": true,
          "internalType": "int256",
          "name": "userPNL",
          "type": "int256"
        }
      ],
      "name": "UserLiquidationDetails",
      "type": "event"
    },
    {
      "anonymous": false,
      "inputs": [
        {
          "indexed": true,
          "internalType": "int256",
          "name": "userPNl",
          "type": "int256"
        }
      ],
      "name": "UserPNL",
      "type": "event"
    },
    {
      "inputs": [
        {
          "internalType": "uint256",
          "name": "pairIndex",
          "type": "uint256"
        },
        {
          "internalType": "uint256",
          "name": "limitOrderSlot",
          "type": "uint256"
        }
      ],
      "name": "cancelLimitOrder",
      "outputs": [],
      "stateMutability": "nonpayable",
      "type": "function"
    },
    {
      "inputs": [
        {
          "internalType": "address",
          "name": "userAddress",
          "type": "address"
        },
        {
          "internalType": "uint256",
          "name": "pairIndex",
          "type": "uint256"
        },
        {
          "internalType": "uint256",
          "name": "limitOrderSlot",
          "type": "uint256"
        },
        {
          "internalType": "bytes[]",
          "name": "priceUpdateData",
          "type": "bytes[]"
        }
      ],
      "name": "executeLimitOrder",
      "outputs": [],
      "stateMutability": "payable",
      "type": "function"
    },
    {
      "inputs": [
        {
          "internalType": "address",
          "name": "user",
          "type": "address"
        }
      ],
      "name": "getAllUserLimitOrders",
      "outputs": [
        {
          "components": [
            {
              "internalType": "address",
              "name": "userAddress",
              "type": "address"
            },
            {
              "internalType": "uint256",
              "name": "pairIndex",
              "type": "uint256"
            },
            {
              "internalType": "int256",
              "name": "collateral",
              "type": "int256"
            },
            {
              "internalType": "int256",
              "name": "leverage",
              "type": "int256"
            },
            {
              "internalType": "uint256",
              "name": "orderType",
              "type": "uint256"
            },
            {
              "internalType": "int256",
              "name": "targetPrice",
              "type": "int256"
            }
          ],
          "internalType": "struct OrderBook.LimitOrderDetails[15]",
          "name": "",
          "type": "tuple[15]"
        }
      ],
      "stateMutability": "view",
      "type": "function"
    },
    {
      "inputs": [
        {
          "internalType": "address",
          "name": "user",
          "type": "address"
        }
      ],
      "name": "getAllUserOpenTrades",
      "outputs": [
        {
          "components": [
            {
              "internalType": "uint256",
              "name": "pairNumber",
              "type": "uint256"
            },
            {
              "internalType": "int256",
              "name": "openPrice",
              "type": "int256"
            },
            {
              "internalType": "int256",
              "name": "collateralAfterFee",
              "type": "int256"
            },
            {
              "internalType": "int256",
              "name": "leverage",
              "type": "int256"
            },
            {
              "internalType": "uint256",
              "name": "longShort",
              "type": "uint256"
            },
            {
              "internalType": "uint256",
              "name": "openTime",
              "type": "uint256"
            },
            {
              "internalType": "uint256",
              "name": "indexBorrowPercentArray",
              "type": "uint256"
            }
          ],
          "internalType": "struct OrderBook.PositionDetails[15]",
          "name": "",
          "type": "tuple[15]"
        }
      ],
      "stateMutability": "view",
      "type": "function"
    },
    {
      "inputs": [
        {
          "internalType": "uint256",
          "name": "pairIndex",
          "type": "uint256"
        }
      ],
      "name": "getAssetPairDetails",
      "outputs": [
        {
          "components": [
            {
              "internalType": "bytes32",
              "name": "pythPriceFeedAddress",
              "type": "bytes32"
            },
            {
              "internalType": "int256",
              "name": "assetTotalShorts",
              "type": "int256"
            },
            {
              "internalType": "int256",
              "name": "assetTotalLongs",
              "type": "int256"
            },
            {
              "internalType": "int256",
              "name": "maxOpenInterest",
              "type": "int256"
            },
            {
              "internalType": "int256[]",
              "name": "borrowFee",
              "type": "int256[]"
            },
            {
              "internalType": "uint256[]",
              "name": "time",
              "type": "uint256[]"
            },
            {
              "internalType": "string",
              "name": "pairSymbol",
              "type": "string"
            }
          ],
          "internalType": "struct OrderBook.AssetPairDetails",
          "name": "",
          "type": "tuple"
        }
      ],
      "stateMutability": "view",
      "type": "function"
    },
    {
      "inputs": [],
      "name": "getAssetPairIndexSymbol",
      "outputs": [
        {
          "internalType": "string[]",
          "name": "",
          "type": "string[]"
        }
      ],
      "stateMutability": "view",
      "type": "function"
    },
    {
      "inputs": [],
      "name": "getBaseBorrowFee",
      "outputs": [
        {
          "internalType": "int256",
          "name": "baseBorrowFee",
          "type": "int256"
        }
      ],
      "stateMutability": "view",
      "type": "function"
    },
    {
      "inputs": [],
      "name": "getBotRewardBase",
      "outputs": [
        {
          "internalType": "int256",
          "name": "botRewardsBase",
          "type": "int256"
        }
      ],
      "stateMutability": "view",
      "type": "function"
    },
    {
      "inputs": [],
      "name": "getBotRewardRate",
      "outputs": [
        {
          "internalType": "int256",
          "name": "botRewardsRate",
          "type": "int256"
        }
      ],
      "stateMutability": "view",
      "type": "function"
    },
    {
      "inputs": [
        {
          "internalType": "uint256",
          "name": "pairIndex",
          "type": "uint256"
        }
      ],
      "name": "getCurrentBorrowRate",
      "outputs": [
        {
          "internalType": "int256",
          "name": "",
          "type": "int256"
        }
      ],
      "stateMutability": "view",
      "type": "function"
    },
    {
      "inputs": [],
      "name": "getPythPriceFeedAddress",
      "outputs": [
        {
          "internalType": "address",
          "name": "",
          "type": "address"
        }
      ],
      "stateMutability": "view",
      "type": "function"
    },
    {
      "inputs": [],
      "name": "getTokenCollateralAddress",
      "outputs": [
        {
          "internalType": "address",
          "name": "",
          "type": "address"
        }
      ],
      "stateMutability": "view",
      "type": "function"
    },
    {
      "inputs": [
        {
          "internalType": "uint256",
          "name": "pairIndex",
          "type": "uint256"
        }
      ],
      "name": "getTotalLongAmount",
      "outputs": [
        {
          "internalType": "int256",
          "name": "",
          "type": "int256"
        }
      ],
      "stateMutability": "view",
      "type": "function"
    },
    {
      "inputs": [
        {
          "internalType": "uint256",
          "name": "pairIndex",
          "type": "uint256"
        }
      ],
      "name": "getTotalShortAmount",
      "outputs": [
        {
          "internalType": "int256",
          "name": "",
          "type": "int256"
        }
      ],
      "stateMutability": "view",
      "type": "function"
    },
    {
      "inputs": [
        {
          "internalType": "address",
          "name": "user",
          "type": "address"
        },
        {
          "internalType": "uint256",
          "name": "assetPairIndex",
          "type": "uint256"
        },
        {
          "internalType": "uint256",
          "name": "openTradesIdForPair",
          "type": "uint256"
        }
      ],
      "name": "getTradePositionBorrowFees",
      "outputs": [
        {
          "internalType": "int256",
          "name": "borrowFeeAmount",
          "type": "int256"
        }
      ],
      "stateMutability": "view",
      "type": "function"
    },
    {
      "inputs": [
        {
          "internalType": "bytes[]",
          "name": "priceUpdateData",
          "type": "bytes[]"
        },
        {
          "internalType": "uint256",
          "name": "pairIndex",
          "type": "uint256"
        }
      ],
      "name": "getTradingPairCurrentPrice",
      "outputs": [
        {
          "components": [
            {
              "internalType": "int64",
              "name": "price",
              "type": "int64"
            },
            {
              "internalType": "uint64",
              "name": "conf",
              "type": "uint64"
            },
            {
              "internalType": "int32",
              "name": "expo",
              "type": "int32"
            },
            {
              "internalType": "uint256",
              "name": "publishTime",
              "type": "uint256"
            }
          ],
          "internalType": "struct PythStructs.Price",
          "name": "",
          "type": "tuple"
        }
      ],
      "stateMutability": "payable",
      "type": "function"
    },
    {
      "inputs": [
        {
          "internalType": "address",
          "name": "user",
          "type": "address"
        },
        {
          "internalType": "uint256",
          "name": "assetPairIndex",
          "type": "uint256"
        },
        {
          "internalType": "uint256",
          "name": "openTradesIdForPair",
          "type": "uint256"
        }
      ],
      "name": "getUserLiquidationPrice",
      "outputs": [
        {
          "internalType": "int256",
          "name": "liquidationPrice",
          "type": "int256"
        },
        {
          "internalType": "int256",
          "name": "borrowFeeAmount",
          "type": "int256"
        }
      ],
      "stateMutability": "view",
      "type": "function"
    },
    {
      "inputs": [
        {
          "internalType": "address",
          "name": "user",
          "type": "address"
        },
        {
          "internalType": "uint256",
          "name": "pairIndex",
          "type": "uint256"
        }
      ],
      "name": "getUserOpenTradesForAsset",
      "outputs": [
        {
          "internalType": "uint256[3]",
          "name": "",
          "type": "uint256[3]"
        }
      ],
      "stateMutability": "view",
      "type": "function"
    },
    {
      "inputs": [
        {
          "internalType": "address",
          "name": "user",
          "type": "address"
        },
        {
          "internalType": "uint256",
          "name": "pairIndex",
          "type": "uint256"
        },
        {
          "internalType": "uint256",
          "name": "openTradesIdForPair",
          "type": "uint256"
        }
      ],
      "name": "getUserTradingPositionDetails",
      "outputs": [
        {
          "components": [
            {
              "internalType": "uint256",
              "name": "pairNumber",
              "type": "uint256"
            },
            {
              "internalType": "int256",
              "name": "openPrice",
              "type": "int256"
            },
            {
              "internalType": "int256",
              "name": "collateralAfterFee",
              "type": "int256"
            },
            {
              "internalType": "int256",
              "name": "leverage",
              "type": "int256"
            },
            {
              "internalType": "uint256",
              "name": "longShort",
              "type": "uint256"
            },
            {
              "internalType": "uint256",
              "name": "openTime",
              "type": "uint256"
            },
            {
              "internalType": "uint256",
              "name": "indexBorrowPercentArray",
              "type": "uint256"
            }
          ],
          "internalType": "struct OrderBook.PositionDetails",
          "name": "",
          "type": "tuple"
        }
      ],
      "stateMutability": "view",
      "type": "function"
    },
    {
      "inputs": [
        {
          "internalType": "uint256",
          "name": "pairIndex",
          "type": "uint256"
        },
        {
          "internalType": "int256",
          "name": "amountCollateral",
          "type": "int256"
        },
        {
          "internalType": "int256",
          "name": "leverage",
          "type": "int256"
        },
        {
          "internalType": "uint256",
          "name": "orderType",
          "type": "uint256"
        },
        {
          "internalType": "int256",
          "name": "targetPrice",
          "type": "int256"
        }
      ],
      "name": "limitOrder",
      "outputs": [],
      "stateMutability": "payable",
      "type": "function"
    },
    {
      "inputs": [
        {
          "internalType": "address",
          "name": "user",
          "type": "address"
        },
        {
          "internalType": "uint256",
          "name": "pairIndex",
          "type": "uint256"
        },
        {
          "internalType": "uint256",
          "name": "userTradesIdForPair",
          "type": "uint256"
        },
        {
          "internalType": "bytes[]",
          "name": "priceUpdateData",
          "type": "bytes[]"
        }
      ],
      "name": "liquidateUser",
      "outputs": [],
      "stateMutability": "payable",
      "type": "function"
    },
    {
      "inputs": [
        {
          "internalType": "uint256",
          "name": "pairIndex",
          "type": "uint256"
        },
        {
          "internalType": "int256",
          "name": "amountCollateral",
          "type": "int256"
        },
        {
          "internalType": "int256",
          "name": "leverage",
          "type": "int256"
        },
        {
          "internalType": "uint256",
          "name": "orderType",
          "type": "uint256"
        },
        {
          "internalType": "bytes[]",
          "name": "priceUpdateData",
          "type": "bytes[]"
        }
      ],
      "name": "marketOrder",
      "outputs": [],
      "stateMutability": "payable",
      "type": "function"
    },
    {
      "inputs": [
        {
          "internalType": "uint256",
          "name": "pairIndex",
          "type": "uint256"
        },
        {
          "internalType": "uint256",
          "name": "userTradesIdForPair",
          "type": "uint256"
        },
        {
          "internalType": "bytes[]",
          "name": "priceUpdateData",
          "type": "bytes[]"
        }
      ],
      "name": "orderClose",
      "outputs": [],
      "stateMutability": "payable",
      "type": "function"
    },
    {
      "inputs": [],
      "name": "owner",
      "outputs": [
        {
          "internalType": "address",
          "name": "",
          "type": "address"
        }
      ],
      "stateMutability": "view",
      "type": "function"
    },
    {
      "inputs": [],
      "name": "renounceOwnership",
      "outputs": [],
      "stateMutability": "nonpayable",
      "type": "function"
    },
    {
      "inputs": [
        {
          "internalType": "int256",
          "name": "newBaseBorrowFeePercentage",
          "type": "int256"
        }
      ],
      "name": "setBaseBorrowFeePercentage",
      "outputs": [],
      "stateMutability": "nonpayable",
      "type": "function"
    },
    {
      "inputs": [
        {
          "internalType": "int256",
          "name": "newBotRewardsRate",
          "type": "int256"
        }
      ],
      "name": "setBotRewardsRate",
      "outputs": [],
      "stateMutability": "nonpayable",
      "type": "function"
    },
    {
      "inputs": [
        {
          "internalType": "int256",
          "name": "newBotRewardsBase",
          "type": "int256"
        }
      ],
      "name": "setBotsRewardsBase",
      "outputs": [],
      "stateMutability": "nonpayable",
      "type": "function"
    },
    {
      "inputs": [
        {
          "internalType": "address",
          "name": "newCollateralTokenAddress",
          "type": "address"
        }
      ],
      "name": "setCollateralTokenAddress",
      "outputs": [],
      "stateMutability": "nonpayable",
      "type": "function"
    },
    {
      "inputs": [
        {
          "internalType": "int256",
          "name": "newSlippageLimit",
          "type": "int256"
        }
      ],
      "name": "setLimitOrderMaxSlippage",
      "outputs": [],
      "stateMutability": "nonpayable",
      "type": "function"
    },
    {
      "inputs": [
        {
          "internalType": "int256",
          "name": "newMaxBorrowInterestRate",
          "type": "int256"
        }
      ],
      "name": "setMaxBorrowInterestRate",
      "outputs": [],
      "stateMutability": "nonpayable",
      "type": "function"
    },
    {
      "inputs": [
        {
          "internalType": "uint256",
          "name": "pairIndex",
          "type": "uint256"
        },
        {
          "internalType": "int256",
          "name": "newMaxOpenInterest",
          "type": "int256"
        }
      ],
      "name": "setMaxOpenInterestForPair",
      "outputs": [],
      "stateMutability": "nonpayable",
      "type": "function"
    },
    {
      "inputs": [
        {
          "internalType": "int256",
          "name": "newMinTradeSize",
          "type": "int256"
        }
      ],
      "name": "setMinTradeSize",
      "outputs": [],
      "stateMutability": "nonpayable",
      "type": "function"
    },
    {
      "inputs": [
        {
          "internalType": "int256",
          "name": "newOpeningFeePercent",
          "type": "int256"
        }
      ],
      "name": "setOpeningFee",
      "outputs": [],
      "stateMutability": "nonpayable",
      "type": "function"
    },
    {
      "inputs": [
        {
          "internalType": "int256",
          "name": "newVariableBorrowFeePercentage",
          "type": "int256"
        }
      ],
      "name": "setVariableBorrowFeePercentage",
      "outputs": [],
      "stateMutability": "nonpayable",
      "type": "function"
    },
    {
      "inputs": [
        {
          "internalType": "address",
          "name": "newOwner",
          "type": "address"
        }
      ],
      "name": "transferOwnership",
      "outputs": [],
      "stateMutability": "nonpayable",
      "type": "function"
    },
    {
      "inputs": [],
      "name": "withdrawBotRewards",
      "outputs": [],
      "stateMutability": "nonpayable",
      "type": "function"
    },
    {
      "inputs": [
        {
          "internalType": "address",
          "name": "tokenAddress",
          "type": "address"
        },
        {
          "internalType": "uint256",
          "name": "amount",
          "type": "uint256"
        }
      ],
      "name": "withdrawErc20Token",
      "outputs": [],
      "stateMutability": "nonpayable",
      "type": "function"
    },
    {
      "inputs": [
        {
          "internalType": "address payable",
          "name": "_to",
          "type": "address"
        }
      ],
      "name": "withdrawEth",
      "outputs": [],
      "stateMutability": "payable",
      "type": "function"
    }
  ],
  "bytecode": {
    "object": "0x6080604052611d4c6004556102586005556064600655612710600755685150ae84a8cdf000006008556005600955671bc16d674ec80000600a556000600b553480156200004b57600080fd5b50604051620049af380380620049af8339810160408190526200006e9162000431565b60016000556200007e33620001d5565b8151845114620000a15760405163f102e13760e01b815260040160405180910390fd5b8051825114620000c45760405163f102e13760e01b815260040160405180910390fd5b600380546001600160a01b038088166001600160a01b0319928316179092558551600c55600280549289169290911691909117905560005b8451811015620001c8578481815181106200011b576200011b6200050f565b6020026020010151600d6000838152602001908152602001600020600001819055508181815181106200015257620001526200050f565b6020026020010151600d600083815260200190815260200160002060060190816200017e9190620005b4565b508381815181106200019457620001946200050f565b6020908102919091018101516000838152600d90925260409091206003015580620001bf8162000680565b915050620000fc565b50505050505050620006a8565b600180546001600160a01b038381166001600160a01b0319831681179093556040519116919082907f8be0079c531659141344cd1fd0a4f28419497f9722a3daafe3b4186f6b6457e090600090a35050565b80516001600160a01b03811681146200023f57600080fd5b919050565b634e487b7160e01b600052604160045260246000fd5b604051601f8201601f191681016001600160401b038111828210171562000285576200028562000244565b604052919050565b60006001600160401b03821115620002a957620002a962000244565b5060051b60200190565b600082601f830112620002c557600080fd5b81516020620002de620002d8836200028d565b6200025a565b82815260059290921b84018101918181019086841115620002fe57600080fd5b8286015b848110156200031b578051835291830191830162000302565b509695505050505050565b6000601f83818401126200033957600080fd5b825160206200034c620002d8836200028d565b82815260059290921b850181019181810190878411156200036c57600080fd5b8287015b84811015620004255780516001600160401b0380821115620003925760008081fd5b818a0191508a603f830112620003a85760008081fd5b8582015181811115620003bf57620003bf62000244565b620003d2818a01601f191688016200025a565b915080825260408c81838601011115620003ec5760008081fd5b60005b828110156200040c578481018201518482018a01528801620003ef565b5050600090820187015284525091830191830162000370565b50979650505050505050565b60008060008060008060c087890312156200044b57600080fd5b620004568762000227565b9550620004666020880162000227565b60408801519095506001600160401b03808211156200048457600080fd5b620004928a838b01620002b3565b95506060890151915080821115620004a957600080fd5b620004b78a838b01620002b3565b94506080890151915080821115620004ce57600080fd5b620004dc8a838b01620002b3565b935060a0890151915080821115620004f357600080fd5b506200050289828a0162000326565b9150509295509295509295565b634e487b7160e01b600052603260045260246000fd5b600181811c908216806200053a57607f821691505b6020821081036200055b57634e487b7160e01b600052602260045260246000fd5b50919050565b601f821115620005af57600081815260208120601f850160051c810160208610156200058a5750805b601f850160051c820191505b81811015620005ab5782815560010162000596565b5050505b505050565b81516001600160401b03811115620005d057620005d062000244565b620005e881620005e1845462000525565b8462000561565b602080601f831160018114620006205760008415620006075750858301515b600019600386901b1c1916600185901b178555620005ab565b600085815260208120601f198616915b82811015620006515788860151825594840194600190910190840162000630565b5085821015620006705787850151600019600388901b60f8161c191681555b5050505050600190811b01905550565b600060018201620006a157634e487b7160e01b600052601160045260246000fd5b5060010190565b6142f780620006b86000396000f3fe6080604052600436106102305760003560e01c80639ed6b9201161012e578063d6ef8f82116100ab578063eee2b6761161006f578063eee2b676146106c2578063f2fde38b146106e2578063fa79440314610702578063fb8fbe1f14610720578063fc5dac381461074057600080fd5b8063d6ef8f8214610620578063d928e33614610640578063dfdc329f14610653578063e628a0ee14610673578063ee9387de146106a057600080fd5b8063b8ed2eb4116100f2578063b8ed2eb41461057a578063c01646cb1461059a578063c700b0aa146105b8578063c7c529a7146105d8578063ca3e8257146105eb57600080fd5b80639ed6b920146104bd578063a829f21d146104dd578063ab48a23a1461050d578063b0a880751461052d578063b8a077a51461055a57600080fd5b80634b16d1bc116101bc5780636698f988116101805780636698f9881461042c578063715018a614610441578063894b75cc146104565780638da5cb5b1461047657806399484b41146104a857600080fd5b80634b16d1bc1461036f5780634c70fb6d146103845780634fae32e71461039757806350c3cdc3146103ec5780635ed4d25e1461041957600080fd5b806325e160631161020357806325e16063146102f45780633486f7561461030757806337855bb7146103275780633eb0ef2c1461033a57806343b3b9081461034f57600080fd5b80630188d57914610235578063061ff1f0146102785780631b5042ac146102a55780631ec3cdc7146102d2575b600080fd5b34801561024157600080fd5b50610265610250366004613835565b6000908152600d602052604090206001015490565b6040519081526020015b60405180910390f35b34801561028457600080fd5b50610298610293366004613863565b610760565b60405161026f919061388f565b3480156102b157600080fd5b506102c56102c0366004613835565b6107bf565b60405161026f9190613941565b3480156102de57600080fd5b506102f26102ed3660046139f1565b610985565b005b6102f2610302366004613a13565b6109cf565b34801561031357600080fd5b506102f26103223660046139f1565b610a4f565b6102f2610335366004613a7b565b610b4d565b34801561034657600080fd5b50600554610265565b34801561035b57600080fd5b506102f261036a366004613835565b610de3565b34801561037b57600080fd5b50600b54610265565b6102f2610392366004613ae4565b610e20565b6103aa6103a5366004613b4d565b61114d565b60405161026f9190815160070b81526020808301516001600160401b03169082015260408083015160030b908201526060918201519181019190915260800190565b3480156103f857600080fd5b5061040c610407366004613a13565b6112d7565b60405161026f9190613bdc565b6102f2610427366004613c10565b61140c565b34801561043857600080fd5b506102f26117f8565b34801561044d57600080fd5b506102f261191e565b34801561046257600080fd5b506102f2610471366004613835565b611932565b34801561048257600080fd5b506001546001600160a01b03165b6040516001600160a01b03909116815260200161026f565b3480156104b457600080fd5b50600a54610265565b3480156104c957600080fd5b506102f26104d8366004613863565b61196d565b3480156104e957600080fd5b506102656104f8366004613835565b6000908152600d602052604090206002015490565b34801561051957600080fd5b506102f2610528366004613835565b611a0e565b34801561053957600080fd5b5061054d610548366004613c4b565b611a4b565b60405161026f9190613c80565b34801561056657600080fd5b50610265610575366004613835565b611b09565b34801561058657600080fd5b506102f2610595366004613835565b611cd5565b3480156105a657600080fd5b506002546001600160a01b0316610490565b3480156105c457600080fd5b506102f26105d3366004613a13565b611d12565b6102f26105e6366004613ae4565b611d66565b3480156105f757600080fd5b5061060b610606366004613c4b565b611ff5565b6040805192835260208301919091520161026f565b34801561062c57600080fd5b506102f261063b366004613835565b612247565b6102f261064e366004613c8e565b612284565b34801561065f57600080fd5b5061026561066e366004613c4b565b61255f565b34801561067f57600080fd5b5061069361068e366004613a13565b612653565b60405161026f9190613ce0565b3480156106ac57600080fd5b506106b5612779565b60405161026f9190613d49565b3480156106ce57600080fd5b506102f26106dd366004613835565b6128aa565b3480156106ee57600080fd5b506102f26106fd366004613a13565b6128f3565b34801561070e57600080fd5b506003546001600160a01b0316610490565b34801561072c57600080fd5b506102f261073b366004613835565b612969565b34801561074c57600080fd5b506102f261075b366004613835565b6129a6565b610768613717565b6001600160a01b0383166000908152600f6020908152604080832085845290915290819020815160608101928390529160039082845b81548152602001906001019080831161079e57505050505090505b92915050565b6108026040518060e00160405280600080191681526020016000815260200160008152602001600081526020016060815260200160608152602001606081525090565b6000828152600d6020908152604091829020825160e0810184528154815260018201548184015260028201548185015260038201546060820152600482018054855181860281018601909652808652919492936080860193929083018282801561088b57602002820191906000526020600020905b815481526020019060010190808311610877575b50505050508152602001600582018054806020026020016040519081016040528092919081815260200182805480156108e357602002820191906000526020600020905b8154815260200190600101908083116108cf575b505050505081526020016006820180546108fc90613dab565b80601f016020809104026020016040519081016040528092919081815260200182805461092890613dab565b80156109755780601f1061094a57610100808354040283529160200191610975565b820191906000526020600020905b81548152906001019060200180831161095857829003601f168201915b5050505050815250509050919050565b61098d6129e3565b6000828152600d602052604080822060030183905551829184917fc367f8e1d2bee7f280ba56fece7aca3231c37fff84e5338da9fe46d7bfa610e89190a35050565b6109d76129e3565b6000816001600160a01b03164760405160006040518083038185875af1925050503d8060008114610a24576040519150601f19603f3d011682016040523d82523d6000602084013e610a29565b606091505b5050905080610a4b57604051630c74658f60e01b815260040160405180910390fd5b5050565b610a57612a3d565b33600090815260126020908152604080832085845282528083208484529091528120600501549003610a9c57604051636262e75b60e01b815260040160405180910390fd5b33600090815260116020908152604080832085845290915281208260038110610ac757610ac7613ddf565b0155336000818152601260209081526040808320868452825280832085845290915280822080546001600160a01b031916815560018101839055600281018390556003810183905560048101839055600501829055518492917f8e9a975d82772676f9e1410cd245c4d0edbd03777c7cbc28029630450389169891a3610a4b6001600055565b6000868152600d60205260408120543391879187918a91889103610b8357604051621bca5160e61b815260040160405180910390fd5b8015801590610b93575080600114155b15610bb1576040516302763ae360e11b815260040160405180910390fd5b831580610bbc575082155b15610bda57604051637018737760e11b815260040160405180910390fd5b600854620f4240610beb8587613e0b565b610bf59190613e51565b1215610c1457604051633af9eaa560e01b815260040160405180910390fd5b80158015610c5a57506000828152600d602052604090206002810154600390910154610c409190613e7f565b620f4240610c4e8587613e0b565b610c589190613e51565b135b15610c785760405163e72486b360e01b815260040160405180910390fd5b806001148015610cc057506000828152600d602052604090206001810154600390910154610ca69190613e7f565b620f4240610cb48587613e0b565b610cbe9190613e51565b135b15610cde57604051630a7f135360e41b815260040160405180910390fd5b3360009081526011602090815260408083208584529091529020600390610d0490612a96565b6001600160a01b0387166000908152600f602090815260408083208784529091529020610d3090612a96565b610d3a9190613e9f565b10610d58576040516306152e2f60e11b815260040160405180910390fd5b6308f0d180831315610d7d57604051635694d08560e11b815260040160405180910390fd5b610d85612a3d565b610d9033308c612ad5565b610d9f338c8c8c8c8c8c612b7b565b6040518b9033907f02c61321c808585dc6593befb37f9909ee37888b439a1990c568e475dddb765590600090a3610dd66001600055565b5050505050505050505050565b610deb6129e3565b600b819055604051819033907f09a08cd5853e458b94e9c3e2a7b740876d700bc31a743f9ee135a345ca3dfdf390600090a350565b6001600160a01b0385166000908152600e60209081526040808320878452825280832086845290915281206001015486918691869103610e7357604051638177d6b960e01b815260040160405180910390fd5b610e7b612a3d565b6001600160a01b0388166000908152600e602090815260408083208a845282528083208984528252808320815160e081018352815481526001820154938101939093526002810154918301919091526003810154606083015260048101546080830152600581015460a08301526006015460c082015290610eff8a838a8a8a612d6b565b905060008113611116576001600160a01b038a166000908152600e602090815260408083208551845282528083208b845290915280822082815560018101839055600281018390556003810183905560048101839055600581018390556006019190915560808301518351606085015192850151610f9793620f424091610f869190613e0b565b610f909190613e51565b6000612f65565b6000898152600d6020908152604082206005018054600181018255908352912042910155610fc489613085565b6001600160a01b038a166000908152600f602090815260408083208c845290915281208960038110610ff857610ff8613ddf565b01556001600160a01b038a166000908152600f60209081526040808320855184529091528120896003811061102f5761102f613ddf565b015560608201516040830151600b54620f4240929161104d91613e0b565b6110579190613e0b565b6110619190613e51565b600a5461106e9190613eb2565b336000908152601060205260408120805490919061108d908490613e9f565b9091555050815160408051918252602082018a90526001600160a01b038c16917fc49f1669c07127f11fd504cf7a83840a741e5646b0106157f132141762372513910160405180910390a281516040518291906001600160a01b038d16907f6273f181fac9230780c36df1cc086e5607a2fb9efc370b4b505947cf6ea95ea690600090a4611137565b6040516313d19c2b60e31b8152600481018290526024015b60405180910390fd5b50506111436001600055565b5050505050505050565b60408051608081018252600080825260208201819052918101829052606081019190915260025460405163d47eed4560e01b81526000916001600160a01b03169063d47eed45906111a49088908890600401613f03565b602060405180830381865afa1580156111c1573d6000803e3d6000fd5b505050506040513d601f19601f820116820180604052508101906111e59190613f9e565b600254604051631df3cbc560e31b81529192506001600160a01b03169063ef9e5e2890839061121a9089908990600401613f03565b6000604051808303818588803b15801561123357600080fd5b505af1158015611247573d6000803e3d6000fd5b50506002546000878152600d60205260408082205490516331d98b3f60e01b815260048101919091529094506001600160a01b0390911692506331d98b3f9150602401608060405180830381865afa1580156112a7573d6000803e3d6000fd5b505050506040513d601f19601f820116820180604052508101906112cb9190613ffb565b925050505b9392505050565b6112df613735565b6112e7613735565b60005b60058110156114055760005b60038110156113f2576001600160a01b0385166000908152600e602090815260408083208584528252808320848452909152902060030154156113e05760008161134184600361408a565b61134b9190613e9f565b6001600160a01b0387166000908152600e602090815260408083208784528252808320868452825291829020825160e081018452815481526001820154928101929092526002810154928201929092526003820154606082015260048201546080820152600582015460a082015260069091015460c08201529091508482600f81106113d9576113d9613ddf565b6020020152505b806113ea816140a1565b9150506112f6565b50806113fd816140a1565b9150506112ea565b5092915050565b6000858152600d6020526040812054339186918691899187910361144257604051621bca5160e61b815260040160405180910390fd5b8015801590611452575080600114155b15611470576040516302763ae360e11b815260040160405180910390fd5b83158061147b575082155b1561149957604051637018737760e11b815260040160405180910390fd5b600854620f42406114aa8587613e0b565b6114b49190613e51565b12156114d357604051633af9eaa560e01b815260040160405180910390fd5b8015801561151957506000828152600d6020526040902060028101546003909101546114ff9190613e7f565b620f424061150d8587613e0b565b6115179190613e51565b135b156115375760405163e72486b360e01b815260040160405180910390fd5b80600114801561157f57506000828152600d6020526040902060018101546003909101546115659190613e7f565b620f42406115738587613e0b565b61157d9190613e51565b135b1561159d57604051630a7f135360e41b815260040160405180910390fd5b33600090815260116020908152604080832085845290915290206003906115c390612a96565b6001600160a01b0387166000908152600f6020908152604080832087845290915290206115ef90612a96565b6115f99190613e9f565b10611617576040516306152e2f60e11b815260040160405180910390fd5b6308f0d18083131561163c57604051635694d08560e11b815260040160405180910390fd5b611644612a3d565b6000861361166557604051630390ef6d60e61b815260040160405180910390fd5b3360009081526011602090815260408083208d84529091528120611688906132be565b905061169533308c612ad5565b3360009081526011602090815260408083208e8452909152902060019082600381106116c3576116c3613ddf565b01556040805160c081018252338152602081018d9052600a5490918201906116eb908d613e7f565b81526020018a81526020018981526020018881525060126000336001600160a01b03166001600160a01b0316815260200190815260200160002060008d8152602001908152602001600020600083815260200190815260200160002060008201518160000160006101000a8154816001600160a01b0302191690836001600160a01b031602179055506020820151816001015560408201518160020155606082015181600301556080820151816004015560a08201518160050155905050808b336001600160a01b03167f2d027c1cd1189e82f9dccbf4b523ff423a494be88b02c6d580400d0b0971e25c60405160405180910390a4506117ec6001600055565b50505050505050505050565b336000818152601060205260408120549003611827576040516321a5c60960e21b815260040160405180910390fd5b61182f612a3d565b3360008181526010602052604080822080549083905560035491516323b872dd60e01b8152306004820152602481019490945260448401819052926001600160a01b03909116906323b872dd906064016020604051808303816000875af115801561189e573d6000803e3d6000fd5b505050506040513d601f19601f820116820180604052508101906118c291906140ba565b9050806118e257604051630c74658f60e01b815260040160405180910390fd5b604051829033907f76f16872f39a52b614b047175768d06df48efa19020f1d0e066515817f97aa6290600090a3505061191b6001600055565b50565b6119266129e3565b61193060006132fc565b565b61193a6129e3565b600981905560405181907fcb4f67549242f3f8ad9b38b323240760dec385f9a12af3987bfadeaeabdca95290600090a250565b6119756129e3565b60405163a9059cbb60e01b8152336004820152602481018290526000906001600160a01b0384169063a9059cbb906044016020604051808303816000875af11580156119c5573d6000803e3d6000fd5b505050506040513d601f19601f820116820180604052508101906119e991906140ba565b905080611a0957604051630c74658f60e01b815260040160405180910390fd5b505050565b611a166129e3565b6005819055604051819033907f4edf89908de270aa88947c979c2c8988831490f7da4fa3c2a85f63c591256dda90600090a350565b611a8b6040518060e00160405280600081526020016000815260200160008152602001600081526020016000815260200160008152602001600081525090565b506001600160a01b03929092166000908152600e60209081526040808320938352928152828220938252928352819020815160e081018352815481526001820154938101939093526002810154918301919091526003810154606083015260048101546080830152600581015460a08301526006015460c082015290565b6000818152600d60209081526040808320815160e081018352815481526001820154818501526002820154818401526003820154606082015260048201805484518187028101870190955280855286959294608086019390929190830182828015611b9357602002820191906000526020600020905b815481526020019060010190808311611b7f575b5050505050815260200160058201805480602002602001604051908101604052809291908181526020018280548015611beb57602002820191906000526020600020905b815481526020019060010190808311611bd7575b50505050508152602001600682018054611c0490613dab565b80601f0160208091040260200160405190810160405280929190818152602001828054611c3090613dab565b8015611c7d5780601f10611c5257610100808354040283529160200191611c7d565b820191906000526020600020905b815481529060010190602001808311611c6057829003601f168201915b50505050508152505090506000816080015151905080600003611ca4575060009392505050565b6080820151611cb46001836140dc565b81518110611cc457611cc4613ddf565b602002602001015192505050919050565b611cdd6129e3565b600a819055604051819033907fdb7c774d897a6a77bf5d60cf960bf7bb323e10270b93345c1a63eba5205a880b90600090a350565b611d1a6129e3565b600380546001600160a01b0319166001600160a01b03831690811790915560405133907fa99c2dd2e7b321e9734aede5fc2a795ab9fc50063aad4d70060dfc01a35fa84790600090a350565b611d6e612a3d565b6001600160a01b038516600090815260126020908152604080832087845282528083208684529091528120600501549003611dbc57604051636262e75b60e01b815260040160405180910390fd5b6001600160a01b03851660008181526012602090815260408083208884528252808320878452825280832060028101805460038301805460058501805460048701805488546001600160a01b031916895560019098018b9055958a9055928990559388905592879055968652600f85528386208b8752909452918420929491939192909190611e4a906132be565b9050611e5b8a8a8787868c8c612b7b565b6001600160a01b038a166000908152600e602090815260408083208c84528252808320848452909152812060010154600290611e98908690613eb2565b611ea29190613e51565b6001600160a01b038c166000908152600e602090815260408083208e84528252808320868452909152902060010154611edc908690613e7f565b611ee7906064613e0b565b611ef19190613e51565b905082600003611f2357600954811315611f1e5760405163255c88bb60e01b815260040160405180910390fd5b611f52565b600954611f3290600019613e0b565b811215611f525760405163255c88bb60e01b815260040160405180910390fd5b3360009081526011602090815260408083208d845290915281208a60038110611f7d57611f7d613ddf565b0155600a543360009081526010602052604081208054909190611fa1908490613e9f565b90915550506040518a906001600160a01b038d169033907fb5ca91f179d3667a011d3320d3c80baa2ec1cbace1dc91f985bcb766c06d994190600090a4505050505050611fee6001600055565b5050505050565b6001600160a01b0383166000908152600e6020908152604080832085845282528083208484529091528120600101548190859085908590840361204b57604051638177d6b960e01b815260040160405180910390fd5b6001600160a01b0388166000908152600e602090815260408083208a845282528083208984528252808320815160e0810183528154815260018201549381019390935260028101549183019190915260038101546060830152600481015460808301819052600582015460a084015260069091015460c08301529091906120d6908b908b908b61334e565b9050610e106120eb62989680620f4240613e0b565b6120f59190613e0b565b826060015183604001516121099190613e0b565b60a084015161211890426140dc565b6121229084613e0b565b61212c9190613e0b565b6121369190613e51565b955081608001516000036121bd576060820151612156620f424088613e0b565b6121609190613e51565b620f424083606001516121739190613e7f565b6060840151602085015161218a90620f4240613e0b565b6121949190613e51565b61219e9190613e0b565b6121aa90612710613e0b565b6121b49190613eb2565b9650505061223c565b81608001516001036122395760608201516121db620f424088613e0b565b6121e59190613e51565b620f424083606001516121f89190613eb2565b6060840151602085015161220f90620f4240613e0b565b6122199190613e51565b6122239190613e0b565b61222f90612710613e0b565b6121b49190613e7f565b50505b505050935093915050565b61224f6129e3565b6006819055604051819033907f279d43723892d10e0136d5738a51dd6e241ed079ed997fc0a9b66e6246dcd34890600090a350565b336000818152600e6020908152604080832088845282528083208784529091528120600101548691869190036122cd57604051638177d6b960e01b815260040160405180910390fd5b6122d5612a3d565b336000818152600e602090815260408083208b845282528083208a84528252808320815160e081018352815481526001820154938101939093526002810154918301919091526003810154606083015260048101546080830152600581015460a08301526006015460c08201529161235090838a8a8a612d6b565b9050612364826040015183606001516135cd565b61236e9082613e7f565b336000818152600e602090815260408083208751845282528083208d845282528083208381556001810184905560028101849055600380820185905560048201859055600582018590556006909101849055938352600f82528083208e8452909152812092935091908a9081106123e7576123e7613ddf565b018190555061240d82608001518a620f424085606001518660400151610f869190613e0b565b6000898152600d602090815260408220600501805460018101825590835291204291015561243a89613085565b60008113156124e05760035460405163a9059cbb60e01b81523360048201526024810183905282916000916001600160a01b039091169063a9059cbb906044016020604051808303816000875af1158015612499573d6000803e3d6000fd5b505050506040513d601f19601f820116820180604052508101906124bd91906140ba565b9050806124dd57604051630c74658f60e01b815260040160405180910390fd5b50505b815160405189815233907fdd1bdc77e3cc244141600de256428e5a4fa93f9ba200229891d49111390692229060200160405180910390a3604080830151905182919033907fe2889aa4e56753325b73a4d82d6d22cfd1804ae240948c18de1fef0ea3a22a0d90600090a450506125566001600055565b50505050505050565b6001600160a01b0383166000908152600e6020908152604080832085845282528083208484528252808320815160e0810183528154815260018201549381019390935260028101549183019190915260038101546060830152600481015460808301819052600582015460a084015260069091015460c083015282906125e990879087908761334e565b9050610e106125fe62989680620f4240613e0b565b6126089190613e0b565b8260600151836040015161261c9190613e0b565b60a084015161262b90426140dc565b6126359084613e0b565b61263f9190613e0b565b6126499190613e51565b9695505050505050565b61265b61379b565b61266361379b565b60005b60058110156114055760005b6003811015612766576001600160a01b0385166000908152601260209081526040808320858452825280832084845290915290206005015415612754576000816126bd84600361408a565b6126c79190613e9f565b6001600160a01b0380881660009081526012602090815260408083208884528252808320878452825291829020825160c0810184528154909416845260018101549184019190915260028101549183019190915260038101546060830152600481015460808301526005015460a08201529091508482600f811061274d5761274d613ddf565b6020020152505b8061275e816140a1565b915050612672565b5080612771816140a1565b915050612666565b60606000600c546001600160401b0381111561279757612797613fb7565b6040519080825280602002602001820160405280156127ca57816020015b60608152602001906001900390816127b55790505b50905060005b600c548110156128a4576000818152600d6020526040902060060180546127f690613dab565b80601f016020809104026020016040519081016040528092919081815260200182805461282290613dab565b801561286f5780601f106128445761010080835404028352916020019161286f565b820191906000526020600020905b81548152906001019060200180831161285257829003601f168201915b505050505082828151811061288657612886613ddf565b6020026020010181905250808061289c906140a1565b9150506127d0565b50919050565b6128b26129e3565b600481905560408051338152602081018390527fc9efb4e68e13bfdb30aeb0a7d43fae359a9de193cf2b71a9e35a287078a1ffe2910160405180910390a150565b6128fb6129e3565b6001600160a01b0381166129605760405162461bcd60e51b815260206004820152602660248201527f4f776e61626c653a206e6577206f776e657220697320746865207a65726f206160448201526564647265737360d01b606482015260840161112e565b61191b816132fc565b6129716129e3565b6008819055604051819033907fbb9bc6316da017b8faa91999773f59fe52449c5bc016cee9ba81e12133b8c3fc90600090a350565b6129ae6129e3565b6007819055604051819033907faca235ebf6db7deecaf2994795c8d532afd1b2bec396708e78d8971f854e7d9990600090a350565b6001546001600160a01b031633146119305760405162461bcd60e51b815260206004820181905260248201527f4f776e61626c653a2063616c6c6572206973206e6f7420746865206f776e6572604482015260640161112e565b600260005403612a8f5760405162461bcd60e51b815260206004820152601f60248201527f5265656e7472616e637947756172643a207265656e7472616e742063616c6c00604482015260640161112e565b6002600055565b6000805b60038110156128a457828160038110612ab557612ab5613ddf565b0154612ac19083613e9f565b915080612acd816140a1565b915050612a9a565b6003546040516323b872dd60e01b81526001600160a01b03858116600483015284811660248301526044820184905260009216906323b872dd906064016020604051808303816000875af1158015612b31573d6000803e3d6000fd5b505050506040513d601f19601f82011682018060405250810190612b5591906140ba565b905080612b7557604051630c74658f60e01b815260040160405180910390fd5b50505050565b6000612b8786866135cd565b612b919087613e7f565b6001600160a01b0389166000908152600f602090815260408083208b8452909152812091925090612bc1906132be565b6001600160a01b038a166000908152600f602090815260408083208c845290915290209091506001908260038110612bfb57612bfb613ddf565b0155612c218589620f4240612c108a87613e0b565b612c1a9190613e51565b6001612f65565b6000888152600d6020908152604082206005018054600181018255908352912042910155612c4e88613085565b6000612c5b85858b61114d565b90506000612c6b87836000613606565b90506040518060e001604052808b8152602001828152602001858152602001898152602001888152602001836060015181526020016001600d60008e815260200190815260200160002060050180549050612cc691906140dc565b90526001600160a01b038c166000818152600e602090815260408083208f84528252808320888452825280832085518155918501516001830155848101516002830155606085015160038301556080850151600483015560a0850151600583015560c090940151600690910155915185928d92917f06815e86fb14e66bb1dc3a385520944e53d97411395ddb32ef15afe1178191fd9190a45050505050505050505050565b600080612d7d8484886000015161114d565b90506000612d9588886000015189608001518961334e565b905060006064610e10612dae620f424062989680613e0b565b612db89190613e0b565b612dc29190613e0b565b60648960a0015142612dd491906140dc565b60408b015160608c0151612de89087613e0b565b612df29190613e0b565b612dfc9190613e0b565b612e069190613e0b565b612e109190613e51565b9050600080612e258a60800151866001613606565b8a60200151612e349190613e7f565b60405190915081907f7ffc13b25ce79fee35573354594e873bbe43761fc8ba593ed828116ab2a4523d90600090a28960800151600003612ec757620f42408a602001518b60400151838d60600151612e8c9190613e0b565b612e969190613e0b565b612ea09190613e51565b612eaa9190613e51565b838b60400151612eba9190613e7f565b612ec49190613e7f565b91505b8960800151600103612f2c57620f42408a602001518b60400151838d60600151612ef19190613e0b565b612efb9190613e0b565b612f059190613e51565b612f0f9190613e51565b838b60400151612f1f9190613e7f565b612f299190613eb2565b91505b60405182907f516ea507b82ab198d7e651c9242f8a7aa3f5eabc5f35c803a27394c57cd8b24390600090a2509998505050505050505050565b83600003612fc6578015612f9f576000838152600d602052604081206002018054849290612f94908490613eb2565b90915550612fc69050565b6000838152600d602052604081206002018054849290612fc0908490613e7f565b90915550505b83600103613027578015613000576000838152600d602052604081206001018054849290612ff5908490613eb2565b909155506130279050565b6000838152600d602052604081206001018054849290613021908490613e7f565b90915550505b6000838152600d602052604090819020600281015460019091015491517f942bc6d740ed3e211cd49465dc53eaab030a9245f4c31b365d2e355fa20b2e4292613077928252602082015260400190565b60405180910390a150505050565b6000818152600d60205260408120600201541580156130b357506000828152600d6020526040902060010154155b156130f7576000828152600d602052604081206130d591600590910190613803565b6000828152600d602052604081206130f291600490910190613803565b613256565b6000828152600d60205260408120600201549003613152576000828152600d60205260409020600381015460019091015460075461313790600019613e0b565b6131419190613e0b565b61314b9190613e51565b9050613256565b6000828152600d60205260408120600101549003613190576000828152600d6020526040902060038101546002909101546007546131419190613e0b565b6000828152600d6020526040902060018181015460029092015490916131b591613e51565b13156131e1576000828152600d6020526040902060018101546002909101546006546131419190613e0b565b6000828152600d60205260409020600181810154600290920154909161320691613e51565b1215613234576000828152600d60205260409020600281015460019091015460065461313790600019613e0b565b6000828152600d60205260409020600181015460029091015403613256575060005b6000828152600d60209081526040808320600401805460018101825581855292842090920184905591849052905183917f9b6e0867c2485b2217b074bced73d5217ac7fca2d555047bdf3c9b5016a43f3e916132b291906140ef565b60405180910390a25050565b6000805b60038110156128a4578281600381106132dd576132dd613ddf565b01546000036132ea578091505b806132f4816140a1565b9150506132c2565b600180546001600160a01b038381166001600160a01b0319831681179093556040519116919082907f8be0079c531659141344cd1fd0a4f28419497f9722a3daafe3b4186f6b6457e090600090a35050565b6000838152600d60209081526040808320600501546001600160a01b0388168452600e8352818420878552835281842085855290925282206006015482815b6000888152600d60205260409020600501546133ab906001906140dc565b811015613479576000888152600d602052604090206005018054829081106133d5576133d5613ddf565b60009182526020808320909101548a8352600d90915260409091206005016133fe836001613e9f565b8154811061340e5761340e613ddf565b906000526020600020015461342391906140dc565b6000898152600d6020526040902060040180548390811061344657613446613ddf565b906000526020600020015461345b9190613e0b565b6134659083613eb2565b915080613471816140a1565b91505061338d565b506000878152600d602052604090206005016134966001856140dc565b815481106134a6576134a6613ddf565b9060005260206000200154426134bc91906140dc565b6000888152600d602052604090206004016134d86001866140dc565b815481106134e8576134e8613ddf565b90600052602060002001546134fd9190613e0b565b6135079082613eb2565b6000888152600d60205260408120600501805492935090918490811061352f5761352f613ddf565b90600052602060002001544260016135479190613e9f565b61355191906140dc565b6000898152600d602052604090206005015461356e9085906140dc565b6135789190613e0b565b6135829083613e51565b90506000876000036135a9578160055461359c9190613eb2565b95506135c5945050505050565b876001036135bf578160055461359c9190613e7f565b50505050505b949350505050565b600080620f42406135de8486613e0b565b6135e89190613e51565b905062989680600454826135fc9190613e0b565b6135c59190613e51565b600080600885158015613617575083155b15613637576020850151855161362d9190614136565b60070b9150613696565b851580156136455750836001145b1561365b576020850151855161362d9190614165565b856001148015613669575083155b1561367f576020850151855161362d9190614165565b602085015185516136909190614136565b60070b91505b600085604001516000196136aa9190614194565b60030b90508060070b8260070b126136ef576136c68183614165565b6136d190600a614298565b6136e4906001600160401b03851661408a565b93506112d092505050565b6136f98282614165565b61370490600a614298565b6136e4906001600160401b0385166142ad565b60405180606001604052806003906020820280368337509192915050565b604051806101e00160405280600f905b6137856040518060e00160405280600081526020016000815260200160008152602001600081526020016000815260200160008152602001600081525090565b8152602001906001900390816137455790505090565b604051806101e00160405280600f905b6137ed6040518060c0016040528060006001600160a01b0316815260200160008152602001600081526020016000815260200160008152602001600081525090565b8152602001906001900390816137ab5790505090565b508054600082559060005260206000209081019061191b91905b80821115613831576000815560010161381d565b5090565b60006020828403121561384757600080fd5b5035919050565b6001600160a01b038116811461191b57600080fd5b6000806040838503121561387657600080fd5b82356138818161384e565b946020939093013593505050565b60608101818360005b60038110156138b7578151835260209283019290910190600101613898565b50505092915050565b600081518084526020808501945080840160005b838110156138f0578151875295820195908201906001016138d4565b509495945050505050565b6000815180845260005b8181101561392157602081850181015186830182015201613905565b506000602082860101526020601f19601f83011685010191505092915050565b6000602080835261010083018451828501528185015160408501526040850151606085015260608501516080850152608085015160e060a0860152818151808452610120870191508483019350600092505b808310156139b35783518252928401926001929092019190840190613993565b5060a08701519350601f199250828682030160c08701526139d481856138c0565b9350505060c0850151818584030160e086015261264983826138fb565b60008060408385031215613a0457600080fd5b50508035926020909101359150565b600060208284031215613a2557600080fd5b81356112d08161384e565b60008083601f840112613a4257600080fd5b5081356001600160401b03811115613a5957600080fd5b6020830191508360208260051b8501011115613a7457600080fd5b9250929050565b60008060008060008060a08789031215613a9457600080fd5b8635955060208701359450604087013593506060870135925060808701356001600160401b03811115613ac657600080fd5b613ad289828a01613a30565b979a9699509497509295939492505050565b600080600080600060808688031215613afc57600080fd5b8535613b078161384e565b9450602086013593506040860135925060608601356001600160401b03811115613b3057600080fd5b613b3c88828901613a30565b969995985093965092949392505050565b600080600060408486031215613b6257600080fd5b83356001600160401b03811115613b7857600080fd5b613b8486828701613a30565b909790965060209590950135949350505050565b805182526020810151602083015260408101516040830152606081015160608301526080810151608083015260a081015160a083015260c081015160c08301525050565b610d208101818360005b600f8110156138b757613bfa838351613b98565b60e0929092019160209190910190600101613be6565b600080600080600060a08688031215613c2857600080fd5b505083359560208501359550604085013594606081013594506080013592509050565b600080600060608486031215613c6057600080fd5b8335613c6b8161384e565b95602085013595506040909401359392505050565b60e081016107b98284613b98565b60008060008060608587031215613ca457600080fd5b843593506020850135925060408501356001600160401b03811115613cc857600080fd5b613cd487828801613a30565b95989497509550505050565b610b408101818360005b600f8110156138b757815180516001600160a01b031684526020808201518186015260408083015190860152606080830151908601526080808301519086015260a0918201519185019190915260c09093019290910190600101613cea565b6000602080830181845280855180835260408601915060408160051b870101925083870160005b82811015613d9e57603f19888603018452613d8c8583516138fb565b94509285019290850190600101613d70565b5092979650505050505050565b600181811c90821680613dbf57607f821691505b6020821081036128a457634e487b7160e01b600052602260045260246000fd5b634e487b7160e01b600052603260045260246000fd5b634e487b7160e01b600052601160045260246000fd5b80820260008212600160ff1b84141615613e2757613e27613df5565b81810583148215176107b9576107b9613df5565b634e487b7160e01b600052601260045260246000fd5b600082613e6057613e60613e3b565b600160ff1b821460001984141615613e7a57613e7a613df5565b500590565b818103600083128015838313168383128216171561140557611405613df5565b808201808211156107b9576107b9613df5565b8082018281126000831280158216821582161715613ed257613ed2613df5565b505092915050565b81835281816020850137506000828201602090810191909152601f909101601f19169091010190565b60208082528181018390526000906040600585901b8401810190840186845b87811015613f9157868403603f190183528135368a9003601e19018112613f4857600080fd5b890185810190356001600160401b03811115613f6357600080fd5b803603821315613f7257600080fd5b613f7d868284613eda565b955050509184019190840190600101613f22565b5091979650505050505050565b600060208284031215613fb057600080fd5b5051919050565b634e487b7160e01b600052604160045260246000fd5b80516001600160401b0381168114613fe457600080fd5b919050565b8051600381900b8114613fe457600080fd5b60006080828403121561400d57600080fd5b604051608081018181106001600160401b038211171561403d57634e487b7160e01b600052604160045260246000fd5b6040528251600781900b811461405257600080fd5b815261406060208401613fcd565b602082015261407160408401613fe9565b6040820152606083015160608201528091505092915050565b80820281158282048414176107b9576107b9613df5565b6000600182016140b3576140b3613df5565b5060010190565b6000602082840312156140cc57600080fd5b815180151581146112d057600080fd5b818103818111156107b9576107b9613df5565b6020808252825482820181905260008481528281209092916040850190845b8181101561412a5783548352600193840193928501920161410e565b50909695505050505050565b600781810b9083900b01677fffffffffffffff8113677fffffffffffffff19821217156107b9576107b9613df5565b600782810b9082900b03677fffffffffffffff198112677fffffffffffffff821317156107b9576107b9613df5565b60008260030b8260030b028060030b915080821461140557611405613df5565b600181815b808511156141ef5781600019048211156141d5576141d5613df5565b808516156141e257918102915b93841c93908002906141b9565b509250929050565b600082614206575060016107b9565b81614213575060006107b9565b816001811461422957600281146142335761424f565b60019150506107b9565b60ff84111561424457614244613df5565b50506001821b6107b9565b5060208310610133831016604e8410600b8410161715614272575081810a6107b9565b61427c83836141b4565b806000190482111561429057614290613df5565b029392505050565b60006112d06001600160401b038416836141f7565b6000826142bc576142bc613e3b565b50049056fea264697066735822122099efb75b6735253cd13e3ab35f6df7a288070718f7996ed8dc890ba705ab2fc764736f6c63430008130033",
    "linkReferences": {}
  },
  "methodIdentifiers": {
    "cancelLimitOrder(uint256,uint256)": "3486f756",
    "executeLimitOrder(address,uint256,uint256,bytes[])": "c7c529a7",
    "getAllUserLimitOrders(address)": "e628a0ee",
    "getAllUserOpenTrades(address)": "50c3cdc3",
    "getAssetPairDetails(uint256)": "1b5042ac",
    "getAssetPairIndexSymbol()": "ee9387de",
    "getBaseBorrowFee()": "3eb0ef2c",
    "getBotRewardBase()": "99484b41",
    "getBotRewardRate()": "4b16d1bc",
    "getCurrentBorrowRate(uint256)": "b8a077a5",
    "getPythPriceFeedAddress()": "c01646cb",
    "getTokenCollateralAddress()": "fa794403",
    "getTotalLongAmount(uint256)": "a829f21d",
    "getTotalShortAmount(uint256)": "0188d579",
    "getTradePositionBorrowFees(address,uint256,uint256)": "dfdc329f",
    "getTradingPairCurrentPrice(bytes[],uint256)": "4fae32e7",
    "getUserLiquidationPrice(address,uint256,uint256)": "ca3e8257",
    "getUserOpenTradesForAsset(address,uint256)": "061ff1f0",
    "getUserTradingPositionDetails(address,uint256,uint256)": "b0a88075",
    "limitOrder(uint256,int256,int256,uint256,int256)": "5ed4d25e",
    "liquidateUser(address,uint256,uint256,bytes[])": "4c70fb6d",
    "marketOrder(uint256,int256,int256,uint256,bytes[])": "37855bb7",
    "orderClose(uint256,uint256,bytes[])": "d928e336",
    "owner()": "8da5cb5b",
    "renounceOwnership()": "715018a6",
    "setBaseBorrowFeePercentage(int256)": "ab48a23a",
    "setBotRewardsRate(int256)": "43b3b908",
    "setBotsRewardsBase(int256)": "b8ed2eb4",
    "setCollateralTokenAddress(address)": "c700b0aa",
    "setLimitOrderMaxSlippage(int256)": "894b75cc",
    "setMaxBorrowInterestRate(int256)": "fc5dac38",
    "setMaxOpenInterestForPair(uint256,int256)": "1ec3cdc7",
    "setMinTradeSize(int256)": "fb8fbe1f",
    "setOpeningFee(int256)": "eee2b676",
    "setVariableBorrowFeePercentage(int256)": "d6ef8f82",
    "transferOwnership(address)": "f2fde38b",
    "withdrawBotRewards()": "6698f988",
    "withdrawErc20Token(address,uint256)": "9ed6b920",
    "withdrawEth(address)": "25e16063"
  },
  "id": 35
}